{
  "contractName": "BEV",
  "abi": [
    {
      "constant": true,
      "inputs": [
        {
          "name": "",
          "type": "address"
        }
      ],
      "name": "admins",
      "outputs": [
        {
          "name": "",
          "type": "bool"
        }
      ],
      "payable": false,
      "stateMutability": "view",
      "type": "function"
    },
    {
      "inputs": [],
      "payable": false,
      "stateMutability": "nonpayable",
      "type": "constructor"
    },
    {
      "anonymous": false,
      "inputs": [
        {
          "indexed": true,
          "name": "_idElection",
          "type": "uint256"
        },
        {
          "indexed": false,
          "name": "_active",
          "type": "bool"
        }
      ],
      "name": "ElectionEvent",
      "type": "event"
    },
    {
      "anonymous": false,
      "inputs": [
        {
          "indexed": true,
          "name": "_idElection",
          "type": "uint256"
        },
        {
          "indexed": true,
          "name": "_idCandidate",
          "type": "uint256"
        }
      ],
      "name": "VotedEvent",
      "type": "event"
    },
    {
      "constant": false,
      "inputs": [
        {
          "name": "_addr",
          "type": "address"
        }
      ],
      "name": "addAdmin",
      "outputs": [],
      "payable": false,
      "stateMutability": "nonpayable",
      "type": "function"
    },
    {
      "constant": false,
      "inputs": [
        {
          "name": "_addr",
          "type": "address"
        }
      ],
      "name": "deleteAdmin",
      "outputs": [],
      "payable": false,
      "stateMutability": "nonpayable",
      "type": "function"
    },
    {
      "constant": false,
      "inputs": [
        {
          "name": "_name",
          "type": "string"
        }
      ],
      "name": "addElection",
      "outputs": [],
      "payable": true,
      "stateMutability": "payable",
      "type": "function"
    },
    {
      "constant": true,
      "inputs": [
        {
          "name": "_idElection",
          "type": "uint256"
        }
      ],
      "name": "getElection",
      "outputs": [
        {
          "name": "",
          "type": "uint256"
        },
        {
          "name": "",
          "type": "string"
        },
        {
          "name": "",
          "type": "bool"
        },
        {
          "name": "",
          "type": "uint256"
        },
        {
          "name": "",
          "type": "uint256"
        }
      ],
      "payable": false,
      "stateMutability": "view",
      "type": "function"
    },
    {
      "constant": false,
      "inputs": [
        {
          "name": "_idElection",
          "type": "uint256"
        },
        {
          "name": "_active",
          "type": "bool"
        }
      ],
      "name": "activeElection",
      "outputs": [],
      "payable": false,
      "stateMutability": "nonpayable",
      "type": "function"
    },
    {
      "constant": false,
      "inputs": [
        {
          "name": "_idElection",
          "type": "uint256"
        }
      ],
      "name": "deleteElection",
      "outputs": [],
      "payable": false,
      "stateMutability": "nonpayable",
      "type": "function"
    },
    {
      "constant": true,
      "inputs": [],
      "name": "getTotalElections",
      "outputs": [
        {
          "name": "",
          "type": "uint256"
        }
      ],
      "payable": false,
      "stateMutability": "view",
      "type": "function"
    },
    {
      "constant": false,
      "inputs": [
        {
          "name": "_idElection",
          "type": "uint256"
        },
        {
          "name": "_name",
          "type": "string"
        }
      ],
      "name": "addCandidate",
      "outputs": [],
      "payable": false,
      "stateMutability": "nonpayable",
      "type": "function"
    },
    {
      "constant": true,
      "inputs": [
        {
          "name": "_idElection",
          "type": "uint256"
        },
        {
          "name": "_idCandidate",
          "type": "uint256"
        }
      ],
      "name": "getCandidate",
      "outputs": [
        {
          "name": "",
          "type": "uint256"
        },
        {
          "name": "",
          "type": "uint256"
        },
        {
          "name": "",
          "type": "string"
        },
        {
          "name": "",
          "type": "uint256"
        }
      ],
      "payable": false,
      "stateMutability": "view",
      "type": "function"
    },
    {
      "constant": false,
      "inputs": [
        {
          "name": "_idElection",
          "type": "uint256"
        },
        {
          "name": "_idCandidate",
          "type": "uint256"
        }
      ],
      "name": "deleteCandidate",
      "outputs": [],
      "payable": false,
      "stateMutability": "nonpayable",
      "type": "function"
    },
    {
      "constant": true,
      "inputs": [
        {
          "name": "_idElection",
          "type": "uint256"
        }
      ],
      "name": "getCandidatesCount",
      "outputs": [
        {
          "name": "",
          "type": "uint256"
        }
      ],
      "payable": false,
      "stateMutability": "view",
      "type": "function"
    },
    {
      "constant": false,
      "inputs": [
        {
          "name": "_idElection",
          "type": "uint256"
        },
        {
          "name": "_addr",
          "type": "address"
        },
        {
          "name": "_name",
          "type": "string"
        }
      ],
      "name": "addVoter",
      "outputs": [],
      "payable": false,
      "stateMutability": "nonpayable",
      "type": "function"
    },
    {
      "constant": true,
      "inputs": [
        {
          "name": "_idElection",
          "type": "uint256"
        },
        {
          "name": "_addr",
          "type": "address"
        }
      ],
      "name": "voterIsJoined",
      "outputs": [
        {
          "name": "",
          "type": "bool"
        }
      ],
      "payable": false,
      "stateMutability": "view",
      "type": "function"
    },
    {
      "constant": true,
      "inputs": [
        {
          "name": "_idElection",
          "type": "uint256"
        },
        {
          "name": "_index",
          "type": "uint256"
        }
      ],
      "name": "getAddressVoter",
      "outputs": [
        {
          "name": "",
          "type": "address"
        }
      ],
      "payable": false,
      "stateMutability": "view",
      "type": "function"
    },
    {
      "constant": true,
      "inputs": [
        {
          "name": "_idElection",
          "type": "uint256"
        },
        {
          "name": "_addr",
          "type": "address"
        }
      ],
      "name": "getVoter",
      "outputs": [
        {
          "name": "",
          "type": "uint256"
        },
        {
          "name": "",
          "type": "address"
        },
        {
          "name": "",
          "type": "string"
        },
        {
          "name": "",
          "type": "bool"
        }
      ],
      "payable": false,
      "stateMutability": "view",
      "type": "function"
    },
    {
      "constant": false,
      "inputs": [
        {
          "name": "_idElection",
          "type": "uint256"
        },
        {
          "name": "_addr",
          "type": "address"
        }
      ],
      "name": "deleteVoter",
      "outputs": [],
      "payable": false,
      "stateMutability": "nonpayable",
      "type": "function"
    },
    {
      "constant": true,
      "inputs": [
        {
          "name": "_idElection",
          "type": "uint256"
        }
      ],
      "name": "getVotersCount",
      "outputs": [
        {
          "name": "",
          "type": "uint256"
        }
      ],
      "payable": false,
      "stateMutability": "view",
      "type": "function"
    },
    {
      "constant": false,
      "inputs": [
        {
          "name": "_idElection",
          "type": "uint256"
        },
        {
          "name": "_idCandidate",
          "type": "uint256"
        }
      ],
      "name": "voting",
      "outputs": [],
      "payable": false,
      "stateMutability": "nonpayable",
      "type": "function"
    },
    {
      "constant": true,
      "inputs": [
        {
          "name": "_idElection",
          "type": "uint256"
        },
        {
          "name": "_addr",
          "type": "address"
        }
      ],
      "name": "voterHasVoted",
      "outputs": [
        {
          "name": "",
          "type": "bool"
        }
      ],
      "payable": false,
      "stateMutability": "view",
      "type": "function"
    },
    {
      "constant": true,
      "inputs": [
        {
          "name": "_idElection",
          "type": "uint256"
        }
      ],
      "name": "getResultElection",
      "outputs": [
        {
          "name": "",
          "type": "uint256"
        }
      ],
      "payable": false,
      "stateMutability": "view",
      "type": "function"
    },
    {
      "constant": true,
      "inputs": [],
      "name": "getContractBalance",
      "outputs": [
        {
          "name": "",
          "type": "uint256"
        }
      ],
      "payable": false,
      "stateMutability": "view",
      "type": "function"
    }
  ],
  "bytecode": "0x608060405234801561001057600080fd5b50336000806101000a81548173ffffffffffffffffffffffffffffffffffffffff021916908373ffffffffffffffffffffffffffffffffffffffff16021790555060018060003373ffffffffffffffffffffffffffffffffffffffff1673ffffffffffffffffffffffffffffffffffffffff16815260200190815260200160002060006101000a81548160ff021916908315150217905550612e64806100b76000396000f300608060405260043610610128576000357c0100000000000000000000000000000000000000000000000000000000900463ffffffff16806308e2fd4d1461012d5780630b713f29146101c05780631750a3d0146102255780631de66c931461029857806327e1f7df146102d9578063358b9d971461031c5780633ee95f0014610378578063429b62e5146103b9578063452cf3c8146104145780634bd46448146104555780636f9fb98a1461051a5780637048027514610545578063709be96a14610588578063740c47d4146105ed5780637569f2b51461061a578063826374e6146106675780638f47b146146106de5780639d710777146107e9578063a9392e0c146108af578063bdd03295146108da578063cf4a606014610913578063cfaad27c1461094a575b600080fd5b34801561013957600080fd5b506101be60048036038101908080359060200190929190803573ffffffffffffffffffffffffffffffffffffffff169060200190929190803590602001908201803590602001908080601f0160208091040260200160405190810160405280939291908181526020018383808284378201915050505050509192919290505050610981565b005b3480156101cc57600080fd5b5061020b60048036038101908080359060200190929190803573ffffffffffffffffffffffffffffffffffffffff169060200190929190505050610c1e565b604051808215151515815260200191505060405180910390f35b34801561023157600080fd5b5061029660048036038101908080359060200190929190803590602001908201803590602001908080601f0160208091040260200160405190810160405280939291908181526020018383808284378201915050505050509192919290505050610d87565b005b3480156102a457600080fd5b506102c360048036038101908080359060200190929190505050610f2a565b6040518082815260200191505060405180910390f35b3480156102e557600080fd5b5061031a600480360381019080803573ffffffffffffffffffffffffffffffffffffffff169060200190929190505050610fc7565b005b610376600480360381019080803590602001908201803590602001908080601f016020809104026020016040519081016040528093929190818152602001838380828437820191505050505050919291929050505061113e565b005b34801561038457600080fd5b506103a360048036038101908080359060200190929190505050611263565b6040518082815260200191505060405180910390f35b3480156103c557600080fd5b506103fa600480360381019080803573ffffffffffffffffffffffffffffffffffffffff169060200190929190505050611300565b604051808215151515815260200191505060405180910390f35b34801561042057600080fd5b5061043f60048036038101908080359060200190929190505050611320565b6040518082815260200191505060405180910390f35b34801561046157600080fd5b5061048a6004803603810190808035906020019092919080359060200190929190505050611504565b6040518085815260200184815260200180602001838152602001828103825284818151815260200191508051906020019080838360005b838110156104dc5780820151818401526020810190506104c1565b50505050905090810190601f1680156105095780820380516001836020036101000a031916815260200191505b509550505050505060405180910390f35b34801561052657600080fd5b5061052f61171e565b6040518082815260200191505060405180910390f35b34801561055157600080fd5b50610586600480360381019080803573ffffffffffffffffffffffffffffffffffffffff169060200190929190505050611742565b005b34801561059457600080fd5b506105d360048036038101908080359060200190929190803573ffffffffffffffffffffffffffffffffffffffff1690602001909291905050506118b9565b604051808215151515815260200191505060405180910390f35b3480156105f957600080fd5b50610618600480360381019080803590602001909291905050506119a1565b005b34801561062657600080fd5b5061066560048036038101908080359060200190929190803573ffffffffffffffffffffffffffffffffffffffff169060200190929190505050611bfa565b005b34801561067357600080fd5b5061069c6004803603810190808035906020019092919080359060200190929190505050611edd565b604051808273ffffffffffffffffffffffffffffffffffffffff1673ffffffffffffffffffffffffffffffffffffffff16815260200191505060405180910390f35b3480156106ea57600080fd5b5061072960048036038101908080359060200190929190803573ffffffffffffffffffffffffffffffffffffffff169060200190929190505050612004565b604051808581526020018473ffffffffffffffffffffffffffffffffffffffff1673ffffffffffffffffffffffffffffffffffffffff1681526020018060200183151515158152602001828103825284818151815260200191508051906020019080838360005b838110156107ab578082015181840152602081019050610790565b50505050905090810190601f1680156107d85780820380516001836020036101000a031916815260200191505b509550505050505060405180910390f35b3480156107f557600080fd5b50610814600480360381019080803590602001909291905050506122a4565b604051808681526020018060200185151515158152602001848152602001838152602001828103825286818151815260200191508051906020019080838360005b83811015610870578082015181840152602081019050610855565b50505050905090810190601f16801561089d5780820380516001836020036101000a031916815260200191505b50965050505050505060405180910390f35b3480156108bb57600080fd5b506108c461245e565b6040518082815260200191505060405180910390f35b3480156108e657600080fd5b5061091160048036038101908080359060200190929190803515159060200190929190505050612468565b005b34801561091f57600080fd5b5061094860048036038101908080359060200190929190803590602001909291905050506125ab565b005b34801561095657600080fd5b5061097f6004803603810190808035906020019092919080359060200190929190505050612773565b005b600160003373ffffffffffffffffffffffffffffffffffffffff1673ffffffffffffffffffffffffffffffffffffffff16815260200190815260200160002060009054906101000a900460ff1615156109d957600080fd5b6109e283612a46565b1515610a56576040517f08c379a00000000000000000000000000000000000000000000000000000000081526004018080602001828103825260138152602001807f456c65636369c3b36e206e6f2076616c6964610000000000000000000000000081525060200191505060405180910390fd5b60026000848152602001908152602001600020600401600081548092919060010191905055506040805190810160405280828152602001600015158152506002600085815260200190815260200160002060060160008473ffffffffffffffffffffffffffffffffffffffff1673ffffffffffffffffffffffffffffffffffffffff1681526020019081526020016000206000820151816000019080519060200190610b03929190612cdb565b5060208201518160010160006101000a81548160ff02191690831515021790555090505060016002600085815260200190815260200160002060070160008473ffffffffffffffffffffffffffffffffffffffff1673ffffffffffffffffffffffffffffffffffffffff16815260200190815260200160002060006101000a81548160ff021916908315150217905550816002600085815260200190815260200160002060080160006002600087815260200190815260200160002060040154815260200190815260200160002060006101000a81548173ffffffffffffffffffffffffffffffffffffffff021916908373ffffffffffffffffffffffffffffffffffffffff160217905550610c198383612a71565b505050565b6000610c2983612a46565b1515610c9d576040517f08c379a00000000000000000000000000000000000000000000000000000000081526004018080602001828103825260138152602001807f456c65636369c3b36e206e6f2076616c6964610000000000000000000000000081525060200191505060405180910390fd5b610ca783836118b9565b1515610d1b576040517f08c379a00000000000000000000000000000000000000000000000000000000081526004018080602001828103825260118152602001807f566f74616e7465206e6f2076616c69646f00000000000000000000000000000081525060200191505060405180910390fd5b6002600084815260200190815260200160002060060160008373ffffffffffffffffffffffffffffffffffffffff1673ffffffffffffffffffffffffffffffffffffffff16815260200190815260200160002060010160009054906101000a900460ff16905092915050565b600160003373ffffffffffffffffffffffffffffffffffffffff1673ffffffffffffffffffffffffffffffffffffffff16815260200190815260200160002060009054906101000a900460ff161515610ddf57600080fd5b610de882612a46565b1515610e5c576040517f08c379a00000000000000000000000000000000000000000000000000000000081526004018080602001828103825260138152602001807f456c65636369c3b36e206e6f2076616c6964610000000000000000000000000081525060200191505060405180910390fd5b600260008381526020019081526020016000206003016000815480929190600101919050555060606040519081016040528060026000858152602001908152602001600020600301548152602001828152602001600081525060026000848152602001908152602001600020600501600060026000868152602001908152602001600020600301548152602001908152602001600020600082015181600001556020820151816001019080519060200190610f18929190612cdb565b50604082015181600201559050505050565b6000610f3582612a46565b1515610fa9576040517f08c379a00000000000000000000000000000000000000000000000000000000081526004018080602001828103825260138152602001807f456c65636369c3b36e206e6f2076616c6964610000000000000000000000000081525060200191505060405180910390fd5b60026000838152602001908152602001600020600401549050919050565b3373ffffffffffffffffffffffffffffffffffffffff166000809054906101000a900473ffffffffffffffffffffffffffffffffffffffff1673ffffffffffffffffffffffffffffffffffffffff1614151561102257600080fd5b600160008273ffffffffffffffffffffffffffffffffffffffff1673ffffffffffffffffffffffffffffffffffffffff16815260200190815260200160002060009054906101000a900460ff1615156110e3576040517f08c379a00000000000000000000000000000000000000000000000000000000081526004018080602001828103825260148152602001807f4e6f2065732061646d696e6973747261646f722e00000000000000000000000081525060200191505060405180910390fd5b6000600160008373ffffffffffffffffffffffffffffffffffffffff1673ffffffffffffffffffffffffffffffffffffffff16815260200190815260200160002060006101000a81548160ff02191690831515021790555050565b600160003373ffffffffffffffffffffffffffffffffffffffff1673ffffffffffffffffffffffffffffffffffffffff16815260200190815260200160002060009054906101000a900460ff16151561119657600080fd5b670de0b6b3a7640000341415156111ac57600080fd5b60036000815480929190600101919050555060a0604051908101604052806003548152602001828152602001600015158152602001600081526020016000815250600260006003548152602001908152602001600020600082015181600001556020820151816001019080519060200190611228929190612cdb565b5060408201518160020160006101000a81548160ff021916908315150217905550606082015181600301556080820151816004015590505050565b600061126e82612a46565b15156112e2576040517f08c379a00000000000000000000000000000000000000000000000000000000081526004018080602001828103825260138152602001807f456c65636369c3b36e206e6f2076616c6964610000000000000000000000000081525060200191505060405180910390fd5b60026000838152602001908152602001600020600301549050919050565b60016020528060005260406000206000915054906101000a900460ff1681565b60008060008061132f85612a46565b15156113a3576040517f08c379a00000000000000000000000000000000000000000000000000000000081526004018080602001828103825260138152602001807f456c65636369c3b36e206e6f2076616c6964610000000000000000000000000081525060200191505060405180910390fd5b6002600086815260200190815260200160002060050160006001815260200190815260200160002060000154925060026000868152602001908152602001600020600501600060018152602001908152602001600020600201549150600290505b6002600086815260200190815260200160002060030154811115156114f957816002600087815260200190815260200160002060050160008381526020019081526020016000206002015411156114b4576002600086815260200190815260200160002060050160008281526020019081526020016000206000015492506002600086815260200190815260200160002060050160008281526020019081526020016000206002015491506114ec565b816002600087815260200190815260200160002060050160008381526020019081526020016000206002015414156114eb57600092505b5b8080600101915050611404565b829350505050919050565b60008060606000611513612d5b565b61151c87612a46565b1515611590576040517f08c379a00000000000000000000000000000000000000000000000000000000081526004018080602001828103825260138152602001807f456c65636369c3b36e206e6f2076616c6964610000000000000000000000000081525060200191505060405180910390fd5b61159a8787612c1d565b151561160e576040517f08c379a00000000000000000000000000000000000000000000000000000000081526004018080602001828103825260138152602001807f43616e64696461746f206e6f2076616c69646f0000000000000000000000000081525060200191505060405180910390fd5b6002600088815260200190815260200160002060050160008781526020019081526020016000206060604051908101604052908160008201548152602001600182018054600181600116156101000203166002900480601f0160208091040260200160405190810160405280929190818152602001828054600181600116156101000203166002900480156116e45780601f106116b9576101008083540402835291602001916116e4565b820191906000526020600020905b8154815290600101906020018083116116c757829003601f168201915b5050505050815260200160028201548152505090508681600001518260200151836040015181915094509450945094505092959194509250565b6000803090508073ffffffffffffffffffffffffffffffffffffffff163191505090565b3373ffffffffffffffffffffffffffffffffffffffff166000809054906101000a900473ffffffffffffffffffffffffffffffffffffffff1673ffffffffffffffffffffffffffffffffffffffff1614151561179d57600080fd5b600160008273ffffffffffffffffffffffffffffffffffffffff1673ffffffffffffffffffffffffffffffffffffffff16815260200190815260200160002060009054906101000a900460ff1615151561185f576040517f08c379a00000000000000000000000000000000000000000000000000000000081526004018080602001828103825260148152602001807f59612065732061646d696e6973747261646f722e00000000000000000000000081525060200191505060405180910390fd5b60018060008373ffffffffffffffffffffffffffffffffffffffff1673ffffffffffffffffffffffffffffffffffffffff16815260200190815260200160002060006101000a81548160ff02191690831515021790555050565b60006118c483612a46565b1515611938576040517f08c379a00000000000000000000000000000000000000000000000000000000081526004018080602001828103825260138152602001807f456c65636369c3b36e206e6f2076616c6964610000000000000000000000000081525060200191505060405180910390fd5b6002600084815260200190815260200160002060070160008373ffffffffffffffffffffffffffffffffffffffff1673ffffffffffffffffffffffffffffffffffffffff16815260200190815260200160002060009054906101000a900460ff16905092915050565b600160003373ffffffffffffffffffffffffffffffffffffffff1673ffffffffffffffffffffffffffffffffffffffff16815260200190815260200160002060009054906101000a900460ff1615156119f957600080fd5b611a0281612a46565b1515611a76576040517f08c379a00000000000000000000000000000000000000000000000000000000081526004018080602001828103825260138152602001807f456c65636369c3b36e206e6f2076616c6964610000000000000000000000000081525060200191505060405180910390fd5b60006002600083815260200190815260200160002060040154141515611b04576040517f08c379a000000000000000000000000000000000000000000000000000000000815260040180806020018281038252600c8152602001807f48617920766f74616e746573000000000000000000000000000000000000000081525060200191505060405180910390fd5b60006002600083815260200190815260200160002060030154141515611b92576040517f08c379a000000000000000000000000000000000000000000000000000000000815260040180806020018281038252600e8152602001807f4861792063616e64696461746f7300000000000000000000000000000000000081525060200191505060405180910390fd5b6003600081548092919060019003919050555060026000828152602001908152602001600020600080820160009055600182016000611bd19190612d7d565b6002820160006101000a81549060ff021916905560038201600090556004820160009055505050565b600160003373ffffffffffffffffffffffffffffffffffffffff1673ffffffffffffffffffffffffffffffffffffffff16815260200190815260200160002060009054906101000a900460ff161515611c5257600080fd5b611c5b82612a46565b1515611ccf576040517f08c379a00000000000000000000000000000000000000000000000000000000081526004018080602001828103825260138152602001807f456c65636369c3b36e206e6f2076616c6964610000000000000000000000000081525060200191505060405180910390fd5b611cd982826118b9565b1515611d4d576040517f08c379a00000000000000000000000000000000000000000000000000000000081526004018080602001828103825260158152602001807f456c207573756172696f206e6f2065786973746521000000000000000000000081525060200191505060405180910390fd5b611d578282610c1e565b151515611dcc576040517f08c379a000000000000000000000000000000000000000000000000000000000815260040180806020018281038252600f8152602001807f566f74616e746520796120766f746f000000000000000000000000000000000081525060200191505060405180910390fd5b60026000838152602001908152602001600020600401600081548092919060019003919050555060006002600084815260200190815260200160002060070160008373ffffffffffffffffffffffffffffffffffffffff1673ffffffffffffffffffffffffffffffffffffffff16815260200190815260200160002060006101000a81548160ff0219169083151502179055506002600083815260200190815260200160002060060160008273ffffffffffffffffffffffffffffffffffffffff1673ffffffffffffffffffffffffffffffffffffffff16815260200190815260200160002060008082016000611ec39190612d7d565b6001820160006101000a81549060ff021916905550505050565b6000600160003373ffffffffffffffffffffffffffffffffffffffff1673ffffffffffffffffffffffffffffffffffffffff16815260200190815260200160002060009054906101000a900460ff161515611f3757600080fd5b611f4083612a46565b1515611fb4576040517f08c379a00000000000000000000000000000000000000000000000000000000081526004018080602001828103825260138152602001807f456c65636369c3b36e206e6f2076616c6964610000000000000000000000000081525060200191505060405180910390fd5b60026000848152602001908152602001600020600801600083815260200190815260200160002060009054906101000a900473ffffffffffffffffffffffffffffffffffffffff16905092915050565b60008060606000612013612dc5565b600160003373ffffffffffffffffffffffffffffffffffffffff1673ffffffffffffffffffffffffffffffffffffffff16815260200190815260200160002060009054906101000a900460ff16151561206b57600080fd5b61207487612a46565b15156120e8576040517f08c379a00000000000000000000000000000000000000000000000000000000081526004018080602001828103825260138152602001807f456c65636369c3b36e206e6f2076616c6964610000000000000000000000000081525060200191505060405180910390fd5b6120f287876118b9565b1515612166576040517f08c379a00000000000000000000000000000000000000000000000000000000081526004018080602001828103825260118152602001807f566f74616e7465206e6f2076616c69646f00000000000000000000000000000081525060200191505060405180910390fd5b6002600088815260200190815260200160002060060160008773ffffffffffffffffffffffffffffffffffffffff1673ffffffffffffffffffffffffffffffffffffffff168152602001908152602001600020604080519081016040529081600082018054600181600116156101000203166002900480601f01602080910402602001604051908101604052809291908181526020018280546001816001161561010002031660029004801561225d5780601f106122325761010080835404028352916020019161225d565b820191906000526020600020905b81548152906001019060200180831161224057829003601f168201915b505050505081526020016001820160009054906101000a900460ff161515151581525050905086868260000151836020015181915094509450945094505092959194509250565b6000606060008060006122b5612de1565b6122be87612a46565b1515612332576040517f08c379a00000000000000000000000000000000000000000000000000000000081526004018080602001828103825260138152602001807f456c65636369c3b36e206e6f2076616c6964610000000000000000000000000081525060200191505060405180910390fd5b6002600088815260200190815260200160002060a0604051908101604052908160008201548152602001600182018054600181600116156101000203166002900480601f0160208091040260200160405190810160405280929190818152602001828054600181600116156101000203166002900480156123f45780601f106123c9576101008083540402835291602001916123f4565b820191906000526020600020905b8154815290600101906020018083116123d757829003601f168201915b505050505081526020016002820160009054906101000a900460ff1615151515815260200160038201548152602001600482015481525050905080600001518160200151826040015183606001518460800151839350955095509550955095505091939590929450565b6000600354905090565b600160003373ffffffffffffffffffffffffffffffffffffffff1673ffffffffffffffffffffffffffffffffffffffff16815260200190815260200160002060009054906101000a900460ff1615156124c057600080fd5b6124c982612a46565b151561253d576040517f08c379a00000000000000000000000000000000000000000000000000000000081526004018080602001828103825260138152602001807f456c65636369c3b36e206e6f2076616c6964610000000000000000000000000081525060200191505060405180910390fd5b806002600084815260200190815260200160002060020160006101000a81548160ff021916908315150217905550817f7e57b0cb87ad213c4cd8cdf178c77c37169e86ae539ad1b435d2afa8a480081482604051808215151515815260200191505060405180910390a25050565b600160003373ffffffffffffffffffffffffffffffffffffffff1673ffffffffffffffffffffffffffffffffffffffff16815260200190815260200160002060009054906101000a900460ff16151561260357600080fd5b61260c82612a46565b1515612680576040517f08c379a00000000000000000000000000000000000000000000000000000000081526004018080602001828103825260138152602001807f456c65636369c3b36e206e6f2076616c6964610000000000000000000000000081525060200191505060405180910390fd5b61268a8282612c1d565b15156126fe576040517f08c379a00000000000000000000000000000000000000000000000000000000081526004018080602001828103825260138152602001807f43616e64696461746f206e6f2076616c69646f0000000000000000000000000081525060200191505060405180910390fd5b6002600083815260200190815260200160002060030160008154809291906001900391905055506002600083815260200190815260200160002060050160008281526020019081526020016000206000808201600090556001820160006127659190612d7d565b600282016000905550505050565b61277c82612a46565b15156127f0576040517f08c379a00000000000000000000000000000000000000000000000000000000081526004018080602001828103825260138152602001807f456c65636369c3b36e206e6f2076616c6964610000000000000000000000000081525060200191505060405180910390fd5b6127fa82336118b9565b151561286e576040517f08c379a00000000000000000000000000000000000000000000000000000000081526004018080602001828103825260118152602001807f566f74616e7465206e6f2076616c69646f00000000000000000000000000000081525060200191505060405180910390fd5b6128788233610c1e565b1515156128ed576040517f08c379a000000000000000000000000000000000000000000000000000000000815260040180806020018281038252600f8152602001807f566f74616e746520796120766f746f000000000000000000000000000000000081525060200191505060405180910390fd5b6128f78282612c1d565b151561296b576040517f08c379a00000000000000000000000000000000000000000000000000000000081526004018080602001828103825260138152602001807f43616e64696461746f206e6f2076616c69646f0000000000000000000000000081525060200191505060405180910390fd5b60016002600084815260200190815260200160002060060160003373ffffffffffffffffffffffffffffffffffffffff1673ffffffffffffffffffffffffffffffffffffffff16815260200190815260200160002060010160006101000a81548160ff0219169083151502179055506002600083815260200190815260200160002060050160008281526020019081526020016000206002016000815480929190600101919050555080827fac631cf963e26ff421b915fc32e8d8c6b1898317dfa37a2f94e77adf3f6b8b0d60405160405180910390a35050565b60008082118015612a5957506003548211155b15612a675760019050612a6c565b600090505b919050565b6000600160003373ffffffffffffffffffffffffffffffffffffffff1673ffffffffffffffffffffffffffffffffffffffff16815260200190815260200160002060009054906101000a900460ff161515612acb57600080fd5b612ad583836118b9565b1515612b49576040517f08c379a00000000000000000000000000000000000000000000000000000000081526004018080602001828103825260118152602001807f566f74616e7465206e6f2076616c69646f00000000000000000000000000000081525060200191505060405180910390fd5b66470de4df820000905080612b5c61171e565b111515612bd1576040517f08c379a00000000000000000000000000000000000000000000000000000000081526004018080602001828103825260198152602001807f4e6f206861792065746865727320737566696369656e7465730000000000000081525060200191505060405180910390fd5b8173ffffffffffffffffffffffffffffffffffffffff166108fc829081150290604051600060405180830381858888f19350505050158015612c17573d6000803e3d6000fd5b50505050565b6000612c2883612a46565b1515612c9c576040517f08c379a00000000000000000000000000000000000000000000000000000000081526004018080602001828103825260138152602001807f456c65636369c3b36e206e6f2076616c6964610000000000000000000000000081525060200191505060405180910390fd5b600082118015612cc2575060026000848152602001908152602001600020600301548211155b15612cd05760019050612cd5565b600090505b92915050565b828054600181600116156101000203166002900490600052602060002090601f016020900481019282601f10612d1c57805160ff1916838001178555612d4a565b82800160010185558215612d4a579182015b82811115612d49578251825591602001919060010190612d2e565b5b509050612d579190612e13565b5090565b6060604051908101604052806000815260200160608152602001600081525090565b50805460018160011615610100020316600290046000825580601f10612da35750612dc2565b601f016020900490600052602060002090810190612dc19190612e13565b5b50565b6040805190810160405280606081526020016000151581525090565b60a060405190810160405280600081526020016060815260200160001515815260200160008152602001600081525090565b612e3591905b80821115612e31576000816000905550600101612e19565b5090565b905600a165627a7a7230582093a32bf9c62c2512a3ff825dd5baec8eee9282ae9d43aa2c51e14c4ed2c1e3cb0029",
  "source": "pragma solidity ^0.4.24;\r\n\r\ncontract BEV {\r\n    address private owner; // Propietario del contrato\r\n    mapping(address => bool) public admins; // Lista de administradores\r\n\r\n    // Estructura de candidato\r\n    struct Candidate {\r\n        uint id;\r\n        string name;\r\n        uint voteCount;\r\n    }\r\n\r\n    // Estructura de votante\r\n    struct Voter {\r\n        string name;\r\n        bool voted;\r\n    }\r\n\r\n    // Estructura de eleccin\r\n    struct Election {\r\n        uint id;\r\n        string name;\r\n        bool active; // Estado de la eleccin => activa = true\r\n        uint candidatesCount;// Almacenar el recuento de los candidatos\r\n        uint votersCount; // Almacenar el recuento de los votantes\r\n\r\n        mapping(uint => Candidate) candidates; // Lectura/escritura de candidatos\r\n        mapping(address => Voter) voters; // Lectura/escritura de los votantes\r\n        mapping(address => bool) joinedVoters; // Almacenar cuentas que pueden votar\r\n        mapping(uint => address) allVoters; // Lista de los votantes\r\n    }\r\n\r\n    mapping(uint => Election) private elections; // Lista de elecciones\r\n    uint private electionsCount; // Almacenar el recuento de las elecciones\r\n\r\n    event ElectionEvent (\r\n        uint indexed _idElection,\r\n        bool _active\r\n    );\r\n\r\n    event VotedEvent (\r\n        uint indexed _idElection,\r\n        uint indexed _idCandidate\r\n    );\r\n\r\n    // Validar si es propietario\r\n    modifier isOwner(){\r\n        require(owner == msg.sender);\r\n        _;\r\n    }\r\n\r\n    // Validar si es administrador\r\n    modifier isAdmin(){\r\n        require(admins[msg.sender]);\r\n        _;\r\n    }\r\n\r\n    constructor () public {\r\n        owner = msg.sender; // Quien publica el contrato es el dueo\r\n        admins[msg.sender] = true; // Es administrador tambien\r\n    }\r\n\r\n    // Agregar un administrador\r\n    function addAdmin(address _addr) public isOwner {\r\n        require(!admins[_addr], \"Ya es administrador.\");\r\n        admins[_addr] = true;\r\n    }\r\n\r\n    // Quitar un administrador\r\n    function deleteAdmin(address _addr) public isOwner {\r\n        require(admins[_addr], \"No es administrador.\");\r\n        admins[_addr] = false;\r\n    }\r\n\r\n    // Agregar una eleccin\r\n    function addElection(string _name) public isAdmin payable {\r\n        require(msg.value == 1 ether);\r\n        electionsCount++;\r\n        elections[electionsCount] = Election(electionsCount, _name, false, 0, 0);\r\n        //elections.push(Election(_name, false, 0, 0));\r\n    }\r\n\r\n    // Obtener detalles de una eleccin\r\n    function getElection(uint _idElection) public view returns(uint, string, bool, uint, uint) {\r\n        require(electionIsValid(_idElection), \"Eleccin no valida\");\r\n        Election memory election = elections[_idElection];\r\n        return (election.id, election.name, election.active, election.candidatesCount, election.votersCount);\r\n    }\r\n\r\n    // Activar una eleccin\r\n    function activeElection(uint _idElection, bool _active) public isAdmin {\r\n        require(electionIsValid(_idElection), \"Eleccin no valida\");\r\n        elections[_idElection].active = _active;\r\n\r\n        emit ElectionEvent(_idElection, _active);\r\n    }\r\n\r\n   // Eliminar una eleccin\r\n    function deleteElection(uint _idElection) public isAdmin {\r\n        require(electionIsValid(_idElection), \"Eleccin no valida\");\r\n        require(elections[_idElection].votersCount == 0,\"Hay votantes\");\r\n        require(elections[_idElection].candidatesCount == 0, \"Hay candidatos\");\r\n\r\n        electionsCount--;\r\n        delete elections[_idElection];\r\n    }\r\n\r\n    // Devuelve la cantidad de elecciones que hay en el contrato\r\n    function getTotalElections() public view returns(uint) {\r\n        return electionsCount;\r\n    }\r\n\r\n    // Comprobar si la eleccion es valida\r\n    function electionIsValid(uint _idElection) private view returns(bool) {\r\n        if(_idElection > 0 && _idElection <= electionsCount)\r\n            return true;\r\n\r\n        return false;\r\n    }\r\n\r\n    // Agregar un candidato\r\n    function addCandidate (uint _idElection, string _name) public isAdmin {\r\n        require(electionIsValid(_idElection), \"Eleccin no valida\");\r\n        elections[_idElection].candidatesCount++;\r\n        elections[_idElection].candidates[elections[_idElection].candidatesCount] = Candidate(elections[_idElection].candidatesCount, _name, 0);\r\n    }\r\n\r\n    // Obtener un candidato\r\n    function getCandidate(uint _idElection, uint _idCandidate) public view returns(uint, uint, string, uint) {\r\n        require(electionIsValid(_idElection), \"Eleccin no valida\");\r\n        require(candidateIsValid(_idElection, _idCandidate), \"Candidato no valido\");\r\n        Candidate memory candidate = elections[_idElection].candidates[_idCandidate];\r\n        return (_idElection, candidate.id, candidate.name, candidate.voteCount);\r\n    }\r\n\r\n   // Eliminar un candidato\r\n    function deleteCandidate(uint _idElection, uint _idCandidate) public isAdmin {\r\n        require(electionIsValid(_idElection), \"Eleccin no valida\");\r\n        require(candidateIsValid(_idElection, _idCandidate), \"Candidato no valido\");\r\n        elections[_idElection].candidatesCount--;\r\n        delete elections[_idElection].candidates[_idCandidate];\r\n    }\r\n\r\n    // Obtener la cantidad de candidatos de una eleccin\r\n    function getCandidatesCount (uint _idElection) public view returns(uint){\r\n        require(electionIsValid(_idElection), \"Eleccin no valida\");\r\n        return elections[_idElection].candidatesCount;\r\n    }\r\n\r\n    // Comprobar si el candidato es valido\r\n    function candidateIsValid(uint _idElection, uint _idCandidate) private view returns(bool) {\r\n        require(electionIsValid(_idElection), \"Eleccin no valida\");\r\n        if(_idCandidate > 0 && _idCandidate <= elections[_idElection].candidatesCount)\r\n            return true;\r\n\r\n        return false;\r\n    }\r\n\r\n    // Agregar un votante\r\n    function addVoter (uint _idElection, address _addr, string _name) public isAdmin {\r\n        require(electionIsValid(_idElection), \"Eleccin no valida\");\r\n        elections[_idElection].votersCount++;\r\n        elections[_idElection].voters[_addr] = Voter(_name, false);\r\n        elections[_idElection].joinedVoters[_addr] = true;\r\n        elections[_idElection].allVoters[elections[_idElection].votersCount] = _addr;\r\n        getEthersForVoting(_idElection, _addr);\r\n    }\r\n\r\n    // Comprobar si el votante esta en el padrn\r\n    function voterIsJoined(uint _idElection, address _addr) public view returns(bool) {\r\n        require(electionIsValid(_idElection), \"Eleccin no valida\");\r\n        return elections[_idElection].joinedVoters[_addr];\r\n    }\r\n\r\n    // Obtengo la cuenta de un votante segn su posicin\r\n    function getAddressVoter(uint _idElection, uint _index) public isAdmin view returns(address) {\r\n        require(electionIsValid(_idElection), \"Eleccin no valida\");\r\n        return elections[_idElection].allVoters[_index];\r\n    }\r\n\r\n    // Obtengo un votante\r\n    function getVoter(uint _idElection, address _addr) public isAdmin view returns(uint, address, string, bool) {\r\n        require(electionIsValid(_idElection), \"Eleccin no valida\");\r\n        require(voterIsJoined(_idElection, _addr), \"Votante no valido\");\r\n        Voter memory voter = elections[_idElection].voters[_addr];\r\n        return (_idElection, _addr, voter.name, voter.voted);\r\n    }\r\n\r\n   // Eliminar votante\r\n    function deleteVoter(uint _idElection, address _addr) public isAdmin {\r\n        require(electionIsValid(_idElection), \"Eleccin no valida\");\r\n        require(voterIsJoined(_idElection, _addr),\"El usuario no existe!\");\r\n        require(!voterHasVoted(_idElection, _addr), \"Votante ya voto\");\r\n\r\n        elections[_idElection].votersCount--;\r\n        elections[_idElection].joinedVoters[_addr] = false;\r\n        delete elections[_idElection].voters[_addr];\r\n    }\r\n\r\n    // Obtener la cantidad de votantes de la eleccin\r\n    function getVotersCount (uint _idElection) public view returns(uint){\r\n        require(electionIsValid(_idElection), \"Eleccin no valida\");\r\n        return elections[_idElection].votersCount;\r\n    }\r\n\r\n    // Votar: Reemplazar voter por msg.sender!\r\n    function voting (uint _idElection, uint _idCandidate) public {\r\n        require(electionIsValid(_idElection), \"Eleccin no valida\"); // Requerir una eleccin vlida\r\n        // Exigir que sea un votante valido y que no haya votado antes\r\n        require(voterIsJoined(_idElection, msg.sender), \"Votante no valido\");\r\n        require(!voterHasVoted(_idElection, msg.sender), \"Votante ya voto\");\r\n        require(candidateIsValid(_idElection, _idCandidate), \"Candidato no valido\"); // Requerir un candidato vlido\r\n\r\n        elections[_idElection].voters[msg.sender].voted = true; // Registro de que el votante ha votado\r\n        elections[_idElection].candidates[_idCandidate].voteCount++; // Registro de que el votante ha votado\r\n        emit VotedEvent(_idElection, _idCandidate); // Evento desencadenante del voto\r\n    }\r\n\r\n    // Comprobar si el votante ya voto\r\n    function voterHasVoted(uint _idElection, address _addr) public view returns(bool) {\r\n        require(electionIsValid(_idElection), \"Eleccin no valida\");\r\n        require(voterIsJoined(_idElection, _addr), \"Votante no valido\");\r\n        return elections[_idElection].voters[_addr].voted;\r\n    }\r\n\r\n    // Resultado de la votacin\r\n    function getResultElection(uint _idElection) public view returns(uint) {\r\n        require(electionIsValid(_idElection), \"Eleccin no valida\");\r\n        uint idGanadorActual = elections[_idElection].candidates[1].id;\r\n        uint votosGanadorActual = elections[_idElection].candidates[1].voteCount;\r\n        for(uint i = 2; i <= elections[_idElection].candidatesCount; i++) {\r\n            if(elections[_idElection].candidates[i].voteCount > votosGanadorActual) {\r\n                idGanadorActual = elections[_idElection].candidates[i].id;\r\n                votosGanadorActual = elections[_idElection].candidates[i].voteCount;\r\n            }\r\n            else {\r\n                if(elections[_idElection].candidates[i].voteCount == votosGanadorActual)\r\n                    idGanadorActual = 0;\r\n            }\r\n        }\r\n        return idGanadorActual;\r\n    }\r\n\r\n    // Transferir etheres para poder votar\r\n    function getEthersForVoting(uint _idElection, address _addr) isAdmin private {\r\n        require(voterIsJoined(_idElection, _addr), \"Votante no valido\");\r\n        uint monto = 20000000000000000;\r\n        require(getContractBalance() > monto, \"No hay ethers suficientes\");\r\n        _addr.transfer(monto);\r\n    }\r\n\r\n    // Obtener el balance del SmartContract\r\n    function getContractBalance() public view returns (uint) {\r\n        address BEVAddress = this;\r\n        return BEVAddress.balance;\r\n    }\r\n\r\n}",
  "sourcePath": "/Users/martinober/Documents/blockchain-electronic-voting/contracts/BEV.sol",
  "compiler": {
    "name": "solc",
    "version": "0.4.25+commit.59dbf8f1.Emscripten.clang"
  },
  "schemaVersion": "2.0.2",
  "updatedAt": "2020-01-17T23:01:03.576Z"
}