{
  "contractName": "BEV",
  "abi": [
    {
      "constant": true,
      "inputs": [
        {
          "name": "",
          "type": "address"
        }
      ],
      "name": "admins",
      "outputs": [
        {
          "name": "",
          "type": "bool"
        }
      ],
      "payable": false,
      "stateMutability": "view",
      "type": "function"
    },
    {
      "inputs": [],
      "payable": false,
      "stateMutability": "nonpayable",
      "type": "constructor"
    },
    {
      "anonymous": false,
      "inputs": [
        {
          "indexed": true,
          "name": "_idElection",
          "type": "uint256"
        },
        {
          "indexed": false,
          "name": "_active",
          "type": "bool"
        }
      ],
      "name": "ElectionEvent",
      "type": "event"
    },
    {
      "anonymous": false,
      "inputs": [
        {
          "indexed": true,
          "name": "_idElection",
          "type": "uint256"
        },
        {
          "indexed": true,
          "name": "_idCandidate",
          "type": "uint256"
        }
      ],
      "name": "VotedEvent",
      "type": "event"
    },
    {
      "constant": false,
      "inputs": [
        {
          "name": "_addr",
          "type": "address"
        }
      ],
      "name": "addAdmin",
      "outputs": [],
      "payable": false,
      "stateMutability": "nonpayable",
      "type": "function"
    },
    {
      "constant": false,
      "inputs": [
        {
          "name": "_addr",
          "type": "address"
        }
      ],
      "name": "deleteAdmin",
      "outputs": [],
      "payable": false,
      "stateMutability": "nonpayable",
      "type": "function"
    },
    {
      "constant": false,
      "inputs": [
        {
          "name": "_name",
          "type": "string"
        }
      ],
      "name": "addElection",
      "outputs": [],
      "payable": true,
      "stateMutability": "payable",
      "type": "function"
    },
    {
      "constant": true,
      "inputs": [
        {
          "name": "_idElection",
          "type": "uint256"
        }
      ],
      "name": "getElection",
      "outputs": [
        {
          "name": "",
          "type": "uint256"
        },
        {
          "name": "",
          "type": "string"
        },
        {
          "name": "",
          "type": "bool"
        },
        {
          "name": "",
          "type": "uint256"
        },
        {
          "name": "",
          "type": "uint256"
        }
      ],
      "payable": false,
      "stateMutability": "view",
      "type": "function"
    },
    {
      "constant": false,
      "inputs": [
        {
          "name": "_idElection",
          "type": "uint256"
        },
        {
          "name": "_active",
          "type": "bool"
        }
      ],
      "name": "activeElection",
      "outputs": [],
      "payable": false,
      "stateMutability": "nonpayable",
      "type": "function"
    },
    {
      "constant": false,
      "inputs": [
        {
          "name": "_idElection",
          "type": "uint256"
        }
      ],
      "name": "deleteElection",
      "outputs": [],
      "payable": false,
      "stateMutability": "nonpayable",
      "type": "function"
    },
    {
      "constant": true,
      "inputs": [],
      "name": "getTotalElections",
      "outputs": [
        {
          "name": "",
          "type": "uint256"
        }
      ],
      "payable": false,
      "stateMutability": "view",
      "type": "function"
    },
    {
      "constant": false,
      "inputs": [
        {
          "name": "_idElection",
          "type": "uint256"
        },
        {
          "name": "_name",
          "type": "string"
        }
      ],
      "name": "addCandidate",
      "outputs": [],
      "payable": false,
      "stateMutability": "nonpayable",
      "type": "function"
    },
    {
      "constant": true,
      "inputs": [
        {
          "name": "_idElection",
          "type": "uint256"
        },
        {
          "name": "_idCandidate",
          "type": "uint256"
        }
      ],
      "name": "getCandidate",
      "outputs": [
        {
          "name": "",
          "type": "uint256"
        },
        {
          "name": "",
          "type": "string"
        },
        {
          "name": "",
          "type": "uint256"
        }
      ],
      "payable": false,
      "stateMutability": "view",
      "type": "function"
    },
    {
      "constant": false,
      "inputs": [
        {
          "name": "_idElection",
          "type": "uint256"
        },
        {
          "name": "_idCandidate",
          "type": "uint256"
        }
      ],
      "name": "deleteCandidate",
      "outputs": [],
      "payable": false,
      "stateMutability": "nonpayable",
      "type": "function"
    },
    {
      "constant": true,
      "inputs": [
        {
          "name": "_idElection",
          "type": "uint256"
        }
      ],
      "name": "getCandidatesCount",
      "outputs": [
        {
          "name": "",
          "type": "uint256"
        }
      ],
      "payable": false,
      "stateMutability": "view",
      "type": "function"
    },
    {
      "constant": false,
      "inputs": [
        {
          "name": "_idElection",
          "type": "uint256"
        },
        {
          "name": "_addr",
          "type": "address"
        },
        {
          "name": "_name",
          "type": "string"
        }
      ],
      "name": "addVoter",
      "outputs": [],
      "payable": false,
      "stateMutability": "nonpayable",
      "type": "function"
    },
    {
      "constant": true,
      "inputs": [
        {
          "name": "_idElection",
          "type": "uint256"
        },
        {
          "name": "_addr",
          "type": "address"
        }
      ],
      "name": "voterIsJoined",
      "outputs": [
        {
          "name": "",
          "type": "bool"
        }
      ],
      "payable": false,
      "stateMutability": "view",
      "type": "function"
    },
    {
      "constant": false,
      "inputs": [
        {
          "name": "_idElection",
          "type": "uint256"
        },
        {
          "name": "_addr",
          "type": "address"
        }
      ],
      "name": "deleteVoter",
      "outputs": [],
      "payable": false,
      "stateMutability": "nonpayable",
      "type": "function"
    },
    {
      "constant": true,
      "inputs": [
        {
          "name": "_idElection",
          "type": "uint256"
        }
      ],
      "name": "getVotersCount",
      "outputs": [
        {
          "name": "",
          "type": "uint256"
        }
      ],
      "payable": false,
      "stateMutability": "view",
      "type": "function"
    },
    {
      "constant": false,
      "inputs": [
        {
          "name": "_idElection",
          "type": "uint256"
        },
        {
          "name": "_idCandidate",
          "type": "uint256"
        }
      ],
      "name": "voting",
      "outputs": [],
      "payable": false,
      "stateMutability": "nonpayable",
      "type": "function"
    },
    {
      "constant": true,
      "inputs": [
        {
          "name": "_idElection",
          "type": "uint256"
        },
        {
          "name": "_addr",
          "type": "address"
        }
      ],
      "name": "voterHasVoted",
      "outputs": [
        {
          "name": "",
          "type": "bool"
        }
      ],
      "payable": false,
      "stateMutability": "view",
      "type": "function"
    },
    {
      "constant": true,
      "inputs": [
        {
          "name": "_idElection",
          "type": "uint256"
        }
      ],
      "name": "getResultElection",
      "outputs": [
        {
          "name": "",
          "type": "uint256"
        }
      ],
      "payable": false,
      "stateMutability": "view",
      "type": "function"
    },
    {
      "constant": true,
      "inputs": [],
      "name": "getContractBalance",
      "outputs": [
        {
          "name": "",
          "type": "uint256"
        }
      ],
      "payable": false,
      "stateMutability": "view",
      "type": "function"
    }
  ],
  "bytecode": "0x608060405234801561001057600080fd5b50336000806101000a81548173ffffffffffffffffffffffffffffffffffffffff021916908373ffffffffffffffffffffffffffffffffffffffff16021790555060018060003373ffffffffffffffffffffffffffffffffffffffff1673ffffffffffffffffffffffffffffffffffffffff16815260200190815260200160002060006101000a81548160ff021916908315150217905550612860806100b76000396000f300608060405260043610610112576000357c0100000000000000000000000000000000000000000000000000000000900463ffffffff16806308e2fd4d146101175780630b713f29146101aa5780631750a3d01461020f5780631de66c931461028257806327e1f7df146102c3578063358b9d97146103065780633ee95f0014610362578063429b62e5146103a3578063452cf3c8146103fe5780634bd464481461043f5780636f9fb98a146104fd5780637048027514610528578063709be96a1461056b578063740c47d4146105d05780637569f2b5146105fd5780639d7107771461064a578063a9392e0c14610710578063bdd032951461073b578063cf4a606014610774578063cfaad27c146107ab575b600080fd5b34801561012357600080fd5b506101a860048036038101908080359060200190929190803573ffffffffffffffffffffffffffffffffffffffff169060200190929190803590602001908201803590602001908080601f01602080910402602001604051908101604052809392919081815260200183838082843782019150505050505091929192905050506107e2565b005b3480156101b657600080fd5b506101f560048036038101908080359060200190929190803573ffffffffffffffffffffffffffffffffffffffff169060200190929190505050610a03565b604051808215151515815260200191505060405180910390f35b34801561021b57600080fd5b5061028060048036038101908080359060200190929190803590602001908201803590602001908080601f0160208091040260200160405190810160405280939291908181526020018383808284378201915050505050509192919290505050610b6c565b005b34801561028e57600080fd5b506102ad60048036038101908080359060200190929190505050610d0f565b6040518082815260200191505060405180910390f35b3480156102cf57600080fd5b50610304600480360381019080803573ffffffffffffffffffffffffffffffffffffffff169060200190929190505050610dac565b005b610360600480360381019080803590602001908201803590602001908080601f0160208091040260200160405190810160405280939291908181526020018383808284378201915050505050509192919290505050610f23565b005b34801561036e57600080fd5b5061038d60048036038101908080359060200190929190505050611048565b6040518082815260200191505060405180910390f35b3480156103af57600080fd5b506103e4600480360381019080803573ffffffffffffffffffffffffffffffffffffffff1690602001909291905050506110e5565b604051808215151515815260200191505060405180910390f35b34801561040a57600080fd5b5061042960048036038101908080359060200190929190505050611105565b6040518082815260200191505060405180910390f35b34801561044b57600080fd5b5061047460048036038101908080359060200190929190803590602001909291905050506112e9565b6040518084815260200180602001838152602001828103825284818151815260200191508051906020019080838360005b838110156104c05780820151818401526020810190506104a5565b50505050905090810190601f1680156104ed5780820380516001836020036101000a031916815260200191505b5094505050505060405180910390f35b34801561050957600080fd5b506105126114fd565b6040518082815260200191505060405180910390f35b34801561053457600080fd5b50610569600480360381019080803573ffffffffffffffffffffffffffffffffffffffff169060200190929190505050611521565b005b34801561057757600080fd5b506105b660048036038101908080359060200190929190803573ffffffffffffffffffffffffffffffffffffffff169060200190929190505050611698565b604051808215151515815260200191505060405180910390f35b3480156105dc57600080fd5b506105fb60048036038101908080359060200190929190505050611780565b005b34801561060957600080fd5b5061064860048036038101908080359060200190929190803573ffffffffffffffffffffffffffffffffffffffff1690602001909291905050506119d9565b005b34801561065657600080fd5b5061067560048036038101908080359060200190929190505050611cbc565b604051808681526020018060200185151515158152602001848152602001838152602001828103825286818151815260200191508051906020019080838360005b838110156106d15780820151818401526020810190506106b6565b50505050905090810190601f1680156106fe5780820380516001836020036101000a031916815260200191505b50965050505050505060405180910390f35b34801561071c57600080fd5b50610725611e76565b6040518082815260200191505060405180910390f35b34801561074757600080fd5b5061077260048036038101908080359060200190929190803515159060200190929190505050611e80565b005b34801561078057600080fd5b506107a96004803603810190808035906020019092919080359060200190929190505050611fc3565b005b3480156107b757600080fd5b506107e0600480360381019080803590602001909291908035906020019092919050505061218b565b005b600160003373ffffffffffffffffffffffffffffffffffffffff1673ffffffffffffffffffffffffffffffffffffffff16815260200190815260200160002060009054906101000a900460ff16151561083a57600080fd5b6108438361245e565b15156108b7576040517f08c379a00000000000000000000000000000000000000000000000000000000081526004018080602001828103825260138152602001807f456c65636369c3b36e206e6f2076616c6964610000000000000000000000000081525060200191505060405180910390fd5b60026000848152602001908152602001600020600401600081548092919060010191905055506040805190810160405280828152602001600015158152506002600085815260200190815260200160002060060160008473ffffffffffffffffffffffffffffffffffffffff1673ffffffffffffffffffffffffffffffffffffffff16815260200190815260200160002060008201518160000190805190602001906109649291906126f3565b5060208201518160010160006101000a81548160ff02191690831515021790555090505060016002600085815260200190815260200160002060070160008473ffffffffffffffffffffffffffffffffffffffff1673ffffffffffffffffffffffffffffffffffffffff16815260200190815260200160002060006101000a81548160ff0219169083151502179055506109fe8383612489565b505050565b6000610a0e8361245e565b1515610a82576040517f08c379a00000000000000000000000000000000000000000000000000000000081526004018080602001828103825260138152602001807f456c65636369c3b36e206e6f2076616c6964610000000000000000000000000081525060200191505060405180910390fd5b610a8c8383611698565b1515610b00576040517f08c379a00000000000000000000000000000000000000000000000000000000081526004018080602001828103825260118152602001807f566f74616e7465206e6f2076616c69646f00000000000000000000000000000081525060200191505060405180910390fd5b6002600084815260200190815260200160002060060160008373ffffffffffffffffffffffffffffffffffffffff1673ffffffffffffffffffffffffffffffffffffffff16815260200190815260200160002060010160009054906101000a900460ff16905092915050565b600160003373ffffffffffffffffffffffffffffffffffffffff1673ffffffffffffffffffffffffffffffffffffffff16815260200190815260200160002060009054906101000a900460ff161515610bc457600080fd5b610bcd8261245e565b1515610c41576040517f08c379a00000000000000000000000000000000000000000000000000000000081526004018080602001828103825260138152602001807f456c65636369c3b36e206e6f2076616c6964610000000000000000000000000081525060200191505060405180910390fd5b600260008381526020019081526020016000206003016000815480929190600101919050555060606040519081016040528060026000858152602001908152602001600020600301548152602001828152602001600081525060026000848152602001908152602001600020600501600060026000868152602001908152602001600020600301548152602001908152602001600020600082015181600001556020820151816001019080519060200190610cfd9291906126f3565b50604082015181600201559050505050565b6000610d1a8261245e565b1515610d8e576040517f08c379a00000000000000000000000000000000000000000000000000000000081526004018080602001828103825260138152602001807f456c65636369c3b36e206e6f2076616c6964610000000000000000000000000081525060200191505060405180910390fd5b60026000838152602001908152602001600020600401549050919050565b3373ffffffffffffffffffffffffffffffffffffffff166000809054906101000a900473ffffffffffffffffffffffffffffffffffffffff1673ffffffffffffffffffffffffffffffffffffffff16141515610e0757600080fd5b600160008273ffffffffffffffffffffffffffffffffffffffff1673ffffffffffffffffffffffffffffffffffffffff16815260200190815260200160002060009054906101000a900460ff161515610ec8576040517f08c379a00000000000000000000000000000000000000000000000000000000081526004018080602001828103825260148152602001807f4e6f2065732061646d696e6973747261646f722e00000000000000000000000081525060200191505060405180910390fd5b6000600160008373ffffffffffffffffffffffffffffffffffffffff1673ffffffffffffffffffffffffffffffffffffffff16815260200190815260200160002060006101000a81548160ff02191690831515021790555050565b600160003373ffffffffffffffffffffffffffffffffffffffff1673ffffffffffffffffffffffffffffffffffffffff16815260200190815260200160002060009054906101000a900460ff161515610f7b57600080fd5b670de0b6b3a764000034141515610f9157600080fd5b60036000815480929190600101919050555060a060405190810160405280600354815260200182815260200160001515815260200160008152602001600081525060026000600354815260200190815260200160002060008201518160000155602082015181600101908051906020019061100d9291906126f3565b5060408201518160020160006101000a81548160ff021916908315150217905550606082015181600301556080820151816004015590505050565b60006110538261245e565b15156110c7576040517f08c379a00000000000000000000000000000000000000000000000000000000081526004018080602001828103825260138152602001807f456c65636369c3b36e206e6f2076616c6964610000000000000000000000000081525060200191505060405180910390fd5b60026000838152602001908152602001600020600301549050919050565b60016020528060005260406000206000915054906101000a900460ff1681565b6000806000806111148561245e565b1515611188576040517f08c379a00000000000000000000000000000000000000000000000000000000081526004018080602001828103825260138152602001807f456c65636369c3b36e206e6f2076616c6964610000000000000000000000000081525060200191505060405180910390fd5b6002600086815260200190815260200160002060050160006001815260200190815260200160002060000154925060026000868152602001908152602001600020600501600060018152602001908152602001600020600201549150600290505b6002600086815260200190815260200160002060030154811115156112de5781600260008781526020019081526020016000206005016000838152602001908152602001600020600201541115611299576002600086815260200190815260200160002060050160008281526020019081526020016000206000015492506002600086815260200190815260200160002060050160008281526020019081526020016000206002015491506112d1565b816002600087815260200190815260200160002060050160008381526020019081526020016000206002015414156112d057600092505b5b80806001019150506111e9565b829350505050919050565b6000606060006112f7612773565b6113008661245e565b1515611374576040517f08c379a00000000000000000000000000000000000000000000000000000000081526004018080602001828103825260138152602001807f456c65636369c3b36e206e6f2076616c6964610000000000000000000000000081525060200191505060405180910390fd5b61137e8686612635565b15156113f2576040517f08c379a00000000000000000000000000000000000000000000000000000000081526004018080602001828103825260138152602001807f43616e64696461746f206e6f2076616c69646f0000000000000000000000000081525060200191505060405180910390fd5b6002600087815260200190815260200160002060050160008681526020019081526020016000206060604051908101604052908160008201548152602001600182018054600181600116156101000203166002900480601f0160208091040260200160405190810160405280929190818152602001828054600181600116156101000203166002900480156114c85780601f1061149d576101008083540402835291602001916114c8565b820191906000526020600020905b8154815290600101906020018083116114ab57829003601f168201915b505050505081526020016002820154815250509050806000015181602001518260400151819150935093509350509250925092565b6000803090508073ffffffffffffffffffffffffffffffffffffffff163191505090565b3373ffffffffffffffffffffffffffffffffffffffff166000809054906101000a900473ffffffffffffffffffffffffffffffffffffffff1673ffffffffffffffffffffffffffffffffffffffff1614151561157c57600080fd5b600160008273ffffffffffffffffffffffffffffffffffffffff1673ffffffffffffffffffffffffffffffffffffffff16815260200190815260200160002060009054906101000a900460ff1615151561163e576040517f08c379a00000000000000000000000000000000000000000000000000000000081526004018080602001828103825260148152602001807f59612065732061646d696e6973747261646f722e00000000000000000000000081525060200191505060405180910390fd5b60018060008373ffffffffffffffffffffffffffffffffffffffff1673ffffffffffffffffffffffffffffffffffffffff16815260200190815260200160002060006101000a81548160ff02191690831515021790555050565b60006116a38361245e565b1515611717576040517f08c379a00000000000000000000000000000000000000000000000000000000081526004018080602001828103825260138152602001807f456c65636369c3b36e206e6f2076616c6964610000000000000000000000000081525060200191505060405180910390fd5b6002600084815260200190815260200160002060070160008373ffffffffffffffffffffffffffffffffffffffff1673ffffffffffffffffffffffffffffffffffffffff16815260200190815260200160002060009054906101000a900460ff16905092915050565b600160003373ffffffffffffffffffffffffffffffffffffffff1673ffffffffffffffffffffffffffffffffffffffff16815260200190815260200160002060009054906101000a900460ff1615156117d857600080fd5b6117e18161245e565b1515611855576040517f08c379a00000000000000000000000000000000000000000000000000000000081526004018080602001828103825260138152602001807f456c65636369c3b36e206e6f2076616c6964610000000000000000000000000081525060200191505060405180910390fd5b600060026000838152602001908152602001600020600401541415156118e3576040517f08c379a000000000000000000000000000000000000000000000000000000000815260040180806020018281038252600c8152602001807f48617920766f74616e746573000000000000000000000000000000000000000081525060200191505060405180910390fd5b60006002600083815260200190815260200160002060030154141515611971576040517f08c379a000000000000000000000000000000000000000000000000000000000815260040180806020018281038252600e8152602001807f4861792063616e64696461746f7300000000000000000000000000000000000081525060200191505060405180910390fd5b60036000815480929190600190039190505550600260008281526020019081526020016000206000808201600090556001820160006119b09190612795565b6002820160006101000a81549060ff021916905560038201600090556004820160009055505050565b600160003373ffffffffffffffffffffffffffffffffffffffff1673ffffffffffffffffffffffffffffffffffffffff16815260200190815260200160002060009054906101000a900460ff161515611a3157600080fd5b611a3a8261245e565b1515611aae576040517f08c379a00000000000000000000000000000000000000000000000000000000081526004018080602001828103825260138152602001807f456c65636369c3b36e206e6f2076616c6964610000000000000000000000000081525060200191505060405180910390fd5b611ab88282611698565b1515611b2c576040517f08c379a00000000000000000000000000000000000000000000000000000000081526004018080602001828103825260158152602001807f456c207573756172696f206e6f2065786973746521000000000000000000000081525060200191505060405180910390fd5b611b368282610a03565b151515611bab576040517f08c379a000000000000000000000000000000000000000000000000000000000815260040180806020018281038252600f8152602001807f566f74616e746520796120766f746f000000000000000000000000000000000081525060200191505060405180910390fd5b60026000838152602001908152602001600020600401600081548092919060019003919050555060006002600084815260200190815260200160002060070160008373ffffffffffffffffffffffffffffffffffffffff1673ffffffffffffffffffffffffffffffffffffffff16815260200190815260200160002060006101000a81548160ff0219169083151502179055506002600083815260200190815260200160002060060160008273ffffffffffffffffffffffffffffffffffffffff1673ffffffffffffffffffffffffffffffffffffffff16815260200190815260200160002060008082016000611ca29190612795565b6001820160006101000a81549060ff021916905550505050565b600060606000806000611ccd6127dd565b611cd68761245e565b1515611d4a576040517f08c379a00000000000000000000000000000000000000000000000000000000081526004018080602001828103825260138152602001807f456c65636369c3b36e206e6f2076616c6964610000000000000000000000000081525060200191505060405180910390fd5b6002600088815260200190815260200160002060a0604051908101604052908160008201548152602001600182018054600181600116156101000203166002900480601f016020809104026020016040519081016040528092919081815260200182805460018160011615610100020316600290048015611e0c5780601f10611de157610100808354040283529160200191611e0c565b820191906000526020600020905b815481529060010190602001808311611def57829003601f168201915b505050505081526020016002820160009054906101000a900460ff1615151515815260200160038201548152602001600482015481525050905080600001518160200151826040015183606001518460800151839350955095509550955095505091939590929450565b6000600354905090565b600160003373ffffffffffffffffffffffffffffffffffffffff1673ffffffffffffffffffffffffffffffffffffffff16815260200190815260200160002060009054906101000a900460ff161515611ed857600080fd5b611ee18261245e565b1515611f55576040517f08c379a00000000000000000000000000000000000000000000000000000000081526004018080602001828103825260138152602001807f456c65636369c3b36e206e6f2076616c6964610000000000000000000000000081525060200191505060405180910390fd5b806002600084815260200190815260200160002060020160006101000a81548160ff021916908315150217905550817f7e57b0cb87ad213c4cd8cdf178c77c37169e86ae539ad1b435d2afa8a480081482604051808215151515815260200191505060405180910390a25050565b600160003373ffffffffffffffffffffffffffffffffffffffff1673ffffffffffffffffffffffffffffffffffffffff16815260200190815260200160002060009054906101000a900460ff16151561201b57600080fd5b6120248261245e565b1515612098576040517f08c379a00000000000000000000000000000000000000000000000000000000081526004018080602001828103825260138152602001807f456c65636369c3b36e206e6f2076616c6964610000000000000000000000000081525060200191505060405180910390fd5b6120a28282612635565b1515612116576040517f08c379a00000000000000000000000000000000000000000000000000000000081526004018080602001828103825260138152602001807f43616e64696461746f206e6f2076616c69646f0000000000000000000000000081525060200191505060405180910390fd5b60026000838152602001908152602001600020600301600081548092919060019003919050555060026000838152602001908152602001600020600501600082815260200190815260200160002060008082016000905560018201600061217d9190612795565b600282016000905550505050565b6121948261245e565b1515612208576040517f08c379a00000000000000000000000000000000000000000000000000000000081526004018080602001828103825260138152602001807f456c65636369c3b36e206e6f2076616c6964610000000000000000000000000081525060200191505060405180910390fd5b6122128233611698565b1515612286576040517f08c379a00000000000000000000000000000000000000000000000000000000081526004018080602001828103825260118152602001807f566f74616e7465206e6f2076616c69646f00000000000000000000000000000081525060200191505060405180910390fd5b6122908233610a03565b151515612305576040517f08c379a000000000000000000000000000000000000000000000000000000000815260040180806020018281038252600f8152602001807f566f74616e746520796120766f746f000000000000000000000000000000000081525060200191505060405180910390fd5b61230f8282612635565b1515612383576040517f08c379a00000000000000000000000000000000000000000000000000000000081526004018080602001828103825260138152602001807f43616e64696461746f206e6f2076616c69646f0000000000000000000000000081525060200191505060405180910390fd5b60016002600084815260200190815260200160002060060160003373ffffffffffffffffffffffffffffffffffffffff1673ffffffffffffffffffffffffffffffffffffffff16815260200190815260200160002060010160006101000a81548160ff0219169083151502179055506002600083815260200190815260200160002060050160008281526020019081526020016000206002016000815480929190600101919050555080827fac631cf963e26ff421b915fc32e8d8c6b1898317dfa37a2f94e77adf3f6b8b0d60405160405180910390a35050565b6000808211801561247157506003548211155b1561247f5760019050612484565b600090505b919050565b6000600160003373ffffffffffffffffffffffffffffffffffffffff1673ffffffffffffffffffffffffffffffffffffffff16815260200190815260200160002060009054906101000a900460ff1615156124e357600080fd5b6124ed8383611698565b1515612561576040517f08c379a00000000000000000000000000000000000000000000000000000000081526004018080602001828103825260118152602001807f566f74616e7465206e6f2076616c69646f00000000000000000000000000000081525060200191505060405180910390fd5b66470de4df8200009050806125746114fd565b1115156125e9576040517f08c379a00000000000000000000000000000000000000000000000000000000081526004018080602001828103825260198152602001807f4e6f206861792065746865727320737566696369656e7465730000000000000081525060200191505060405180910390fd5b8173ffffffffffffffffffffffffffffffffffffffff166108fc829081150290604051600060405180830381858888f1935050505015801561262f573d6000803e3d6000fd5b50505050565b60006126408361245e565b15156126b4576040517f08c379a00000000000000000000000000000000000000000000000000000000081526004018080602001828103825260138152602001807f456c65636369c3b36e206e6f2076616c6964610000000000000000000000000081525060200191505060405180910390fd5b6000821180156126da575060026000848152602001908152602001600020600301548211155b156126e857600190506126ed565b600090505b92915050565b828054600181600116156101000203166002900490600052602060002090601f016020900481019282601f1061273457805160ff1916838001178555612762565b82800160010185558215612762579182015b82811115612761578251825591602001919060010190612746565b5b50905061276f919061280f565b5090565b6060604051908101604052806000815260200160608152602001600081525090565b50805460018160011615610100020316600290046000825580601f106127bb57506127da565b601f0160209004906000526020600020908101906127d9919061280f565b5b50565b60a060405190810160405280600081526020016060815260200160001515815260200160008152602001600081525090565b61283191905b8082111561282d576000816000905550600101612815565b5090565b905600a165627a7a723058209b54e358d824ad5586892f47e7dc7ab621960a9572cf1334321af3eab5ba28470029",
  "source": "pragma solidity ^0.4.24;\r\n\r\ncontract BEV {\r\n    address private owner; // Propietario del contrato\r\n    mapping(address => bool) public admins; // Lista de administradores\r\n\r\n    // Estructura de candidato\r\n    struct Candidate {\r\n        uint id;\r\n        string name;\r\n        uint voteCount;\r\n    }\r\n\r\n    // Estructura de votante\r\n    struct Voter {\r\n        string name;\r\n        bool voted;\r\n    }\r\n\r\n    // Estructura de eleccin\r\n    struct Election {\r\n        uint id;\r\n        string name;\r\n        bool active; // Estado de la eleccin => activa = true\r\n        uint candidatesCount;// Almacenar el recuento de los candidatos\r\n        uint votersCount; // Almacenar el recuento de los votantes\r\n\r\n        mapping(uint => Candidate) candidates; // Lectura/escritura de candidatos\r\n        mapping(address => Voter) voters; // Lectura/escritura de los votantes\r\n        mapping(address => bool) joinedVoters; // Almacenar cuentas que pueden votar\r\n    }\r\n\r\n    mapping(uint => Election) private elections; // Lista de elecciones\r\n    uint private electionsCount; // Almacenar el recuento de las elecciones\r\n\r\n    event ElectionEvent (\r\n        uint indexed _idElection,\r\n        bool _active\r\n    );\r\n\r\n    event VotedEvent (\r\n        uint indexed _idElection,\r\n        uint indexed _idCandidate\r\n    );\r\n\r\n    // Validar si es propietario\r\n    modifier isOwner(){\r\n        require(owner == msg.sender);\r\n        _;\r\n    }\r\n\r\n    // Validar si es administrador\r\n    modifier isAdmin(){\r\n        require(admins[msg.sender]);\r\n        _;\r\n    }\r\n\r\n    constructor () public {\r\n        owner = msg.sender; // Quien publica el contrato es el dueo\r\n        admins[msg.sender] = true; // Es administrador tambien\r\n    }\r\n\r\n    // Agregar un administrador\r\n    function addAdmin(address _addr) public isOwner {\r\n        require(!admins[_addr], \"Ya es administrador.\");\r\n        admins[_addr] = true;\r\n    }\r\n\r\n    // Quitar un administrador\r\n    function deleteAdmin(address _addr) public isOwner {\r\n        require(admins[_addr], \"No es administrador.\");\r\n        admins[_addr] = false;\r\n    }\r\n\r\n    // Agregar una eleccin\r\n    function addElection(string _name) public isAdmin payable {\r\n        require(msg.value == 1 ether);\r\n        electionsCount++;\r\n        elections[electionsCount] = Election(electionsCount, _name, false, 0, 0);\r\n        //elections.push(Election(_name, false, 0, 0));\r\n    }\r\n\r\n    // Obtener detalles de una eleccin\r\n    function getElection(uint _idElection) public view returns(uint, string, bool, uint, uint) {\r\n        require(electionIsValid(_idElection), \"Eleccin no valida\");\r\n        Election memory election = elections[_idElection];\r\n        return (election.id, election.name, election.active, election.candidatesCount, election.votersCount);\r\n    }\r\n\r\n    // Activar una eleccin\r\n    function activeElection(uint _idElection, bool _active) public isAdmin {\r\n        require(electionIsValid(_idElection), \"Eleccin no valida\");\r\n        elections[_idElection].active = _active;\r\n\r\n        emit ElectionEvent(_idElection, _active);\r\n    }\r\n\r\n   // Eliminar una eleccin\r\n    function deleteElection(uint _idElection) public isAdmin {\r\n        require(electionIsValid(_idElection), \"Eleccin no valida\");\r\n        require(elections[_idElection].votersCount == 0,\"Hay votantes\");\r\n        require(elections[_idElection].candidatesCount == 0, \"Hay candidatos\");\r\n\r\n        electionsCount--;\r\n        delete elections[_idElection];\r\n    }\r\n\r\n    // Devuelve la cantidad de elecciones que hay en el contrato\r\n    function getTotalElections() public view returns(uint) {\r\n        return electionsCount;\r\n    }\r\n\r\n    // Comprobar si la eleccion es valida\r\n    function electionIsValid(uint _idElection) private view returns(bool) {\r\n        if(_idElection > 0 && _idElection <= electionsCount)\r\n            return true;\r\n\r\n        return false;\r\n    }\r\n\r\n    // Agregar un candidato\r\n    function addCandidate (uint _idElection, string _name) public isAdmin {\r\n        require(electionIsValid(_idElection), \"Eleccin no valida\");\r\n        elections[_idElection].candidatesCount++;\r\n        elections[_idElection].candidates[elections[_idElection].candidatesCount] = Candidate(elections[_idElection].candidatesCount, _name, 0);\r\n    }\r\n\r\n    // Obtener un candidato\r\n    function getCandidate(uint _idElection, uint _idCandidate) public view returns(uint, string, uint) {\r\n        require(electionIsValid(_idElection), \"Eleccin no valida\");\r\n        require(candidateIsValid(_idElection, _idCandidate), \"Candidato no valido\");\r\n        Candidate memory candidate = elections[_idElection].candidates[_idCandidate];\r\n        return (candidate.id, candidate.name, candidate.voteCount);\r\n    }\r\n\r\n   // Eliminar un candidato\r\n    function deleteCandidate(uint _idElection, uint _idCandidate) public isAdmin {\r\n        require(electionIsValid(_idElection), \"Eleccin no valida\");\r\n        require(candidateIsValid(_idElection, _idCandidate), \"Candidato no valido\");\r\n        elections[_idElection].candidatesCount--;\r\n        delete elections[_idElection].candidates[_idCandidate];\r\n    }\r\n\r\n    // Obtener la cantidad de candidatos de una eleccin\r\n    function getCandidatesCount (uint _idElection) public view returns(uint){\r\n        require(electionIsValid(_idElection), \"Eleccin no valida\");\r\n        return elections[_idElection].candidatesCount;\r\n    }\r\n\r\n    // Comprobar si el candidato es valido\r\n    function candidateIsValid(uint _idElection, uint _idCandidate) private view returns(bool) {\r\n        require(electionIsValid(_idElection), \"Eleccin no valida\");\r\n        if(_idCandidate > 0 && _idCandidate <= elections[_idElection].candidatesCount)\r\n            return true;\r\n\r\n        return false;\r\n    }\r\n\r\n    // Agregar un votante\r\n    function addVoter (uint _idElection, address _addr, string _name) public isAdmin {\r\n        require(electionIsValid(_idElection), \"Eleccin no valida\");\r\n        elections[_idElection].votersCount++;\r\n        elections[_idElection].voters[_addr] = Voter(_name, false);\r\n        elections[_idElection].joinedVoters[_addr] = true;\r\n        getEthersForVoting(_idElection, _addr);\r\n    }\r\n\r\n    // Comprobar si el votante esta en el padrn\r\n    function voterIsJoined(uint _idElection, address _addr) public view returns(bool) {\r\n        require(electionIsValid(_idElection), \"Eleccin no valida\");\r\n        return elections[_idElection].joinedVoters[_addr];\r\n    }\r\n\r\n   // Eliminar votante\r\n    function deleteVoter(uint _idElection, address _addr) public isAdmin {\r\n        require(electionIsValid(_idElection), \"Eleccin no valida\");\r\n        require(voterIsJoined(_idElection, _addr),\"El usuario no existe!\");\r\n        require(!voterHasVoted(_idElection, _addr), \"Votante ya voto\");\r\n\r\n        elections[_idElection].votersCount--;\r\n        elections[_idElection].joinedVoters[_addr] = false;\r\n        delete elections[_idElection].voters[_addr];\r\n    }\r\n\r\n    // Obtener la cantidad de votantes de la eleccin\r\n    function getVotersCount (uint _idElection) public view returns(uint){\r\n        require(electionIsValid(_idElection), \"Eleccin no valida\");\r\n        return elections[_idElection].votersCount;\r\n    }\r\n\r\n    // Votar: Reemplazar voter por msg.sender!\r\n    function voting (uint _idElection, uint _idCandidate) public {\r\n        require(electionIsValid(_idElection), \"Eleccin no valida\"); // Requerir una eleccin vlida\r\n        // Exigir que sea un votante valido y que no haya votado antes\r\n        require(voterIsJoined(_idElection, msg.sender), \"Votante no valido\");\r\n        require(!voterHasVoted(_idElection, msg.sender), \"Votante ya voto\");\r\n        require(candidateIsValid(_idElection, _idCandidate), \"Candidato no valido\"); // Requerir un candidato vlido\r\n\r\n        elections[_idElection].voters[msg.sender].voted = true; // Registro de que el votante ha votado\r\n        elections[_idElection].candidates[_idCandidate].voteCount++; // Registro de que el votante ha votado\r\n        emit VotedEvent(_idElection, _idCandidate); // Evento desencadenante del voto\r\n    }\r\n\r\n    // Comprobar si el votante ya voto\r\n    function voterHasVoted(uint _idElection, address _addr) public view returns(bool) {\r\n        require(electionIsValid(_idElection), \"Eleccin no valida\");\r\n        require(voterIsJoined(_idElection, _addr), \"Votante no valido\");\r\n        return elections[_idElection].voters[_addr].voted;\r\n    }\r\n\r\n    // Resultado de la votacin\r\n    function getResultElection(uint _idElection) public view returns(uint) {\r\n        require(electionIsValid(_idElection), \"Eleccin no valida\");\r\n        uint idGanadorActual = elections[_idElection].candidates[1].id;\r\n        uint votosGanadorActual = elections[_idElection].candidates[1].voteCount;\r\n        for(uint i = 2; i <= elections[_idElection].candidatesCount; i++) {\r\n            if(elections[_idElection].candidates[i].voteCount > votosGanadorActual) {\r\n                idGanadorActual = elections[_idElection].candidates[i].id;\r\n                votosGanadorActual = elections[_idElection].candidates[i].voteCount;\r\n            }\r\n            else {\r\n                if(elections[_idElection].candidates[i].voteCount == votosGanadorActual)\r\n                    idGanadorActual = 0;\r\n            }\r\n        }\r\n        return idGanadorActual;\r\n    }\r\n\r\n    // Transferir etheres para poder votar\r\n    function getEthersForVoting(uint _idElection, address _addr) isAdmin private {\r\n        require(voterIsJoined(_idElection, _addr), \"Votante no valido\");\r\n        uint monto = 20000000000000000;\r\n        require(getContractBalance() > monto, \"No hay ethers suficientes\");\r\n        _addr.transfer(monto);\r\n    }\r\n\r\n    // Obtener el balance del SmartContract\r\n    function getContractBalance() public view returns (uint) {\r\n        address BEVAddress = this;\r\n        return BEVAddress.balance;\r\n    }\r\n\r\n}",
  "sourcePath": "/Users/martinober/Documents/blockchain-electronic-voting/contracts/BEV.sol",
  "compiler": {
    "name": "solc",
    "version": "0.4.25+commit.59dbf8f1.Emscripten.clang"
  },
  "schemaVersion": "2.0.2",
  "updatedAt": "2020-01-11T05:27:52.962Z"
}