{
  "contractName": "BEV",
  "abi": [
    {
      "constant": true,
      "inputs": [
        {
          "name": "",
          "type": "address"
        }
      ],
      "name": "admins",
      "outputs": [
        {
          "name": "",
          "type": "bool"
        }
      ],
      "payable": false,
      "stateMutability": "view",
      "type": "function"
    },
    {
      "constant": true,
      "inputs": [
        {
          "name": "",
          "type": "uint256"
        }
      ],
      "name": "elections",
      "outputs": [
        {
          "name": "id",
          "type": "uint256"
        },
        {
          "name": "name",
          "type": "string"
        },
        {
          "name": "active",
          "type": "bool"
        },
        {
          "name": "candidatesCount",
          "type": "uint256"
        },
        {
          "name": "votersCount",
          "type": "uint256"
        }
      ],
      "payable": false,
      "stateMutability": "view",
      "type": "function"
    },
    {
      "constant": true,
      "inputs": [],
      "name": "electionsCount",
      "outputs": [
        {
          "name": "",
          "type": "uint256"
        }
      ],
      "payable": false,
      "stateMutability": "view",
      "type": "function"
    },
    {
      "inputs": [],
      "payable": false,
      "stateMutability": "nonpayable",
      "type": "constructor"
    },
    {
      "anonymous": false,
      "inputs": [
        {
          "indexed": true,
          "name": "_idElection",
          "type": "uint256"
        },
        {
          "indexed": true,
          "name": "_candidateId",
          "type": "uint256"
        }
      ],
      "name": "votedEvent",
      "type": "event"
    },
    {
      "anonymous": false,
      "inputs": [
        {
          "indexed": true,
          "name": "_idElection",
          "type": "uint256"
        },
        {
          "indexed": false,
          "name": "_active",
          "type": "bool"
        }
      ],
      "name": "electionEvent",
      "type": "event"
    },
    {
      "constant": false,
      "inputs": [
        {
          "name": "_addr",
          "type": "address"
        }
      ],
      "name": "addAdmin",
      "outputs": [],
      "payable": false,
      "stateMutability": "nonpayable",
      "type": "function"
    },
    {
      "constant": false,
      "inputs": [
        {
          "name": "_addr",
          "type": "address"
        }
      ],
      "name": "deleteAdmin",
      "outputs": [],
      "payable": false,
      "stateMutability": "nonpayable",
      "type": "function"
    },
    {
      "constant": false,
      "inputs": [
        {
          "name": "_name",
          "type": "string"
        }
      ],
      "name": "addElection",
      "outputs": [],
      "payable": false,
      "stateMutability": "nonpayable",
      "type": "function"
    },
    {
      "constant": false,
      "inputs": [
        {
          "name": "_idElection",
          "type": "uint256"
        },
        {
          "name": "_active",
          "type": "bool"
        }
      ],
      "name": "activeElection",
      "outputs": [],
      "payable": false,
      "stateMutability": "nonpayable",
      "type": "function"
    },
    {
      "constant": true,
      "inputs": [
        {
          "name": "_idElection",
          "type": "uint256"
        }
      ],
      "name": "getElection",
      "outputs": [
        {
          "name": "",
          "type": "uint256"
        },
        {
          "name": "",
          "type": "string"
        },
        {
          "name": "",
          "type": "bool"
        },
        {
          "name": "",
          "type": "uint256"
        },
        {
          "name": "",
          "type": "uint256"
        }
      ],
      "payable": false,
      "stateMutability": "view",
      "type": "function"
    },
    {
      "constant": false,
      "inputs": [
        {
          "name": "_idElection",
          "type": "uint256"
        }
      ],
      "name": "deleteElection",
      "outputs": [],
      "payable": false,
      "stateMutability": "nonpayable",
      "type": "function"
    },
    {
      "constant": false,
      "inputs": [
        {
          "name": "_idElection",
          "type": "uint256"
        },
        {
          "name": "_name",
          "type": "string"
        }
      ],
      "name": "addCandidate",
      "outputs": [],
      "payable": false,
      "stateMutability": "nonpayable",
      "type": "function"
    },
    {
      "constant": false,
      "inputs": [
        {
          "name": "_idElection",
          "type": "uint256"
        },
        {
          "name": "_candidateId",
          "type": "uint256"
        }
      ],
      "name": "deleteCandidate",
      "outputs": [],
      "payable": false,
      "stateMutability": "nonpayable",
      "type": "function"
    },
    {
      "constant": false,
      "inputs": [
        {
          "name": "_idElection",
          "type": "uint256"
        },
        {
          "name": "_addr",
          "type": "address"
        },
        {
          "name": "_name",
          "type": "string"
        }
      ],
      "name": "addVoter",
      "outputs": [],
      "payable": false,
      "stateMutability": "nonpayable",
      "type": "function"
    },
    {
      "constant": false,
      "inputs": [
        {
          "name": "_idElection",
          "type": "uint256"
        },
        {
          "name": "_addr",
          "type": "address"
        }
      ],
      "name": "deleteVoter",
      "outputs": [],
      "payable": false,
      "stateMutability": "nonpayable",
      "type": "function"
    },
    {
      "constant": true,
      "inputs": [
        {
          "name": "_idElection",
          "type": "uint256"
        },
        {
          "name": "_candidateId",
          "type": "uint256"
        }
      ],
      "name": "getCandidate",
      "outputs": [
        {
          "name": "",
          "type": "string"
        },
        {
          "name": "",
          "type": "uint256"
        }
      ],
      "payable": false,
      "stateMutability": "view",
      "type": "function"
    },
    {
      "constant": true,
      "inputs": [
        {
          "name": "_idElection",
          "type": "uint256"
        }
      ],
      "name": "electionIsValid",
      "outputs": [
        {
          "name": "",
          "type": "bool"
        }
      ],
      "payable": false,
      "stateMutability": "view",
      "type": "function"
    },
    {
      "constant": true,
      "inputs": [
        {
          "name": "_idElection",
          "type": "uint256"
        },
        {
          "name": "_candidateId",
          "type": "uint256"
        }
      ],
      "name": "candidateIsValid",
      "outputs": [
        {
          "name": "",
          "type": "bool"
        }
      ],
      "payable": false,
      "stateMutability": "view",
      "type": "function"
    },
    {
      "constant": true,
      "inputs": [
        {
          "name": "_idElection",
          "type": "uint256"
        },
        {
          "name": "_addr",
          "type": "address"
        }
      ],
      "name": "voterIsJoined",
      "outputs": [
        {
          "name": "",
          "type": "bool"
        }
      ],
      "payable": false,
      "stateMutability": "view",
      "type": "function"
    },
    {
      "constant": true,
      "inputs": [
        {
          "name": "_idElection",
          "type": "uint256"
        },
        {
          "name": "_addr",
          "type": "address"
        }
      ],
      "name": "voterHasVoted",
      "outputs": [
        {
          "name": "",
          "type": "bool"
        }
      ],
      "payable": false,
      "stateMutability": "view",
      "type": "function"
    },
    {
      "constant": true,
      "inputs": [
        {
          "name": "_idElection",
          "type": "uint256"
        }
      ],
      "name": "totalCandidates",
      "outputs": [
        {
          "name": "",
          "type": "uint256"
        }
      ],
      "payable": false,
      "stateMutability": "view",
      "type": "function"
    },
    {
      "constant": true,
      "inputs": [
        {
          "name": "_idElection",
          "type": "uint256"
        }
      ],
      "name": "totalVoters",
      "outputs": [
        {
          "name": "",
          "type": "uint256"
        }
      ],
      "payable": false,
      "stateMutability": "view",
      "type": "function"
    },
    {
      "constant": false,
      "inputs": [
        {
          "name": "_idElection",
          "type": "uint256"
        },
        {
          "name": "_candidateId",
          "type": "uint256"
        }
      ],
      "name": "vote",
      "outputs": [],
      "payable": false,
      "stateMutability": "nonpayable",
      "type": "function"
    }
  ],
  "bytecode": "0x608060405234801561001057600080fd5b50336000806101000a81548173ffffffffffffffffffffffffffffffffffffffff021916908373ffffffffffffffffffffffffffffffffffffffff16021790555060018060003373ffffffffffffffffffffffffffffffffffffffff1673ffffffffffffffffffffffffffffffffffffffff16815260200190815260200160002060006101000a81548160ff021916908315150217905550612464806100b76000396000f30060806040526004361061011d576000357c0100000000000000000000000000000000000000000000000000000000900463ffffffff16806308e2fd4d146101225780630b713f29146101b55780631750a3d01461021a57806327e1f7df1461028d578063358b9d97146102d05780633fb0030614610339578063429b62e514610388578063498d91bf146103e35780634bd46448146104245780635e6fef01146104db57806370480275146105a1578063709be96a146105e4578063740c47d4146106495780637569f2b514610676578063920eec27146106c35780639a74c695146107045780639d7107771461072f578063b384abef146107f5578063bdd032951461082c578063cf4a606014610865578063f73f98e31461089c575b600080fd5b34801561012e57600080fd5b506101b360048036038101908080359060200190929190803573ffffffffffffffffffffffffffffffffffffffff169060200190929190803590602001908201803590602001908080601f01602080910402602001604051908101604052809392919081815260200183838082843782019150505050505091929192905050506108e1565b005b3480156101c157600080fd5b5061020060048036038101908080359060200190929190803573ffffffffffffffffffffffffffffffffffffffff169060200190929190505050610af8565b604051808215151515815260200191505060405180910390f35b34801561022657600080fd5b5061028b60048036038101908080359060200190929190803590602001908201803590602001908080601f0160208091040260200160405190810160405280939291908181526020018383808284378201915050505050509192919290505050610be3565b005b34801561029957600080fd5b506102ce600480360381019080803573ffffffffffffffffffffffffffffffffffffffff169060200190929190505050610d86565b005b3480156102dc57600080fd5b50610337600480360381019080803590602001908201803590602001908080601f0160208091040260200160405190810160405280939291908181526020018383808284378201915050505050509192919290505050610efd565b005b34801561034557600080fd5b5061036e600480360381019080803590602001909291908035906020019092919050505061100c565b604051808215151515815260200191505060405180910390f35b34801561039457600080fd5b506103c9600480360381019080803573ffffffffffffffffffffffffffffffffffffffff1690602001909291905050506110ca565b604051808215151515815260200191505060405180910390f35b3480156103ef57600080fd5b5061040e600480360381019080803590602001909291905050506110ea565b6040518082815260200191505060405180910390f35b34801561043057600080fd5b50610459600480360381019080803590602001909291908035906020019092919050505061110a565b6040518080602001838152602001828103825284818151815260200191508051906020019080838360005b8381101561049f578082015181840152602081019050610484565b50505050905090810190601f1680156104cc5780820380516001836020036101000a031916815260200191505b50935050505060405180910390f35b3480156104e757600080fd5b5061050660048036038101908080359060200190929190505050611315565b604051808681526020018060200185151515158152602001848152602001838152602001828103825286818151815260200191508051906020019080838360005b83811015610562578082015181840152602081019050610547565b50505050905090810190601f16801561058f5780820380516001836020036101000a031916815260200191505b50965050505050505060405180910390f35b3480156105ad57600080fd5b506105e2600480360381019080803573ffffffffffffffffffffffffffffffffffffffff1690602001909291905050506113f0565b005b3480156105f057600080fd5b5061062f60048036038101908080359060200190929190803573ffffffffffffffffffffffffffffffffffffffff169060200190929190505050611567565b604051808215151515815260200191505060405180910390f35b34801561065557600080fd5b506106746004803603810190808035906020019092919050505061164f565b005b34801561068257600080fd5b506106c160048036038101908080359060200190929190803573ffffffffffffffffffffffffffffffffffffffff1690602001909291905050506118a8565b005b3480156106cf57600080fd5b506106ee60048036038101908080359060200190929190505050611b8b565b6040518082815260200191505060405180910390f35b34801561071057600080fd5b50610719611bab565b6040518082815260200191505060405180910390f35b34801561073b57600080fd5b5061075a60048036038101908080359060200190929190505050611bb1565b604051808681526020018060200185151515158152602001848152602001838152602001828103825286818151815260200191508051906020019080838360005b838110156107b657808201518184015260208101905061079b565b50505050905090810190601f1680156107e35780820380516001836020036101000a031916815260200191505b50965050505050505060405180910390f35b34801561080157600080fd5b5061082a6004803603810190808035906020019092919080359060200190929190505050611cee565b005b34801561083857600080fd5b5061086360048036038101908080359060200190929190803515159060200190929190505050611fc1565b005b34801561087157600080fd5b5061089a6004803603810190808035906020019092919080359060200190929190505050612104565b005b3480156108a857600080fd5b506108c7600480360381019080803590602001909291905050506122cc565b604051808215151515815260200191505060405180910390f35b600160003373ffffffffffffffffffffffffffffffffffffffff1673ffffffffffffffffffffffffffffffffffffffff16815260200190815260200160002060009054906101000a900460ff16151561093957600080fd5b610942836122cc565b15156109b6576040517f08c379a00000000000000000000000000000000000000000000000000000000081526004018080602001828103825260138152602001807f456c65636369c3b36e206e6f2076616c6964610000000000000000000000000081525060200191505060405180910390fd5b60026000848152602001908152602001600020600401600081548092919060010191905055506040805190810160405280828152602001600015158152506002600085815260200190815260200160002060060160008473ffffffffffffffffffffffffffffffffffffffff1673ffffffffffffffffffffffffffffffffffffffff1681526020019081526020016000206000820151816000019080519060200190610a639291906122f7565b5060208201518160010160006101000a81548160ff02191690831515021790555090505060016002600085815260200190815260200160002060070160008473ffffffffffffffffffffffffffffffffffffffff1673ffffffffffffffffffffffffffffffffffffffff16815260200190815260200160002060006101000a81548160ff021916908315150217905550505050565b6000610b03836122cc565b1515610b77576040517f08c379a00000000000000000000000000000000000000000000000000000000081526004018080602001828103825260138152602001807f456c65636369c3b36e206e6f2076616c6964610000000000000000000000000081525060200191505060405180910390fd5b6002600084815260200190815260200160002060060160008373ffffffffffffffffffffffffffffffffffffffff1673ffffffffffffffffffffffffffffffffffffffff16815260200190815260200160002060010160009054906101000a900460ff16905092915050565b600160003373ffffffffffffffffffffffffffffffffffffffff1673ffffffffffffffffffffffffffffffffffffffff16815260200190815260200160002060009054906101000a900460ff161515610c3b57600080fd5b610c44826122cc565b1515610cb8576040517f08c379a00000000000000000000000000000000000000000000000000000000081526004018080602001828103825260138152602001807f456c65636369c3b36e206e6f2076616c6964610000000000000000000000000081525060200191505060405180910390fd5b600260008381526020019081526020016000206003016000815480929190600101919050555060606040519081016040528060026000858152602001908152602001600020600301548152602001828152602001600081525060026000848152602001908152602001600020600501600060026000868152602001908152602001600020600301548152602001908152602001600020600082015181600001556020820151816001019080519060200190610d749291906122f7565b50604082015181600201559050505050565b3373ffffffffffffffffffffffffffffffffffffffff166000809054906101000a900473ffffffffffffffffffffffffffffffffffffffff1673ffffffffffffffffffffffffffffffffffffffff16141515610de157600080fd5b600160008273ffffffffffffffffffffffffffffffffffffffff1673ffffffffffffffffffffffffffffffffffffffff16815260200190815260200160002060009054906101000a900460ff161515610ea2576040517f08c379a00000000000000000000000000000000000000000000000000000000081526004018080602001828103825260148152602001807f4e6f2065732061646d696e6973747261646f722e00000000000000000000000081525060200191505060405180910390fd5b6000600160008373ffffffffffffffffffffffffffffffffffffffff1673ffffffffffffffffffffffffffffffffffffffff16815260200190815260200160002060006101000a81548160ff02191690831515021790555050565b600160003373ffffffffffffffffffffffffffffffffffffffff1673ffffffffffffffffffffffffffffffffffffffff16815260200190815260200160002060009054906101000a900460ff161515610f5557600080fd5b60036000815480929190600101919050555060a0604051908101604052806003548152602001828152602001600015158152602001600081526020016000815250600260006003548152602001908152602001600020600082015181600001556020820151816001019080519060200190610fd19291906122f7565b5060408201518160020160006101000a81548160ff021916908315150217905550606082015181600301556080820151816004015590505050565b6000611017836122cc565b151561108b576040517f08c379a00000000000000000000000000000000000000000000000000000000081526004018080602001828103825260138152602001807f456c65636369c3b36e206e6f2076616c6964610000000000000000000000000081525060200191505060405180910390fd5b6000821180156110b1575060026000848152602001908152602001600020600301548211155b156110bf57600190506110c4565b600090505b92915050565b60016020528060005260406000206000915054906101000a900460ff1681565b600060026000838152602001908152602001600020600401549050919050565b60606000611116612377565b61111f856122cc565b1515611193576040517f08c379a00000000000000000000000000000000000000000000000000000000081526004018080602001828103825260138152602001807f456c65636369c3b36e206e6f2076616c6964610000000000000000000000000081525060200191505060405180910390fd5b61119d858561100c565b1515611211576040517f08c379a00000000000000000000000000000000000000000000000000000000081526004018080602001828103825260138152602001807f43616e64696461746f206e6f2076616c69646f0000000000000000000000000081525060200191505060405180910390fd5b6002600086815260200190815260200160002060050160008581526020019081526020016000206060604051908101604052908160008201548152602001600182018054600181600116156101000203166002900480601f0160208091040260200160405190810160405280929190818152602001828054600181600116156101000203166002900480156112e75780601f106112bc576101008083540402835291602001916112e7565b820191906000526020600020905b8154815290600101906020018083116112ca57829003601f168201915b5050505050815260200160028201548152505090508060200151816040015181915092509250509250929050565b6002602052806000526040600020600091509050806000015490806001018054600181600116156101000203166002900480601f0160208091040260200160405190810160405280929190818152602001828054600181600116156101000203166002900480156113c75780601f1061139c576101008083540402835291602001916113c7565b820191906000526020600020905b8154815290600101906020018083116113aa57829003601f168201915b5050505050908060020160009054906101000a900460ff16908060030154908060040154905085565b3373ffffffffffffffffffffffffffffffffffffffff166000809054906101000a900473ffffffffffffffffffffffffffffffffffffffff1673ffffffffffffffffffffffffffffffffffffffff1614151561144b57600080fd5b600160008273ffffffffffffffffffffffffffffffffffffffff1673ffffffffffffffffffffffffffffffffffffffff16815260200190815260200160002060009054906101000a900460ff1615151561150d576040517f08c379a00000000000000000000000000000000000000000000000000000000081526004018080602001828103825260148152602001807f59612065732061646d696e6973747261646f722e00000000000000000000000081525060200191505060405180910390fd5b60018060008373ffffffffffffffffffffffffffffffffffffffff1673ffffffffffffffffffffffffffffffffffffffff16815260200190815260200160002060006101000a81548160ff02191690831515021790555050565b6000611572836122cc565b15156115e6576040517f08c379a00000000000000000000000000000000000000000000000000000000081526004018080602001828103825260138152602001807f456c65636369c3b36e206e6f2076616c6964610000000000000000000000000081525060200191505060405180910390fd5b6002600084815260200190815260200160002060070160008373ffffffffffffffffffffffffffffffffffffffff1673ffffffffffffffffffffffffffffffffffffffff16815260200190815260200160002060009054906101000a900460ff16905092915050565b600160003373ffffffffffffffffffffffffffffffffffffffff1673ffffffffffffffffffffffffffffffffffffffff16815260200190815260200160002060009054906101000a900460ff1615156116a757600080fd5b6116b0816122cc565b1515611724576040517f08c379a00000000000000000000000000000000000000000000000000000000081526004018080602001828103825260138152602001807f456c65636369c3b36e206e6f2076616c6964610000000000000000000000000081525060200191505060405180910390fd5b600060026000838152602001908152602001600020600401541415156117b2576040517f08c379a000000000000000000000000000000000000000000000000000000000815260040180806020018281038252600c8152602001807f48617920766f74616e746573000000000000000000000000000000000000000081525060200191505060405180910390fd5b60006002600083815260200190815260200160002060030154141515611840576040517f08c379a000000000000000000000000000000000000000000000000000000000815260040180806020018281038252600e8152602001807f4861792063616e64696461746f7300000000000000000000000000000000000081525060200191505060405180910390fd5b600360008154809291906001900391905055506002600082815260200190815260200160002060008082016000905560018201600061187f9190612399565b6002820160006101000a81549060ff021916905560038201600090556004820160009055505050565b600160003373ffffffffffffffffffffffffffffffffffffffff1673ffffffffffffffffffffffffffffffffffffffff16815260200190815260200160002060009054906101000a900460ff16151561190057600080fd5b611909826122cc565b151561197d576040517f08c379a00000000000000000000000000000000000000000000000000000000081526004018080602001828103825260138152602001807f456c65636369c3b36e206e6f2076616c6964610000000000000000000000000081525060200191505060405180910390fd5b6119878282611567565b15156119fb576040517f08c379a00000000000000000000000000000000000000000000000000000000081526004018080602001828103825260158152602001807f456c207573756172696f206e6f2065786973746521000000000000000000000081525060200191505060405180910390fd5b611a058282610af8565b151515611a7a576040517f08c379a000000000000000000000000000000000000000000000000000000000815260040180806020018281038252600f8152602001807f566f74616e746520796120766f746f000000000000000000000000000000000081525060200191505060405180910390fd5b60026000838152602001908152602001600020600401600081548092919060019003919050555060006002600084815260200190815260200160002060070160008373ffffffffffffffffffffffffffffffffffffffff1673ffffffffffffffffffffffffffffffffffffffff16815260200190815260200160002060006101000a81548160ff0219169083151502179055506002600083815260200190815260200160002060060160008273ffffffffffffffffffffffffffffffffffffffff1673ffffffffffffffffffffffffffffffffffffffff16815260200190815260200160002060008082016000611b719190612399565b6001820160006101000a81549060ff021916905550505050565b600060026000838152602001908152602001600020600301549050919050565b60035481565b600060606000806000611bc26123e1565b6002600088815260200190815260200160002060a0604051908101604052908160008201548152602001600182018054600181600116156101000203166002900480601f016020809104026020016040519081016040528092919081815260200182805460018160011615610100020316600290048015611c845780601f10611c5957610100808354040283529160200191611c84565b820191906000526020600020905b815481529060010190602001808311611c6757829003601f168201915b505050505081526020016002820160009054906101000a900460ff1615151515815260200160038201548152602001600482015481525050905080600001518160200151826040015183606001518460800151839350955095509550955095505091939590929450565b611cf7826122cc565b1515611d6b576040517f08c379a00000000000000000000000000000000000000000000000000000000081526004018080602001828103825260138152602001807f456c65636369c3b36e206e6f2076616c6964610000000000000000000000000081525060200191505060405180910390fd5b611d758233611567565b1515611de9576040517f08c379a00000000000000000000000000000000000000000000000000000000081526004018080602001828103825260118152602001807f566f74616e7465206e6f2076616c69646f00000000000000000000000000000081525060200191505060405180910390fd5b611df38233610af8565b151515611e68576040517f08c379a000000000000000000000000000000000000000000000000000000000815260040180806020018281038252600f8152602001807f566f74616e746520796120766f746f000000000000000000000000000000000081525060200191505060405180910390fd5b611e72828261100c565b1515611ee6576040517f08c379a00000000000000000000000000000000000000000000000000000000081526004018080602001828103825260138152602001807f43616e64696461746f206e6f2076616c69646f0000000000000000000000000081525060200191505060405180910390fd5b60016002600084815260200190815260200160002060060160003373ffffffffffffffffffffffffffffffffffffffff1673ffffffffffffffffffffffffffffffffffffffff16815260200190815260200160002060010160006101000a81548160ff0219169083151502179055506002600083815260200190815260200160002060050160008281526020019081526020016000206002016000815480929190600101919050555080827fb7e338857470376b2fa57b9b2cbf51a8724d543a80bf4fb392a2aa9dad1118a260405160405180910390a35050565b600160003373ffffffffffffffffffffffffffffffffffffffff1673ffffffffffffffffffffffffffffffffffffffff16815260200190815260200160002060009054906101000a900460ff16151561201957600080fd5b612022826122cc565b1515612096576040517f08c379a00000000000000000000000000000000000000000000000000000000081526004018080602001828103825260138152602001807f456c65636369c3b36e206e6f2076616c6964610000000000000000000000000081525060200191505060405180910390fd5b806002600084815260200190815260200160002060020160006101000a81548160ff021916908315150217905550817fb2bcf1e46c38d661ee6228501271c808bffb2b3fac15a35ce88e4fe3dcf38d3382604051808215151515815260200191505060405180910390a25050565b600160003373ffffffffffffffffffffffffffffffffffffffff1673ffffffffffffffffffffffffffffffffffffffff16815260200190815260200160002060009054906101000a900460ff16151561215c57600080fd5b612165826122cc565b15156121d9576040517f08c379a00000000000000000000000000000000000000000000000000000000081526004018080602001828103825260138152602001807f456c65636369c3b36e206e6f2076616c6964610000000000000000000000000081525060200191505060405180910390fd5b6121e3828261100c565b1515612257576040517f08c379a00000000000000000000000000000000000000000000000000000000081526004018080602001828103825260138152602001807f43616e64696461746f206e6f2076616c69646f0000000000000000000000000081525060200191505060405180910390fd5b6002600083815260200190815260200160002060030160008154809291906001900391905055506002600083815260200190815260200160002060050160008281526020019081526020016000206000808201600090556001820160006122be9190612399565b600282016000905550505050565b600080821180156122df57506003548211155b156122ed57600190506122f2565b600090505b919050565b828054600181600116156101000203166002900490600052602060002090601f016020900481019282601f1061233857805160ff1916838001178555612366565b82800160010185558215612366579182015b8281111561236557825182559160200191906001019061234a565b5b5090506123739190612413565b5090565b6060604051908101604052806000815260200160608152602001600081525090565b50805460018160011615610100020316600290046000825580601f106123bf57506123de565b601f0160209004906000526020600020908101906123dd9190612413565b5b50565b60a060405190810160405280600081526020016060815260200160001515815260200160008152602001600081525090565b61243591905b80821115612431576000816000905550600101612419565b5090565b905600a165627a7a7230582072ad823801bd6bdc6593b1f243ef32467df88a8c3636834b6664516f41f97c3b0029",
  "source": "pragma solidity ^0.4.24;\r\n\r\ncontract BEV {\r\n    address private owner; // Propietario del contrato\r\n    mapping(address => bool) public admins; // Lista de administradores\r\n\r\n    // Estructura de candidato\r\n    struct Candidate {\r\n        uint id;\r\n        string name;\r\n        uint voteCount;\r\n    }\r\n\r\n    // Estructura de votante\r\n    struct Voter {\r\n        string name;\r\n        bool voted;\r\n    }\r\n\r\n    // Estructura de eleccin\r\n    struct Election {\r\n        uint id;\r\n        string name;\r\n        bool active; // Estado de la eleccin => activa = true\r\n        uint candidatesCount;// Almacenar el recuento de los candidatos\r\n        uint votersCount; // Almacenar el recuento de los votantes\r\n\r\n        mapping(uint => Candidate) candidates; // Lectura/escritura de candidatos\r\n        mapping(address => Voter) voters; // Lectura/escritura de los votantes\r\n        mapping(address => bool) joinedVoters; // Almacenar cuentas que pueden votar\r\n    }\r\n\r\n    mapping(uint => Election) public elections; // Lista de elecciones\r\n    uint public electionsCount; // Almacenar el recuento de las elecciones\r\n    \r\n    event votedEvent (\r\n        uint indexed _idElection,\r\n        uint indexed _candidateId\r\n    );\r\n\r\n    event electionEvent (\r\n        uint indexed _idElection,\r\n        bool _active\r\n    );\r\n\r\n    // Validar si es propietario\r\n    modifier isOwner(){\r\n        require(owner == msg.sender);\r\n        _;\r\n    }\r\n\r\n    // Validar si es administrador\r\n    modifier isAdmin(){\r\n        require(admins[msg.sender]);\r\n        _;\r\n    }\r\n\r\n    constructor () public {\r\n        owner = msg.sender; // Quien publica el contrato es el dueo\r\n        admins[msg.sender] = true; // Es administrador tambien\r\n    }\r\n\r\n    // Agregar un administrador\r\n    function addAdmin(address _addr) public isOwner {\r\n        require(!admins[_addr], \"Ya es administrador.\");\r\n        admins[_addr] = true;\r\n    }\r\n\r\n    // Quitar un administrador\r\n    function deleteAdmin(address _addr) public isOwner {\r\n        require(admins[_addr], \"No es administrador.\");\r\n        admins[_addr] = false;\r\n    }\r\n\r\n    // Agregar una eleccin\r\n    function addElection(string _name) public isAdmin {\r\n        electionsCount++;\r\n        elections[electionsCount] = Election(electionsCount, _name, false, 0, 0);\r\n        //elections.push(Election(_name, false, 0, 0));\r\n    }\r\n\r\n    // Activar una eleccin\r\n    function activeElection(uint _idElection, bool _active) public isAdmin {\r\n        require(electionIsValid(_idElection), \"Eleccin no valida\");\r\n        elections[_idElection].active = _active;\r\n\r\n        emit electionEvent(_idElection, _active);\r\n    }\r\n\r\n    function getElection(uint _idElection) public view returns(uint, string, bool, uint, uint) {\r\n        Election memory election = elections[_idElection];\r\n        return (election.id, election.name, election.active, election.candidatesCount, election.votersCount);\r\n    }\r\n\r\n   // Eliminar una eleccin\r\n    function deleteElection(uint _idElection) public isAdmin {\r\n        require(electionIsValid(_idElection), \"Eleccin no valida\");\r\n        require(elections[_idElection].votersCount == 0,\"Hay votantes\");\r\n        require(elections[_idElection].candidatesCount == 0, \"Hay candidatos\");\r\n\r\n        electionsCount--;\r\n        delete elections[_idElection];\r\n    }\r\n\r\n    // Agregar un candidato\r\n    function addCandidate (uint _idElection, string _name) public isAdmin {\r\n        require(electionIsValid(_idElection), \"Eleccin no valida\");\r\n        elections[_idElection].candidatesCount++;\r\n        elections[_idElection].candidates[elections[_idElection].candidatesCount] = Candidate(elections[_idElection].candidatesCount, _name, 0);\r\n    }\r\n\r\n   // Eliminar un candidato\r\n    function deleteCandidate(uint _idElection, uint _candidateId) public isAdmin {\r\n        require(electionIsValid(_idElection), \"Eleccin no valida\");\r\n        require(candidateIsValid(_idElection, _candidateId), \"Candidato no valido\");\r\n        \r\n        elections[_idElection].candidatesCount--;\r\n        delete elections[_idElection].candidates[_candidateId];\r\n    }\r\n\r\n    // Agregar un votante\r\n    function addVoter (uint _idElection, address _addr, string _name) public isAdmin {\r\n        require(electionIsValid(_idElection), \"Eleccin no valida\");\r\n        elections[_idElection].votersCount++;\r\n        elections[_idElection].voters[_addr] = Voter(_name, false);\r\n        elections[_idElection].joinedVoters[_addr] = true;\r\n    }\r\n\r\n   // Eliminar votante\r\n    function deleteVoter(uint _idElection, address _addr) public isAdmin {\r\n        require(electionIsValid(_idElection), \"Eleccin no valida\");\r\n        require(voterIsJoined(_idElection, _addr),\"El usuario no existe!\");\r\n        require(!voterHasVoted(_idElection, _addr), \"Votante ya voto\");\r\n        \r\n        elections[_idElection].votersCount--;\r\n        elections[_idElection].joinedVoters[_addr] = false;\r\n        delete elections[_idElection].voters[_addr];\r\n    }\r\n\r\n    // Obtener un candidato\r\n    function getCandidate(uint _idElection, uint _candidateId) public view returns(string, uint) {\r\n        //require(_candidateId > 0 && _candidateId <= elections[_idElection].candidatesCount);\r\n        require(electionIsValid(_idElection), \"Eleccin no valida\");\r\n        require(candidateIsValid(_idElection, _candidateId), \"Candidato no valido\");\r\n        Candidate memory candidate = elections[_idElection].candidates[_candidateId];\r\n        return (candidate.name, candidate.voteCount);\r\n    }\r\n\r\n    // Comprobar si la eleccion es valida\r\n    function electionIsValid(uint _idElection) public view returns(bool) {\r\n        if(_idElection > 0 && _idElection <= electionsCount)\r\n            return true;\r\n        \r\n        return false;\r\n    }\r\n    \r\n    // Comprobar si el candidato es valido\r\n    function candidateIsValid(uint _idElection, uint _candidateId) public view returns(bool) {\r\n        require(electionIsValid(_idElection), \"Eleccin no valida\");\r\n        if(_candidateId > 0 && _candidateId <= elections[_idElection].candidatesCount)\r\n            return true;\r\n        \r\n        return false;\r\n    }\r\n    \r\n    // Comprobar si el votante esta en el padrn\r\n    function voterIsJoined(uint _idElection, address _addr) public view returns(bool) {\r\n        require(electionIsValid(_idElection), \"Eleccin no valida\");\r\n        return elections[_idElection].joinedVoters[_addr];\r\n    }\r\n    \r\n    // Comprobar si el votante ya voto\r\n    function voterHasVoted(uint _idElection, address _addr) public view returns(bool) {\r\n        require(electionIsValid(_idElection), \"Eleccin no valida\");\r\n        return elections[_idElection].voters[_addr].voted;\r\n    }\r\n\r\n    // Cantidad de candidatos de una eleccin\r\n    function totalCandidates(uint _idElection) public view returns(uint) {\r\n        return elections[_idElection].candidatesCount;\r\n    }\r\n    \r\n    // Cantidad de votantes de una eleccin\r\n    function totalVoters(uint _idElection) public view returns(uint) {\r\n        return elections[_idElection].votersCount;\r\n    }\r\n\r\n    // Votar\r\n    function vote (uint _idElection, uint _candidateId) public {\r\n        // Requerir una eleccin vlida\r\n        require(electionIsValid(_idElection), \"Eleccin no valida\");\r\n        \r\n        // Exigir que sea un votante valido y que no haya votado antes\r\n        //require(elections[_idElection].joinedVoters[msg.sender] && !elections[_idElection].voters[msg.sender].voted);\r\n        require(voterIsJoined(_idElection, msg.sender), \"Votante no valido\");\r\n        require(!voterHasVoted(_idElection, msg.sender), \"Votante ya voto\");\r\n\r\n        // Requerir un candidato vlido\r\n        //require(_candidateId > 0 && _candidateId <= elections[_idElection].candidatesCount);\r\n        require(candidateIsValid(_idElection, _candidateId), \"Candidato no valido\");\r\n\r\n        // Registro de que el votante ha votado\r\n        elections[_idElection].voters[msg.sender].voted = true;\r\n\r\n        // Actualizar el recuento de votos de los candidatos\r\n        elections[_idElection].candidates[_candidateId].voteCount ++;\r\n\r\n        // Evento desencadenante del voto\r\n        emit votedEvent(_idElection, _candidateId);\r\n    }\r\n}",
  "sourcePath": "/Users/martinober/Documents/blockchain-electronic-voting/contracts/BEV.sol",
  "compiler": {
    "name": "solc",
    "version": "0.4.25+commit.59dbf8f1.Emscripten.clang"
  },
  "schemaVersion": "2.0.2",
  "updatedAt": "2019-12-18T22:40:55.073Z"
}