{
  "contractName": "BEV",
  "abi": [
    {
      "constant": true,
      "inputs": [
        {
          "name": "",
          "type": "address"
        }
      ],
      "name": "admins",
      "outputs": [
        {
          "name": "",
          "type": "bool"
        }
      ],
      "payable": false,
      "stateMutability": "view",
      "type": "function"
    },
    {
      "inputs": [],
      "payable": false,
      "stateMutability": "nonpayable",
      "type": "constructor"
    },
    {
      "anonymous": false,
      "inputs": [
        {
          "indexed": true,
          "name": "_account",
          "type": "address"
        },
        {
          "indexed": false,
          "name": "_idElection",
          "type": "uint256"
        }
      ],
      "name": "VotedEvent",
      "type": "event"
    },
    {
      "constant": false,
      "inputs": [
        {
          "name": "_addr",
          "type": "address"
        }
      ],
      "name": "addAdmin",
      "outputs": [],
      "payable": false,
      "stateMutability": "nonpayable",
      "type": "function"
    },
    {
      "constant": false,
      "inputs": [
        {
          "name": "_addr",
          "type": "address"
        }
      ],
      "name": "deleteAdmin",
      "outputs": [],
      "payable": false,
      "stateMutability": "nonpayable",
      "type": "function"
    },
    {
      "constant": false,
      "inputs": [
        {
          "name": "_name",
          "type": "string"
        },
        {
          "name": "_description",
          "type": "string"
        }
      ],
      "name": "addElection",
      "outputs": [],
      "payable": true,
      "stateMutability": "payable",
      "type": "function"
    },
    {
      "constant": true,
      "inputs": [
        {
          "name": "_idElection",
          "type": "uint256"
        }
      ],
      "name": "getElection",
      "outputs": [
        {
          "name": "",
          "type": "uint256"
        },
        {
          "name": "",
          "type": "string"
        },
        {
          "name": "",
          "type": "string"
        },
        {
          "name": "",
          "type": "uint256"
        },
        {
          "name": "",
          "type": "uint256"
        },
        {
          "name": "",
          "type": "uint256"
        }
      ],
      "payable": false,
      "stateMutability": "view",
      "type": "function"
    },
    {
      "constant": false,
      "inputs": [
        {
          "name": "_idElection",
          "type": "uint256"
        }
      ],
      "name": "activeElection",
      "outputs": [],
      "payable": false,
      "stateMutability": "nonpayable",
      "type": "function"
    },
    {
      "constant": false,
      "inputs": [
        {
          "name": "_idElection",
          "type": "uint256"
        }
      ],
      "name": "deleteElection",
      "outputs": [],
      "payable": false,
      "stateMutability": "nonpayable",
      "type": "function"
    },
    {
      "constant": true,
      "inputs": [],
      "name": "getTotalElections",
      "outputs": [
        {
          "name": "",
          "type": "uint256"
        }
      ],
      "payable": false,
      "stateMutability": "view",
      "type": "function"
    },
    {
      "constant": true,
      "inputs": [],
      "name": "getElectionsIndex",
      "outputs": [
        {
          "name": "",
          "type": "uint256"
        }
      ],
      "payable": false,
      "stateMutability": "view",
      "type": "function"
    },
    {
      "constant": false,
      "inputs": [
        {
          "name": "_idElection",
          "type": "uint256"
        },
        {
          "name": "_name",
          "type": "string"
        },
        {
          "name": "_description",
          "type": "string"
        }
      ],
      "name": "addCandidate",
      "outputs": [],
      "payable": false,
      "stateMutability": "nonpayable",
      "type": "function"
    },
    {
      "constant": true,
      "inputs": [
        {
          "name": "_idElection",
          "type": "uint256"
        },
        {
          "name": "_idCandidate",
          "type": "uint256"
        }
      ],
      "name": "getCandidate",
      "outputs": [
        {
          "name": "",
          "type": "uint256"
        },
        {
          "name": "",
          "type": "uint256"
        },
        {
          "name": "",
          "type": "string"
        },
        {
          "name": "",
          "type": "string"
        },
        {
          "name": "",
          "type": "uint256"
        }
      ],
      "payable": false,
      "stateMutability": "view",
      "type": "function"
    },
    {
      "constant": false,
      "inputs": [
        {
          "name": "_idElection",
          "type": "uint256"
        },
        {
          "name": "_idCandidate",
          "type": "uint256"
        }
      ],
      "name": "deleteCandidate",
      "outputs": [],
      "payable": false,
      "stateMutability": "nonpayable",
      "type": "function"
    },
    {
      "constant": true,
      "inputs": [
        {
          "name": "_idElection",
          "type": "uint256"
        }
      ],
      "name": "getCandidatesCount",
      "outputs": [
        {
          "name": "",
          "type": "uint256"
        }
      ],
      "payable": false,
      "stateMutability": "view",
      "type": "function"
    },
    {
      "constant": true,
      "inputs": [
        {
          "name": "_idElection",
          "type": "uint256"
        }
      ],
      "name": "getCandidatesIndex",
      "outputs": [
        {
          "name": "",
          "type": "uint256"
        }
      ],
      "payable": false,
      "stateMutability": "view",
      "type": "function"
    },
    {
      "constant": false,
      "inputs": [
        {
          "name": "_idElection",
          "type": "uint256"
        },
        {
          "name": "_addr",
          "type": "address"
        },
        {
          "name": "_name",
          "type": "string"
        },
        {
          "name": "_description",
          "type": "string"
        },
        {
          "name": "_amount",
          "type": "uint256"
        }
      ],
      "name": "addVoter",
      "outputs": [],
      "payable": false,
      "stateMutability": "nonpayable",
      "type": "function"
    },
    {
      "constant": true,
      "inputs": [
        {
          "name": "_idElection",
          "type": "uint256"
        },
        {
          "name": "_addr",
          "type": "address"
        }
      ],
      "name": "voterIsJoined",
      "outputs": [
        {
          "name": "",
          "type": "bool"
        }
      ],
      "payable": false,
      "stateMutability": "view",
      "type": "function"
    },
    {
      "constant": true,
      "inputs": [
        {
          "name": "_idElection",
          "type": "uint256"
        },
        {
          "name": "_index",
          "type": "uint256"
        }
      ],
      "name": "getAddressVoter",
      "outputs": [
        {
          "name": "",
          "type": "address"
        }
      ],
      "payable": false,
      "stateMutability": "view",
      "type": "function"
    },
    {
      "constant": true,
      "inputs": [
        {
          "name": "_idElection",
          "type": "uint256"
        },
        {
          "name": "_addr",
          "type": "address"
        }
      ],
      "name": "getVoter",
      "outputs": [
        {
          "name": "",
          "type": "uint256"
        },
        {
          "name": "",
          "type": "address"
        },
        {
          "name": "",
          "type": "string"
        },
        {
          "name": "",
          "type": "string"
        },
        {
          "name": "",
          "type": "bool"
        }
      ],
      "payable": false,
      "stateMutability": "view",
      "type": "function"
    },
    {
      "constant": false,
      "inputs": [
        {
          "name": "_idElection",
          "type": "uint256"
        },
        {
          "name": "_addr",
          "type": "address"
        }
      ],
      "name": "deleteVoter",
      "outputs": [],
      "payable": false,
      "stateMutability": "nonpayable",
      "type": "function"
    },
    {
      "constant": true,
      "inputs": [
        {
          "name": "_idElection",
          "type": "uint256"
        }
      ],
      "name": "getVotersCount",
      "outputs": [
        {
          "name": "",
          "type": "uint256"
        }
      ],
      "payable": false,
      "stateMutability": "view",
      "type": "function"
    },
    {
      "constant": true,
      "inputs": [
        {
          "name": "_idElection",
          "type": "uint256"
        }
      ],
      "name": "getVotersIndex",
      "outputs": [
        {
          "name": "",
          "type": "uint256"
        }
      ],
      "payable": false,
      "stateMutability": "view",
      "type": "function"
    },
    {
      "constant": false,
      "inputs": [
        {
          "name": "_idElection",
          "type": "uint256"
        },
        {
          "name": "_idCandidate",
          "type": "uint256"
        }
      ],
      "name": "voting",
      "outputs": [],
      "payable": false,
      "stateMutability": "nonpayable",
      "type": "function"
    },
    {
      "constant": true,
      "inputs": [
        {
          "name": "_idElection",
          "type": "uint256"
        },
        {
          "name": "_addr",
          "type": "address"
        }
      ],
      "name": "voterHasVoted",
      "outputs": [
        {
          "name": "",
          "type": "bool"
        }
      ],
      "payable": false,
      "stateMutability": "view",
      "type": "function"
    },
    {
      "constant": true,
      "inputs": [
        {
          "name": "_idElection",
          "type": "uint256"
        }
      ],
      "name": "getResultElection",
      "outputs": [
        {
          "name": "",
          "type": "uint256"
        }
      ],
      "payable": false,
      "stateMutability": "view",
      "type": "function"
    },
    {
      "constant": false,
      "inputs": [
        {
          "name": "_addr",
          "type": "address"
        },
        {
          "name": "_amount",
          "type": "uint256"
        }
      ],
      "name": "transferFromContract",
      "outputs": [],
      "payable": false,
      "stateMutability": "nonpayable",
      "type": "function"
    },
    {
      "constant": false,
      "inputs": [],
      "name": "transferToContract",
      "outputs": [],
      "payable": true,
      "stateMutability": "payable",
      "type": "function"
    },
    {
      "constant": true,
      "inputs": [],
      "name": "getContractBalance",
      "outputs": [
        {
          "name": "",
          "type": "uint256"
        }
      ],
      "payable": false,
      "stateMutability": "view",
      "type": "function"
    }
  ],
  "bytecode": "0x608060405234801561001057600080fd5b50336000806101000a81548173ffffffffffffffffffffffffffffffffffffffff021916908373ffffffffffffffffffffffffffffffffffffffff16021790555060018060003373ffffffffffffffffffffffffffffffffffffffff1673ffffffffffffffffffffffffffffffffffffffff16815260200190815260200160002060006101000a81548160ff02191690831515021790555060006003819055506000600481905550614066806100c76000396000f30060806040526004361061015f576000357c0100000000000000000000000000000000000000000000000000000000900463ffffffff1680630b713f291461016457806312cccb34146101c95780631a88f306146101d35780631de66c931461022057806327e1f7df146102615780633ee95f00146102a4578063429b62e5146102e5578063452cf3c8146103405780634bd46448146103815780634f958069146104b25780636f9fb98a146104dd5780637048027514610508578063709be96a1461054b578063740c47d4146105b05780637569f2b5146105dd578063826374e61461062a5780638de720cf146106a15780638f47b146146106e257806395b79907146108595780639b7c0820146108fb5780639d7107771461093c578063a9392e0c14610a6a578063cf4a606014610a95578063cfaad27c14610acc578063e6c62efc14610b03578063e989b9db14610bbc578063e9dbf4a614610c9f575b600080fd5b34801561017057600080fd5b506101af60048036038101908080359060200190929190803573ffffffffffffffffffffffffffffffffffffffff169060200190929190505050610ccc565b604051808215151515815260200191505060405180910390f35b6101d1610e5b565b005b3480156101df57600080fd5b5061021e600480360381019080803573ffffffffffffffffffffffffffffffffffffffff16906020019092919080359060200190929190505050610f53565b005b34801561022c57600080fd5b5061024b6004803603810190808035906020019092919050505061109a565b6040518082815260200191505060405180910390f35b34801561026d57600080fd5b506102a2600480360381019080803573ffffffffffffffffffffffffffffffffffffffff16906020019092919050505061115d565b005b3480156102b057600080fd5b506102cf600480360381019080803590602001909291905050506112fa565b6040518082815260200191505060405180910390f35b3480156102f157600080fd5b50610326600480360381019080803573ffffffffffffffffffffffffffffffffffffffff1690602001909291905050506113bd565b604051808215151515815260200191505060405180910390f35b34801561034c57600080fd5b5061036b600480360381019080803590602001909291905050506113dd565b6040518082815260200191505060405180910390f35b34801561038d57600080fd5b506103b6600480360381019080803590602001909291908035906020019092919050505061169a565b604051808681526020018581526020018060200180602001848152602001838103835286818151815260200191508051906020019080838360005b8381101561040c5780820151818401526020810190506103f1565b50505050905090810190601f1680156104395780820380516001836020036101000a031916815260200191505b50838103825285818151815260200191508051906020019080838360005b83811015610472578082015181840152602081019050610457565b50505050905090810190601f16801561049f5780820380516001836020036101000a031916815260200191505b5097505050505050505060405180910390f35b3480156104be57600080fd5b506104c76119ae565b6040518082815260200191505060405180910390f35b3480156104e957600080fd5b506104f26119b8565b6040518082815260200191505060405180910390f35b34801561051457600080fd5b50610549600480360381019080803573ffffffffffffffffffffffffffffffffffffffff1690602001909291905050506119dc565b005b34801561055757600080fd5b5061059660048036038101908080359060200190929190803573ffffffffffffffffffffffffffffffffffffffff169060200190929190505050611b53565b604051808215151515815260200191505060405180910390f35b3480156105bc57600080fd5b506105db60048036038101908080359060200190929190505050611c61565b005b3480156105e957600080fd5b5061062860048036038101908080359060200190929190803573ffffffffffffffffffffffffffffffffffffffff169060200190929190505050611ef4565b005b34801561063657600080fd5b5061065f60048036038101908080359060200190929190803590602001909291905050506123b0565b604051808273ffffffffffffffffffffffffffffffffffffffff1673ffffffffffffffffffffffffffffffffffffffff16815260200191505060405180910390f35b3480156106ad57600080fd5b506106cc600480360381019080803590602001909291905050506124fd565b6040518082815260200191505060405180910390f35b3480156106ee57600080fd5b5061072d60048036038101908080359060200190929190803573ffffffffffffffffffffffffffffffffffffffff1690602001909291905050506125c0565b604051808681526020018573ffffffffffffffffffffffffffffffffffffffff1673ffffffffffffffffffffffffffffffffffffffff168152602001806020018060200184151515158152602001838103835286818151815260200191508051906020019080838360005b838110156107b3578082015181840152602081019050610798565b50505050905090810190601f1680156107e05780820380516001836020036101000a031916815260200191505b50838103825285818151815260200191508051906020019080838360005b838110156108195780820151818401526020810190506107fe565b50505050905090810190601f1680156108465780820380516001836020036101000a031916815260200191505b5097505050505050505060405180910390f35b6108f9600480360381019080803590602001908201803590602001908080601f0160208091040260200160405190810160405280939291908181526020018383808284378201915050505050509192919290803590602001908201803590602001908080601f0160208091040260200160405190810160405280939291908181526020018383808284378201915050505050509192919290505050612891565b005b34801561090757600080fd5b5061092660048036038101908080359060200190929190505050612a7f565b6040518082815260200191505060405180910390f35b34801561094857600080fd5b5061096760048036038101908080359060200190929190505050612b42565b604051808781526020018060200180602001868152602001858152602001848152602001838103835288818151815260200191508051906020019080838360005b838110156109c35780820151818401526020810190506109a8565b50505050905090810190601f1680156109f05780820380516001836020036101000a031916815260200191505b50838103825287818151815260200191508051906020019080838360005b83811015610a29578082015181840152602081019050610a0e565b50505050905090810190601f168015610a565780820380516001836020036101000a031916815260200191505b509850505050505050505060405180910390f35b348015610a7657600080fd5b50610a7f612dad565b6040518082815260200191505060405180910390f35b348015610aa157600080fd5b50610aca6004803603810190808035906020019092919080359060200190929190505050612db7565b005b348015610ad857600080fd5b50610b01600480360381019080803590602001909291908035906020019092919050505061308f565b005b348015610b0f57600080fd5b50610bba60048036038101908080359060200190929190803590602001908201803590602001908080601f0160208091040260200160405190810160405280939291908181526020018383808284378201915050505050509192919290803590602001908201803590602001908080601f0160208091040260200160405190810160405280939291908181526020018383808284378201915050505050509192919290505050613436565b005b348015610bc857600080fd5b50610c9d60048036038101908080359060200190929190803573ffffffffffffffffffffffffffffffffffffffff169060200190929190803590602001908201803590602001908080601f0160208091040260200160405190810160405280939291908181526020018383808284378201915050505050509192919290803590602001908201803590602001908080601f0160208091040260200160405190810160405280939291908181526020018383808284378201915050505050509192919290803590602001909291905050506136fd565b005b348015610cab57600080fd5b50610cca60048036038101908080359060200190929190505050613a9b565b005b6000610cd783613bbf565b1515610d71576040517f08c379a00000000000000000000000000000000000000000000000000000000081526004018080602001828103825260228152602001807f766f746572486173566f7465643a20456c65636369c3b36e206e6f2076616c6981526020017f646100000000000000000000000000000000000000000000000000000000000081525060400191505060405180910390fd5b610d7b8383611b53565b1515610def576040517f08c379a00000000000000000000000000000000000000000000000000000000081526004018080602001828103825260208152602001807f766f746572486173566f7465643a20566f74616e7465206e6f2076616c69646f81525060200191505060405180910390fd5b6002600084815260200190815260200160002060090160008373ffffffffffffffffffffffffffffffffffffffff1673ffffffffffffffffffffffffffffffffffffffff16815260200190815260200160002060020160009054906101000a900460ff16905092915050565b600160003373ffffffffffffffffffffffffffffffffffffffff1673ffffffffffffffffffffffffffffffffffffffff16815260200190815260200160002060009054906101000a900460ff161515610eb357600080fd5b600034111515610f51576040517f08c379a000000000000000000000000000000000000000000000000000000000815260040180806020018281038252602e8152602001807f7472616e73666572546f436f6e74726163743a204e6f2068617920737566696381526020017f69656e746573206574686572732e00000000000000000000000000000000000081525060400191505060405180910390fd5b565b600160003373ffffffffffffffffffffffffffffffffffffffff1673ffffffffffffffffffffffffffffffffffffffff16815260200190815260200160002060009054906101000a900460ff161515610fab57600080fd5b80610fb46119b8565b11151561104f576040517f08c379a000000000000000000000000000000000000000000000000000000000815260040180806020018281038252602f8152602001807f7472616e7366657246726f6d436f6e74726163743a204e6f206861792065746881526020017f65727320737566696369656e746573000000000000000000000000000000000081525060400191505060405180910390fd5b8173ffffffffffffffffffffffffffffffffffffffff166108fc829081150290604051600060405180830381858888f19350505050158015611095573d6000803e3d6000fd5b505050565b60006110a582613bbf565b151561113f576040517f08c379a00000000000000000000000000000000000000000000000000000000081526004018080602001828103825260238152602001807f676574566f74657273436f756e743a20456c65636369c3b36e206e6f2076616c81526020017f696461000000000000000000000000000000000000000000000000000000000081525060400191505060405180910390fd5b60026000838152602001908152602001600020600501549050919050565b3373ffffffffffffffffffffffffffffffffffffffff166000809054906101000a900473ffffffffffffffffffffffffffffffffffffffff1673ffffffffffffffffffffffffffffffffffffffff161415156111b857600080fd5b600160008273ffffffffffffffffffffffffffffffffffffffff1673ffffffffffffffffffffffffffffffffffffffff16815260200190815260200160002060009054906101000a900460ff16151561129f576040517f08c379a00000000000000000000000000000000000000000000000000000000081526004018080602001828103825260218152602001807f64656c65746541646d696e3a204e6f2065732061646d696e6973747261646f7281526020017f2e0000000000000000000000000000000000000000000000000000000000000081525060400191505060405180910390fd5b6000600160008373ffffffffffffffffffffffffffffffffffffffff1673ffffffffffffffffffffffffffffffffffffffff16815260200190815260200160002060006101000a81548160ff02191690831515021790555050565b600061130582613bbf565b151561139f576040517f08c379a00000000000000000000000000000000000000000000000000000000081526004018080602001828103825260268152602001807f67657443616e646964617465436f756e743a20456c65636369c3b36e206e6f2081526020017f76616c696461000000000000000000000000000000000000000000000000000081525060400191505060405180910390fd5b60026000838152602001908152602001600020600401549050919050565b60016020528060005260406000206000915054906101000a900460ff1681565b6000806000806113ec85613bbf565b1515611486576040517f08c379a00000000000000000000000000000000000000000000000000000000081526004018080602001828103825260268152602001807f676574526573756c74456c656374696f6e3a20456c65636369c3b36e206e6f2081526020017f76616c696461000000000000000000000000000000000000000000000000000081525060400191505060405180910390fd5b600280600087815260200190815260200160002060030154141515611539576040517f08c379a000000000000000000000000000000000000000000000000000000000815260040180806020018281038252603b8152602001807f676574526573756c74456c656374696f6e3a2045737461646f206e6f2076616c81526020017f69646f2070617261206d6f737472617220726573756c7461646f73000000000081525060400191505060405180910390fd5b6002600086815260200190815260200160002060080160006001815260200190815260200160002060000154925060026000868152602001908152602001600020600801600060018152602001908152602001600020600301549150600290505b60026000868152602001908152602001600020600601548111151561168f578160026000878152602001908152602001600020600801600083815260200190815260200160002060030154111561164a57600260008681526020019081526020016000206008016000828152602001908152602001600020600001549250600260008681526020019081526020016000206008016000828152602001908152602001600020600301549150611682565b8160026000878152602001908152602001600020600801600083815260200190815260200160002060030154141561168157600092505b5b808060010191505061159a565b829350505050919050565b60008060608060006116aa613eba565b6116b388613bbf565b151561174d576040517f08c379a00000000000000000000000000000000000000000000000000000000081526004018080602001828103825260218152602001807f67657443616e6469646174653a20456c65636369c3b36e206e6f2076616c696481526020017f610000000000000000000000000000000000000000000000000000000000000081525060400191505060405180910390fd5b6117578888613bea565b15156117f1576040517f08c379a00000000000000000000000000000000000000000000000000000000081526004018080602001828103825260218152602001807f67657443616e6469646174653a2043616e64696461746f206e6f2076616c696481526020017f6f0000000000000000000000000000000000000000000000000000000000000081525060400191505060405180910390fd5b6002600089815260200190815260200160002060080160008881526020019081526020016000206080604051908101604052908160008201548152602001600182018054600181600116156101000203166002900480601f0160208091040260200160405190810160405280929190818152602001828054600181600116156101000203166002900480156118c75780601f1061189c576101008083540402835291602001916118c7565b820191906000526020600020905b8154815290600101906020018083116118aa57829003601f168201915b50505050508152602001600282018054600181600116156101000203166002900480601f0160208091040260200160405190810160405280929190818152602001828054600181600116156101000203166002900480156119695780601f1061193e57610100808354040283529160200191611969565b820191906000526020600020905b81548152906001019060200180831161194c57829003601f168201915b50505050508152602001600382015481525050905087816000015182602001518360400151846060015182925081915095509550955095509550509295509295909350565b6000600454905090565b6000803090508073ffffffffffffffffffffffffffffffffffffffff163191505090565b3373ffffffffffffffffffffffffffffffffffffffff166000809054906101000a900473ffffffffffffffffffffffffffffffffffffffff1673ffffffffffffffffffffffffffffffffffffffff16141515611a3757600080fd5b600160008273ffffffffffffffffffffffffffffffffffffffff1673ffffffffffffffffffffffffffffffffffffffff16815260200190815260200160002060009054906101000a900460ff16151515611af9576040517f08c379a000000000000000000000000000000000000000000000000000000000815260040180806020018281038252601e8152602001807f61646441646d696e3a2059612065732061646d696e6973747261646f722e000081525060200191505060405180910390fd5b60018060008373ffffffffffffffffffffffffffffffffffffffff1673ffffffffffffffffffffffffffffffffffffffff16815260200190815260200160002060006101000a81548160ff02191690831515021790555050565b6000611b5e83613bbf565b1515611bf8576040517f08c379a00000000000000000000000000000000000000000000000000000000081526004018080602001828103825260228152602001807f766f74657249734a6f696e65643a20456c65636369c3b36e206e6f2076616c6981526020017f646100000000000000000000000000000000000000000000000000000000000081525060400191505060405180910390fd5b60026000848152602001908152602001600020600a0160008373ffffffffffffffffffffffffffffffffffffffff1673ffffffffffffffffffffffffffffffffffffffff16815260200190815260200160002060009054906101000a900460ff16905092915050565b600160003373ffffffffffffffffffffffffffffffffffffffff1673ffffffffffffffffffffffffffffffffffffffff16815260200190815260200160002060009054906101000a900460ff161515611cb957600080fd5b611cc281613bbf565b1515611d5c576040517f08c379a00000000000000000000000000000000000000000000000000000000081526004018080602001828103825260238152602001807f64656c657465456c656374696f6e3a20456c65636369c3b36e206e6f2076616c81526020017f696461000000000000000000000000000000000000000000000000000000000081525060400191505060405180910390fd5b60006002600083815260200190815260200160002060050154141515611dea576040517f08c379a000000000000000000000000000000000000000000000000000000000815260040180806020018281038252601c8152602001807f64656c657465456c656374696f6e3a2048617920766f74616e7465730000000081525060200191505060405180910390fd5b60006002600083815260200190815260200160002060040154141515611e78576040517f08c379a000000000000000000000000000000000000000000000000000000000815260040180806020018281038252601e8152602001807f64656c657465456c656374696f6e3a204861792063616e64696461746f73000081525060200191505060405180910390fd5b6003600081548092919060019003919050555060026000828152602001908152602001600020600080820160009055600182016000611eb79190613ee3565b600282016000611ec79190613ee3565b60038201600090556004820160009055600582016000905560068201600090556007820160009055505050565b600080600160003373ffffffffffffffffffffffffffffffffffffffff1673ffffffffffffffffffffffffffffffffffffffff16815260200190815260200160002060009054906101000a900460ff161515611f4f57600080fd5b611f5884613bbf565b1515611fcc576040517f08c379a00000000000000000000000000000000000000000000000000000000081526004018080602001828103825260208152602001807f64656c657465566f7465723a20456c65636369c3b36e206e6f2076616c69646181525060200191505060405180910390fd5b611fd68484611b53565b151561204a576040517f08c379a000000000000000000000000000000000000000000000000000000000815260040180806020018281038252601e8152602001807f64656c657465566f7465723a20566f74616e7465206e6f2076616c69646f000081525060200191505060405180910390fd5b6120548484610ccc565b1515156120c9576040517f08c379a000000000000000000000000000000000000000000000000000000000815260040180806020018281038252601c8152602001807f64656c657465566f7465723a20566f74616e746520796120766f746f0000000081525060200191505060405180910390fd5b6000600260008681526020019081526020016000206003015414151561217d576040517f08c379a00000000000000000000000000000000000000000000000000000000081526004018080602001828103825260338152602001807f64656c657465566f7465723a2045737461646f206e6f2076616c69646f20706181526020017f726120656c696d696e617220766f74616e74650000000000000000000000000081525060400191505060405180910390fd5b600060026000868152602001908152602001600020600a0160008573ffffffffffffffffffffffffffffffffffffffff1673ffffffffffffffffffffffffffffffffffffffff16815260200190815260200160002060006101000a81548160ff0219169083151502179055506002600085815260200190815260200160002060090160008473ffffffffffffffffffffffffffffffffffffffff1673ffffffffffffffffffffffffffffffffffffffff1681526020019081526020016000206000808201600061224d9190613ee3565b60018201600061225d9190613ee3565b6002820160006101000a81549060ff0219169055505060009150600090505b600260008581526020019081526020016000206005015482111580156122a0575080155b156123325781806001019250508273ffffffffffffffffffffffffffffffffffffffff1660026000868152602001908152602001600020600b01600084815260200190815260200160002060009054906101000a900473ffffffffffffffffffffffffffffffffffffffff1673ffffffffffffffffffffffffffffffffffffffff16141561232d57600190505b61227c565b80156123835760026000858152602001908152602001600020600b01600083815260200190815260200160002060006101000a81549073ffffffffffffffffffffffffffffffffffffffff02191690555b60026000858152602001908152602001600020600501600081548092919060019003919050555050505050565b6000600160003373ffffffffffffffffffffffffffffffffffffffff1673ffffffffffffffffffffffffffffffffffffffff16815260200190815260200160002060009054906101000a900460ff16151561240a57600080fd5b61241383613bbf565b15156124ad576040517f08c379a00000000000000000000000000000000000000000000000000000000081526004018080602001828103825260248152602001807f67657441646472657373566f7465723a20456c65636369c3b36e206e6f20766181526020017f6c6964610000000000000000000000000000000000000000000000000000000081525060400191505060405180910390fd5b60026000848152602001908152602001600020600b01600083815260200190815260200160002060009054906101000a900473ffffffffffffffffffffffffffffffffffffffff16905092915050565b600061250882613bbf565b15156125a2576040517f08c379a00000000000000000000000000000000000000000000000000000000081526004018080602001828103825260228152602001807f676574566f746572496e6465783a20456c65636369c3b36e206e6f2076616c6981526020017f646100000000000000000000000000000000000000000000000000000000000081525060400191505060405180910390fd5b60026000838152602001908152602001600020600701549050919050565b60008060608060006125d0613f2b565b600160003373ffffffffffffffffffffffffffffffffffffffff1673ffffffffffffffffffffffffffffffffffffffff16815260200190815260200160002060009054906101000a900460ff16151561262857600080fd5b61263188613bbf565b15156126a5576040517f08c379a000000000000000000000000000000000000000000000000000000000815260040180806020018281038252601d8152602001807f676574566f7465723a20456c65636369c3b36e206e6f2076616c69646100000081525060200191505060405180910390fd5b6002600089815260200190815260200160002060090160008873ffffffffffffffffffffffffffffffffffffffff1673ffffffffffffffffffffffffffffffffffffffff16815260200190815260200160002060606040519081016040529081600082018054600181600116156101000203166002900480601f01602080910402602001604051908101604052809291908181526020018280546001816001161561010002031660029004801561279d5780601f106127725761010080835404028352916020019161279d565b820191906000526020600020905b81548152906001019060200180831161278057829003601f168201915b50505050508152602001600182018054600181600116156101000203166002900480601f01602080910402602001604051908101604052809291908181526020018280546001816001161561010002031660029004801561283f5780601f106128145761010080835404028352916020019161283f565b820191906000526020600020905b81548152906001019060200180831161282257829003601f168201915b505050505081526020016002820160009054906101000a900460ff1615151515815250509050878782600001518360200151846040015182925081915095509550955095509550509295509295909350565b600160003373ffffffffffffffffffffffffffffffffffffffff1673ffffffffffffffffffffffffffffffffffffffff16815260200190815260200160002060009054906101000a900460ff1615156128e957600080fd5b600034111515612987576040517f08c379a00000000000000000000000000000000000000000000000000000000081526004018080602001828103825260278152602001807f616464456c656374696f6e3a204e6f2068617920737566696369656e7465732081526020017f6574686572732e0000000000000000000000000000000000000000000000000081525060400191505060405180910390fd5b600360008154809291906001019190505550600460008154809291906001019190505550610100604051908101604052806004548152602001838152602001828152602001600081526020016000815260200160008152602001600081526020016000815250600260006004548152602001908152602001600020600082015181600001556020820151816001019080519060200190612a28929190613f4f565b506040820151816002019080519060200190612a45929190613f4f565b50606082015181600301556080820151816004015560a0820151816005015560c0820151816006015560e082015181600701559050505050565b6000612a8a82613bbf565b1515612b24576040517f08c379a00000000000000000000000000000000000000000000000000000000081526004018080602001828103825260268152602001807f67657443616e646964617465496e6465783a20456c65636369c3b36e206e6f2081526020017f76616c696461000000000000000000000000000000000000000000000000000081525060400191505060405180910390fd5b60026000838152602001908152602001600020600601549050919050565b60006060806000806000612b54613fcf565b612b5d88613bbf565b1515612bd1576040517f08c379a00000000000000000000000000000000000000000000000000000000081526004018080602001828103825260208152602001807f676574456c656374696f6e3a20456c65636369c3b36e206e6f2076616c69646181525060200191505060405180910390fd5b60026000898152602001908152602001600020610100604051908101604052908160008201548152602001600182018054600181600116156101000203166002900480601f016020809104026020016040519081016040528092919081815260200182805460018160011615610100020316600290048015612c945780601f10612c6957610100808354040283529160200191612c94565b820191906000526020600020905b815481529060010190602001808311612c7757829003601f168201915b50505050508152602001600282018054600181600116156101000203166002900480601f016020809104026020016040519081016040528092919081815260200182805460018160011615610100020316600290048015612d365780601f10612d0b57610100808354040283529160200191612d36565b820191906000526020600020905b815481529060010190602001808311612d1957829003601f168201915b50505050508152602001600382015481526020016004820154815260200160058201548152602001600682015481526020016007820154815250509050806000015181602001518260400151836060015184608001518560a001518494508393509650965096509650965096505091939550919395565b6000600354905090565b600160003373ffffffffffffffffffffffffffffffffffffffff1673ffffffffffffffffffffffffffffffffffffffff16815260200190815260200160002060009054906101000a900460ff161515612e0f57600080fd5b612e1882613bbf565b1515612eb2576040517f08c379a00000000000000000000000000000000000000000000000000000000081526004018080602001828103825260248152602001807f64656c65746543616e6469646174653a20456c65636369c3b36e206e6f20766181526020017f6c6964610000000000000000000000000000000000000000000000000000000081525060400191505060405180910390fd5b612ebc8282613bea565b1515612f56576040517f08c379a00000000000000000000000000000000000000000000000000000000081526004018080602001828103825260248152602001807f64656c65746543616e6469646174653a2043616e64696461746f206e6f20766181526020017f6c69646f0000000000000000000000000000000000000000000000000000000081525060400191505060405180910390fd5b6000600260008481526020019081526020016000206003015414151561300a576040517f08c379a00000000000000000000000000000000000000000000000000000000081526004018080602001828103825260398152602001807f64656c65746543616e6469646174653a2045737461646f206e6f2076616c696481526020017f6f207061726120656c696d696e61722063616e64696461746f0000000000000081525060400191505060405180910390fd5b6002600083815260200190815260200160002060040160008154809291906001900391905055506002600083815260200190815260200160002060080160008281526020019081526020016000206000808201600090556001820160006130719190613ee3565b6002820160006130819190613ee3565b600382016000905550505050565b61309882613bbf565b151561310c576040517f08c379a000000000000000000000000000000000000000000000000000000000815260040180806020018281038252601b8152602001807f766f74696e673a20456c65636369c3b36e206e6f2076616c696461000000000081525060200191505060405180910390fd5b600160026000848152602001908152602001600020600301541415156131c0576040517f08c379a00000000000000000000000000000000000000000000000000000000081526004018080602001828103825260238152602001807f766f74696e673a2045737461646f206e6f2076616c69646f207061726120766f81526020017f746172000000000000000000000000000000000000000000000000000000000081525060400191505060405180910390fd5b6131ca8233611b53565b151561323e576040517f08c379a00000000000000000000000000000000000000000000000000000000081526004018080602001828103825260198152602001807f766f74696e673a20566f74616e7465206e6f2076616c69646f0000000000000081525060200191505060405180910390fd5b6132488233610ccc565b1515156132bd576040517f08c379a00000000000000000000000000000000000000000000000000000000081526004018080602001828103825260178152602001807f766f74696e673a20566f74616e746520796120766f746f00000000000000000081525060200191505060405180910390fd5b6132c78282613bea565b151561333b576040517f08c379a000000000000000000000000000000000000000000000000000000000815260040180806020018281038252601b8152602001807f766f74696e673a2043616e64696461746f206e6f2076616c69646f000000000081525060200191505060405180910390fd5b60016002600084815260200190815260200160002060090160003373ffffffffffffffffffffffffffffffffffffffff1673ffffffffffffffffffffffffffffffffffffffff16815260200190815260200160002060020160006101000a81548160ff021916908315150217905550600260008381526020019081526020016000206008016000828152602001908152602001600020600301600081548092919060010191905055503373ffffffffffffffffffffffffffffffffffffffff167f0902475a854b82199b4f5d6b81327ec4c4ec077ce0356a106ddc2748c5285ed3836040518082815260200191505060405180910390a25050565b600160003373ffffffffffffffffffffffffffffffffffffffff1673ffffffffffffffffffffffffffffffffffffffff16815260200190815260200160002060009054906101000a900460ff16151561348e57600080fd5b61349783613bbf565b1515613531576040517f08c379a00000000000000000000000000000000000000000000000000000000081526004018080602001828103825260218152602001807f61646443616e6469646174653a20456c65636369c3b36e206e6f2076616c696481526020017f610000000000000000000000000000000000000000000000000000000000000081525060400191505060405180910390fd5b600060026000858152602001908152602001600020600301541415156135e5576040517f08c379a00000000000000000000000000000000000000000000000000000000081526004018080602001828103825260358152602001807f61646443616e6469646174653a2045737461646f206e6f2076616c69646f207081526020017f61726120616772656761722063616e64696461746f000000000000000000000081525060400191505060405180910390fd5b60026000848152602001908152602001600020600401600081548092919060010191905055506002600084815260200190815260200160002060060160008154809291906001019190505550608060405190810160405280600260008681526020019081526020016000206006015481526020018381526020018281526020016000815250600260008581526020019081526020016000206008016000600260008781526020019081526020016000206006015481526020019081526020016000206000820151816000015560208201518160010190805190602001906136cd929190613f4f565b5060408201518160020190805190602001906136ea929190613f4f565b5060608201518160030155905050505050565b600160003373ffffffffffffffffffffffffffffffffffffffff1673ffffffffffffffffffffffffffffffffffffffff16815260200190815260200160002060009054906101000a900460ff16151561375557600080fd5b61375e85613bbf565b15156137d2576040517f08c379a000000000000000000000000000000000000000000000000000000000815260040180806020018281038252601d8152602001807f616464566f7465723a20456c65636369c3b36e206e6f2076616c69646100000081525060200191505060405180910390fd5b60006002600087815260200190815260200160002060030154141515613886576040517f08c379a000000000000000000000000000000000000000000000000000000000815260040180806020018281038252602f8152602001807f616464566f7465723a2045737461646f206e6f2076616c69646f20706172612081526020017f6167726567617220766f74616e7465000000000000000000000000000000000081525060400191505060405180910390fd5b60026000868152602001908152602001600020600501600081548092919060010191905055506002600086815260200190815260200160002060070160008154809291906001019190505550606060405190810160405280848152602001838152602001600015158152506002600087815260200190815260200160002060090160008673ffffffffffffffffffffffffffffffffffffffff1673ffffffffffffffffffffffffffffffffffffffff1681526020019081526020016000206000820151816000019080519060200190613960929190613f4f565b50602082015181600101908051906020019061397d929190613f4f565b5060408201518160020160006101000a81548160ff021916908315150217905550905050600160026000878152602001908152602001600020600a0160008673ffffffffffffffffffffffffffffffffffffffff1673ffffffffffffffffffffffffffffffffffffffff16815260200190815260200160002060006101000a81548160ff0219169083151502179055508360026000878152602001908152602001600020600b0160006002600089815260200190815260200160002060070154815260200190815260200160002060006101000a81548173ffffffffffffffffffffffffffffffffffffffff021916908373ffffffffffffffffffffffffffffffffffffffff160217905550613a94858583613cce565b5050505050565b600160003373ffffffffffffffffffffffffffffffffffffffff1673ffffffffffffffffffffffffffffffffffffffff16815260200190815260200160002060009054906101000a900460ff161515613af357600080fd5b613afc81613bbf565b1515613b96576040517f08c379a00000000000000000000000000000000000000000000000000000000081526004018080602001828103825260238152602001807f616374697665456c656374696f6e3a20456c65636369c3b36e206e6f2076616c81526020017f696461000000000000000000000000000000000000000000000000000000000081525060400191505060405180910390fd5b600260008281526020019081526020016000206003016000815480929190600101919050555050565b60008082118015613bd257506004548211155b15613be05760019050613be5565b600090505b919050565b6000613bf583613bbf565b1515613c8f576040517f08c379a00000000000000000000000000000000000000000000000000000000081526004018080602001828103825260258152602001807f63616e646964617465497356616c69643a20456c65636369c3b36e206e6f207681526020017f616c69646100000000000000000000000000000000000000000000000000000081525060400191505060405180910390fd5b600082118015613cb5575060026000848152602001908152602001600020600601548211155b15613cc35760019050613cc8565b600090505b92915050565b600160003373ffffffffffffffffffffffffffffffffffffffff1673ffffffffffffffffffffffffffffffffffffffff16815260200190815260200160002060009054906101000a900460ff161515613d2657600080fd5b613d308383611b53565b1515613dca576040517f08c379a00000000000000000000000000000000000000000000000000000000081526004018080602001828103825260258152602001807f676574457468657273466f72566f74696e673a20566f74616e7465206e6f207681526020017f616c69646f00000000000000000000000000000000000000000000000000000081525060400191505060405180910390fd5b80613dd36119b8565b111515613e6e576040517f08c379a000000000000000000000000000000000000000000000000000000000815260040180806020018281038252602d8152602001807f676574457468657273466f72566f74696e673a204e6f2068617920657468657281526020017f7320737566696369656e7465730000000000000000000000000000000000000081525060400191505060405180910390fd5b8173ffffffffffffffffffffffffffffffffffffffff166108fc829081150290604051600060405180830381858888f19350505050158015613eb4573d6000803e3d6000fd5b50505050565b608060405190810160405280600081526020016060815260200160608152602001600081525090565b50805460018160011615610100020316600290046000825580601f10613f095750613f28565b601f016020900490600052602060002090810190613f279190614015565b5b50565b60606040519081016040528060608152602001606081526020016000151581525090565b828054600181600116156101000203166002900490600052602060002090601f016020900481019282601f10613f9057805160ff1916838001178555613fbe565b82800160010185558215613fbe579182015b82811115613fbd578251825591602001919060010190613fa2565b5b509050613fcb9190614015565b5090565b6101006040519081016040528060008152602001606081526020016060815260200160008152602001600081526020016000815260200160008152602001600081525090565b61403791905b8082111561403357600081600090555060010161401b565b5090565b905600a165627a7a72305820905ab1dcfd8fe7423b26115f31ad051c08f81d964ba13192e1d476b00774da870029",
  "source": "pragma solidity ^0.4.24;\r\n\r\ncontract BEV {\r\n    address private owner; // Propietario del contrato\r\n    mapping(address => bool) public admins; // Lista de administradores\r\n\r\n    // Estructura de candidato\r\n    struct Candidate {\r\n        uint id;\r\n        string name;\r\n        string description;\r\n        uint voteCount;\r\n    }\r\n\r\n    // Estructura de votante\r\n    struct Voter {\r\n        string name;\r\n        string description;\r\n        bool voted;\r\n    }\r\n\r\n    // Estructura de eleccin\r\n    struct Election {\r\n        uint id;\r\n        string name;\r\n        string description;\r\n        uint estado; // 0: \"nueva\", 1: \"iniciada\", 2: \"finalizada\"\r\n        uint candidatesCount;// Almacenar el recuento de los candidatos\r\n        uint votersCount; // Almacenar el recuento de los votantes\r\n        uint candidatesIndex; // Indice de candidatos, ya que al eliminar no se borra el objeto\r\n        uint votersIndex; // Indice de votanes, ya que al eliminar no se borra el objeto\r\n        mapping(uint => Candidate) candidates; // Lectura/escritura de candidatos\r\n        mapping(address => Voter) voters; // Lectura/escritura de los votantes\r\n        mapping(address => bool) joinedVoters; // Almacenar cuentas que pueden votar\r\n        mapping(uint => address) allVoters; // Lista de los votantes\r\n    }\r\n\r\n    mapping(uint => Election) private elections; // Lista de elecciones\r\n    uint private electionsCount; // Almacenar el recuento de las elecciones\r\n    uint private electionsIndex; // Indice de elecciones\r\n\r\n    event VotedEvent(address indexed _account, uint _idElection); // evento de voto\r\n\r\n    // Validar si es propietario\r\n    modifier isOwner(){\r\n        require(owner == msg.sender);\r\n        _;\r\n    }\r\n\r\n    // Validar si es administrador\r\n    modifier isAdmin(){\r\n        require(admins[msg.sender]);\r\n        _;\r\n    }\r\n\r\n    constructor () public {\r\n        owner = msg.sender; // Quien publica el contrato es el dueo\r\n        admins[msg.sender] = true; // Es administrador tambien\r\n        electionsCount = 0;\r\n        electionsIndex = 0;\r\n    }\r\n\r\n    // Agregar un administrador\r\n    function addAdmin(address _addr) public isOwner {\r\n        require(!admins[_addr], \"addAdmin: Ya es administrador.\");\r\n        admins[_addr] = true;\r\n    }\r\n\r\n    // Quitar un administrador\r\n    function deleteAdmin(address _addr) public isOwner {\r\n        require(admins[_addr], \"deleteAdmin: No es administrador.\");\r\n        admins[_addr] = false;\r\n    }\r\n\r\n    // Agregar una eleccin\r\n    function addElection(string _name, string _description) public isAdmin payable {\r\n        require(msg.value > 0 ether, \"addElection: No hay suficientes ethers.\");\r\n        electionsCount++;\r\n        electionsIndex++;\r\n        elections[electionsIndex] = Election(electionsIndex, _name, _description, 0, 0, 0, 0, 0);\r\n    }\r\n\r\n    // Obtener detalles de una eleccin\r\n    function getElection(uint _idElection) public view returns(uint, string, string, uint, uint, uint) {\r\n        require(electionIsValid(_idElection), \"getElection: Eleccin no valida\");\r\n        Election memory election = elections[_idElection];\r\n        return (election.id, election.name, election.description, election.estado, election.candidatesCount, election.votersCount);\r\n    }\r\n\r\n    // Activar una eleccin\r\n    function activeElection(uint _idElection) public isAdmin {\r\n        require(electionIsValid(_idElection), \"activeElection: Eleccin no valida\");\r\n        elections[_idElection].estado++;\r\n    }\r\n\r\n   // Eliminar una eleccin\r\n    function deleteElection(uint _idElection) public isAdmin {\r\n        require(electionIsValid(_idElection), \"deleteElection: Eleccin no valida\");\r\n        require(elections[_idElection].votersCount == 0,\"deleteElection: Hay votantes\");\r\n        require(elections[_idElection].candidatesCount == 0, \"deleteElection: Hay candidatos\");\r\n        electionsCount--;\r\n        delete elections[_idElection];\r\n    }\r\n\r\n    // Devuelve la cantidad de elecciones que hay en el contrato\r\n    function getTotalElections() public view returns(uint) {\r\n        return electionsCount;\r\n    }\r\n\r\n    function getElectionsIndex() public view returns(uint) {\r\n        return electionsIndex;\r\n    }\r\n\r\n    // Comprobar si la eleccion es valida\r\n    function electionIsValid(uint _idElection) private view returns(bool) {\r\n        if(_idElection > 0 && _idElection <= electionsIndex)\r\n            return true;\r\n\r\n        return false;\r\n    }\r\n\r\n    // Agregar un candidato\r\n    function addCandidate (uint _idElection, string _name, string _description) public isAdmin {\r\n        require(electionIsValid(_idElection), \"addCandidate: Eleccin no valida\");\r\n        require(elections[_idElection].estado == 0, \"addCandidate: Estado no valido para agregar candidato\");\r\n        elections[_idElection].candidatesCount++;\r\n        elections[_idElection].candidatesIndex++;\r\n        elections[_idElection].candidates[elections[_idElection].candidatesIndex] = Candidate(elections[_idElection].candidatesIndex, _name, _description, 0);\r\n    }\r\n\r\n    // Obtener un candidato\r\n    function getCandidate(uint _idElection, uint _idCandidate) public view returns(uint, uint, string, string, uint) {\r\n        require(electionIsValid(_idElection), \"getCandidate: Eleccin no valida\");\r\n        require(candidateIsValid(_idElection, _idCandidate), \"getCandidate: Candidato no valido\");\r\n        Candidate memory candidate = elections[_idElection].candidates[_idCandidate];\r\n        return (_idElection, candidate.id, candidate.name, candidate.description, candidate.voteCount);\r\n    }\r\n\r\n   // Eliminar un candidato\r\n    function deleteCandidate(uint _idElection, uint _idCandidate) public isAdmin {\r\n        require(electionIsValid(_idElection), \"deleteCandidate: Eleccin no valida\");\r\n        require(candidateIsValid(_idElection, _idCandidate), \"deleteCandidate: Candidato no valido\");\r\n        require(elections[_idElection].estado == 0, \"deleteCandidate: Estado no valido para eliminar candidato\");\r\n        elections[_idElection].candidatesCount--;\r\n        delete elections[_idElection].candidates[_idCandidate];\r\n    }\r\n\r\n    // Obtener la cantidad de candidatos de una eleccin\r\n    function getCandidatesCount (uint _idElection) public view returns(uint){\r\n        require(electionIsValid(_idElection), \"getCandidateCount: Eleccin no valida\");\r\n        return elections[_idElection].candidatesCount;\r\n    }\r\n\r\n    function getCandidatesIndex (uint _idElection) public view returns(uint){\r\n        require(electionIsValid(_idElection), \"getCandidateIndex: Eleccin no valida\");\r\n        return elections[_idElection].candidatesIndex;\r\n    }\r\n\r\n    // Comprobar si el candidato es valido\r\n    function candidateIsValid(uint _idElection, uint _idCandidate) private view returns(bool) {\r\n        require(electionIsValid(_idElection), \"candidateIsValid: Eleccin no valida\");\r\n        if(_idCandidate > 0 && _idCandidate <= elections[_idElection].candidatesIndex)\r\n            return true;\r\n\r\n        return false;\r\n    }\r\n\r\n    // Agregar un votante\r\n    function addVoter (uint _idElection, address _addr, string _name, string _description, uint _amount) public isAdmin {\r\n        require(electionIsValid(_idElection), \"addVoter: Eleccin no valida\");\r\n        require(elections[_idElection].estado == 0, \"addVoter: Estado no valido para agregar votante\");\r\n        elections[_idElection].votersCount++;\r\n        elections[_idElection].votersIndex++;\r\n        elections[_idElection].voters[_addr] = Voter(_name, _description, false);\r\n        elections[_idElection].joinedVoters[_addr] = true;\r\n        elections[_idElection].allVoters[elections[_idElection].votersIndex] = _addr;\r\n        getEthersForVoting(_idElection, _addr, _amount);\r\n    }\r\n\r\n    // Comprobar si el votante esta en el padrn\r\n    function voterIsJoined(uint _idElection, address _addr) public view returns(bool) {\r\n        require(electionIsValid(_idElection), \"voterIsJoined: Eleccin no valida\");\r\n        return elections[_idElection].joinedVoters[_addr];\r\n    }\r\n\r\n    // Obtengo la cuenta de un votante segn su posicin\r\n    function getAddressVoter(uint _idElection, uint _index) public isAdmin view returns(address) {\r\n        require(electionIsValid(_idElection), \"getAddressVoter: Eleccin no valida\");\r\n        return elections[_idElection].allVoters[_index];\r\n    }\r\n\r\n    // Obtengo un votante\r\n    function getVoter(uint _idElection, address _addr) public isAdmin view returns(uint, address, string, string, bool) {\r\n        require(electionIsValid(_idElection), \"getVoter: Eleccin no valida\");\r\n        //require(voterIsJoined(_idElection, _addr), \"getVoter: Votante no valido\");\r\n        Voter memory voter = elections[_idElection].voters[_addr];\r\n        return (_idElection, _addr, voter.name, voter.description, voter.voted);\r\n    }\r\n\r\n   // Eliminar votante\r\n    function deleteVoter(uint _idElection, address _addr) public isAdmin {\r\n        require(electionIsValid(_idElection), \"deleteVoter: Eleccin no valida\");\r\n        require(voterIsJoined(_idElection, _addr),\"deleteVoter: Votante no valido\");\r\n        require(!voterHasVoted(_idElection, _addr), \"deleteVoter: Votante ya voto\");\r\n        require(elections[_idElection].estado == 0, \"deleteVoter: Estado no valido para eliminar votante\");\r\n        elections[_idElection].joinedVoters[_addr] = false;\r\n        delete elections[_idElection].voters[_addr];\r\n\r\n        uint i = 0;\r\n        bool encontro = false;\r\n        while ((i <= elections[_idElection].votersCount) && !encontro){\r\n            i++;\r\n            if(elections[_idElection].allVoters[i] == _addr)\r\n                encontro = true;\r\n\r\n        }\r\n       \r\n        if(encontro)\r\n            delete elections[_idElection].allVoters[i];\r\n\r\n        elections[_idElection].votersCount--;\r\n    }\r\n\r\n    // Obtener la cantidad de votantes de la eleccin\r\n    function getVotersCount (uint _idElection) public view returns(uint){\r\n        require(electionIsValid(_idElection), \"getVotersCount: Eleccin no valida\");\r\n        return elections[_idElection].votersCount;\r\n    }\r\n\r\n    function getVotersIndex (uint _idElection) public view returns(uint){\r\n        require(electionIsValid(_idElection), \"getVoterIndex: Eleccin no valida\");\r\n        return elections[_idElection].votersIndex;\r\n    }\r\n\r\n    // Votar\r\n    function voting (uint _idElection, uint _idCandidate) public {\r\n        require(electionIsValid(_idElection), \"voting: Eleccin no valida\"); // Requerir una eleccin vlida\r\n        // Exigir que sea un votante valido y que no haya votado antes\r\n        require(elections[_idElection].estado == 1, \"voting: Estado no valido para votar\");\r\n        require(voterIsJoined(_idElection, msg.sender), \"voting: Votante no valido\");\r\n        require(!voterHasVoted(_idElection, msg.sender), \"voting: Votante ya voto\");\r\n        require(candidateIsValid(_idElection, _idCandidate), \"voting: Candidato no valido\"); // Requerir un candidato vlido\r\n        elections[_idElection].voters[msg.sender].voted = true; // Registro de que el votante ha votado\r\n        elections[_idElection].candidates[_idCandidate].voteCount++; // Registro de que el votante ha votado\r\n        emit VotedEvent(msg.sender, _idElection); // Evento desencadenante del voto\r\n    }\r\n\r\n    // Comprobar si el votante ya voto\r\n    function voterHasVoted(uint _idElection, address _addr) public view returns(bool) {\r\n        require(electionIsValid(_idElection), \"voterHasVoted: Eleccin no valida\");\r\n        require(voterIsJoined(_idElection, _addr), \"voterHasVoted: Votante no valido\");\r\n        return elections[_idElection].voters[_addr].voted;\r\n    }\r\n\r\n    // Resultado de la votacin\r\n    function getResultElection(uint _idElection) public view returns(uint) {\r\n        require(electionIsValid(_idElection), \"getResultElection: Eleccin no valida\");\r\n        require(elections[_idElection].estado == 2, \"getResultElection: Estado no valido para mostrar resultados\");\r\n        uint idGanadorActual = elections[_idElection].candidates[1].id;\r\n        uint votosGanadorActual = elections[_idElection].candidates[1].voteCount;\r\n        for(uint i = 2; i <= elections[_idElection].candidatesIndex; i++) {\r\n            if(elections[_idElection].candidates[i].voteCount > votosGanadorActual) {\r\n                idGanadorActual = elections[_idElection].candidates[i].id;\r\n                votosGanadorActual = elections[_idElection].candidates[i].voteCount;\r\n            }\r\n            else {\r\n                if(elections[_idElection].candidates[i].voteCount == votosGanadorActual)\r\n                    idGanadorActual = 0;\r\n            }\r\n        }\r\n        return idGanadorActual;\r\n    }\r\n\r\n    // Transferir etheres para poder votar\r\n    function getEthersForVoting(uint _idElection, address _addr, uint monto) private isAdmin {\r\n        require(voterIsJoined(_idElection, _addr), \"getEthersForVoting: Votante no valido\");\r\n        require(getContractBalance() > monto, \"getEthersForVoting: No hay ethers suficientes\");\r\n        _addr.transfer(monto);\r\n    }\r\n\r\n    // Transferir los fondos del contrato\r\n    function transferFromContract(address _addr, uint _amount) public isAdmin {\r\n        require(getContractBalance() > _amount, \"transferFromContract: No hay ethers suficientes\");\r\n        _addr.transfer(_amount);\r\n    }\r\n\r\n    function transferToContract() public isAdmin payable {\r\n        require(msg.value > 0 ether, \"transferToContract: No hay suficientes ethers.\");\r\n    }\r\n\r\n    // Obtener el balance del SmartContract\r\n    function getContractBalance() public view returns (uint) {\r\n        address BEVAddress = this;\r\n        return BEVAddress.balance;\r\n    }\r\n\r\n}",
  "sourcePath": "/Users/martinober/Documents/blockchain-electronic-voting/contracts/BEV.sol",
  "compiler": {
    "name": "solc",
    "version": "0.4.25+commit.59dbf8f1.Emscripten.clang"
  },
  "schemaVersion": "2.0.2",
  "updatedAt": "2020-09-09T23:02:28.363Z"
}