{
  "contractName": "BEV",
  "abi": [
    {
      "constant": true,
      "inputs": [
        {
          "name": "",
          "type": "address"
        }
      ],
      "name": "admins",
      "outputs": [
        {
          "name": "",
          "type": "bool"
        }
      ],
      "payable": false,
      "stateMutability": "view",
      "type": "function"
    },
    {
      "inputs": [],
      "payable": false,
      "stateMutability": "nonpayable",
      "type": "constructor"
    },
    {
      "anonymous": false,
      "inputs": [
        {
          "indexed": true,
          "name": "_account",
          "type": "address"
        },
        {
          "indexed": true,
          "name": "_idElection",
          "type": "uint256"
        }
      ],
      "name": "VotedEvent",
      "type": "event"
    },
    {
      "constant": false,
      "inputs": [
        {
          "name": "_addr",
          "type": "address"
        }
      ],
      "name": "addAdmin",
      "outputs": [],
      "payable": false,
      "stateMutability": "nonpayable",
      "type": "function"
    },
    {
      "constant": false,
      "inputs": [
        {
          "name": "_addr",
          "type": "address"
        }
      ],
      "name": "deleteAdmin",
      "outputs": [],
      "payable": false,
      "stateMutability": "nonpayable",
      "type": "function"
    },
    {
      "constant": false,
      "inputs": [
        {
          "name": "_name",
          "type": "string"
        }
      ],
      "name": "addElection",
      "outputs": [],
      "payable": true,
      "stateMutability": "payable",
      "type": "function"
    },
    {
      "constant": true,
      "inputs": [
        {
          "name": "_idElection",
          "type": "uint256"
        }
      ],
      "name": "getElection",
      "outputs": [
        {
          "name": "",
          "type": "uint256"
        },
        {
          "name": "",
          "type": "string"
        },
        {
          "name": "",
          "type": "bool"
        },
        {
          "name": "",
          "type": "uint256"
        },
        {
          "name": "",
          "type": "uint256"
        }
      ],
      "payable": false,
      "stateMutability": "view",
      "type": "function"
    },
    {
      "constant": false,
      "inputs": [
        {
          "name": "_idElection",
          "type": "uint256"
        },
        {
          "name": "_active",
          "type": "bool"
        }
      ],
      "name": "activeElection",
      "outputs": [],
      "payable": false,
      "stateMutability": "nonpayable",
      "type": "function"
    },
    {
      "constant": false,
      "inputs": [
        {
          "name": "_idElection",
          "type": "uint256"
        }
      ],
      "name": "deleteElection",
      "outputs": [],
      "payable": false,
      "stateMutability": "nonpayable",
      "type": "function"
    },
    {
      "constant": true,
      "inputs": [],
      "name": "getTotalElections",
      "outputs": [
        {
          "name": "",
          "type": "uint256"
        }
      ],
      "payable": false,
      "stateMutability": "view",
      "type": "function"
    },
    {
      "constant": false,
      "inputs": [
        {
          "name": "_idElection",
          "type": "uint256"
        },
        {
          "name": "_name",
          "type": "string"
        }
      ],
      "name": "addCandidate",
      "outputs": [],
      "payable": false,
      "stateMutability": "nonpayable",
      "type": "function"
    },
    {
      "constant": true,
      "inputs": [
        {
          "name": "_idElection",
          "type": "uint256"
        },
        {
          "name": "_idCandidate",
          "type": "uint256"
        }
      ],
      "name": "getCandidate",
      "outputs": [
        {
          "name": "",
          "type": "uint256"
        },
        {
          "name": "",
          "type": "uint256"
        },
        {
          "name": "",
          "type": "string"
        },
        {
          "name": "",
          "type": "uint256"
        }
      ],
      "payable": false,
      "stateMutability": "view",
      "type": "function"
    },
    {
      "constant": false,
      "inputs": [
        {
          "name": "_idElection",
          "type": "uint256"
        },
        {
          "name": "_idCandidate",
          "type": "uint256"
        }
      ],
      "name": "deleteCandidate",
      "outputs": [],
      "payable": false,
      "stateMutability": "nonpayable",
      "type": "function"
    },
    {
      "constant": true,
      "inputs": [
        {
          "name": "_idElection",
          "type": "uint256"
        }
      ],
      "name": "getCandidatesCount",
      "outputs": [
        {
          "name": "",
          "type": "uint256"
        }
      ],
      "payable": false,
      "stateMutability": "view",
      "type": "function"
    },
    {
      "constant": true,
      "inputs": [
        {
          "name": "_idElection",
          "type": "uint256"
        }
      ],
      "name": "getCandidatesIndex",
      "outputs": [
        {
          "name": "",
          "type": "uint256"
        }
      ],
      "payable": false,
      "stateMutability": "view",
      "type": "function"
    },
    {
      "constant": false,
      "inputs": [
        {
          "name": "_idElection",
          "type": "uint256"
        },
        {
          "name": "_addr",
          "type": "address"
        },
        {
          "name": "_name",
          "type": "string"
        }
      ],
      "name": "addVoter",
      "outputs": [],
      "payable": false,
      "stateMutability": "nonpayable",
      "type": "function"
    },
    {
      "constant": true,
      "inputs": [
        {
          "name": "_idElection",
          "type": "uint256"
        },
        {
          "name": "_addr",
          "type": "address"
        }
      ],
      "name": "voterIsJoined",
      "outputs": [
        {
          "name": "",
          "type": "bool"
        }
      ],
      "payable": false,
      "stateMutability": "view",
      "type": "function"
    },
    {
      "constant": true,
      "inputs": [
        {
          "name": "_idElection",
          "type": "uint256"
        },
        {
          "name": "_index",
          "type": "uint256"
        }
      ],
      "name": "getAddressVoter",
      "outputs": [
        {
          "name": "",
          "type": "address"
        }
      ],
      "payable": false,
      "stateMutability": "view",
      "type": "function"
    },
    {
      "constant": true,
      "inputs": [
        {
          "name": "_idElection",
          "type": "uint256"
        },
        {
          "name": "_addr",
          "type": "address"
        }
      ],
      "name": "getVoter",
      "outputs": [
        {
          "name": "",
          "type": "uint256"
        },
        {
          "name": "",
          "type": "address"
        },
        {
          "name": "",
          "type": "string"
        },
        {
          "name": "",
          "type": "bool"
        }
      ],
      "payable": false,
      "stateMutability": "view",
      "type": "function"
    },
    {
      "constant": false,
      "inputs": [
        {
          "name": "_idElection",
          "type": "uint256"
        },
        {
          "name": "_addr",
          "type": "address"
        }
      ],
      "name": "deleteVoter",
      "outputs": [],
      "payable": false,
      "stateMutability": "nonpayable",
      "type": "function"
    },
    {
      "constant": true,
      "inputs": [
        {
          "name": "_idElection",
          "type": "uint256"
        }
      ],
      "name": "getVotersCount",
      "outputs": [
        {
          "name": "",
          "type": "uint256"
        }
      ],
      "payable": false,
      "stateMutability": "view",
      "type": "function"
    },
    {
      "constant": true,
      "inputs": [
        {
          "name": "_idElection",
          "type": "uint256"
        }
      ],
      "name": "getVotersIndex",
      "outputs": [
        {
          "name": "",
          "type": "uint256"
        }
      ],
      "payable": false,
      "stateMutability": "view",
      "type": "function"
    },
    {
      "constant": false,
      "inputs": [
        {
          "name": "_idElection",
          "type": "uint256"
        },
        {
          "name": "_idCandidate",
          "type": "uint256"
        }
      ],
      "name": "voting",
      "outputs": [],
      "payable": false,
      "stateMutability": "nonpayable",
      "type": "function"
    },
    {
      "constant": true,
      "inputs": [
        {
          "name": "_idElection",
          "type": "uint256"
        },
        {
          "name": "_addr",
          "type": "address"
        }
      ],
      "name": "voterHasVoted",
      "outputs": [
        {
          "name": "",
          "type": "bool"
        }
      ],
      "payable": false,
      "stateMutability": "view",
      "type": "function"
    },
    {
      "constant": true,
      "inputs": [
        {
          "name": "_idElection",
          "type": "uint256"
        }
      ],
      "name": "getResultElection",
      "outputs": [
        {
          "name": "",
          "type": "uint256"
        }
      ],
      "payable": false,
      "stateMutability": "view",
      "type": "function"
    },
    {
      "constant": false,
      "inputs": [
        {
          "name": "_addr",
          "type": "address"
        },
        {
          "name": "amount",
          "type": "uint256"
        }
      ],
      "name": "transferFromContract",
      "outputs": [],
      "payable": false,
      "stateMutability": "nonpayable",
      "type": "function"
    },
    {
      "constant": true,
      "inputs": [],
      "name": "getContractBalance",
      "outputs": [
        {
          "name": "",
          "type": "uint256"
        }
      ],
      "payable": false,
      "stateMutability": "view",
      "type": "function"
    }
  ],
  "bytecode": "0x608060405234801561001057600080fd5b50336000806101000a81548173ffffffffffffffffffffffffffffffffffffffff021916908373ffffffffffffffffffffffffffffffffffffffff16021790555060018060003373ffffffffffffffffffffffffffffffffffffffff1673ffffffffffffffffffffffffffffffffffffffff16815260200190815260200160002060006101000a81548160ff0219169083151502179055506132a9806100b76000396000f300608060405260043610610149576000357c0100000000000000000000000000000000000000000000000000000000900463ffffffff16806308e2fd4d1461014e5780630b713f29146101e15780631750a3d0146102465780631a88f306146102b95780631de66c931461030657806327e1f7df14610347578063358b9d971461038a5780633ee95f00146103e6578063429b62e514610427578063452cf3c8146104825780634bd46448146104c35780636f9fb98a1461058857806370480275146105b3578063709be96a146105f6578063740c47d41461065b5780637569f2b514610688578063826374e6146106d55780638de720cf1461074c5780638f47b1461461078d5780639b7c0820146108985780639d710777146108d9578063a9392e0c1461099f578063bdd03295146109ca578063cf4a606014610a03578063cfaad27c14610a3a575b600080fd5b34801561015a57600080fd5b506101df60048036038101908080359060200190929190803573ffffffffffffffffffffffffffffffffffffffff169060200190929190803590602001908201803590602001908080601f0160208091040260200160405190810160405280939291908181526020018383808284378201915050505050509192919290505050610a71565b005b3480156101ed57600080fd5b5061022c60048036038101908080359060200190929190803573ffffffffffffffffffffffffffffffffffffffff169060200190929190505050610d34565b604051808215151515815260200191505060405180910390f35b34801561025257600080fd5b506102b760048036038101908080359060200190929190803590602001908201803590602001908080601f0160208091040260200160405190810160405280939291908181526020018383808284378201915050505050509192919290505050610e9d565b005b3480156102c557600080fd5b50610304600480360381019080803573ffffffffffffffffffffffffffffffffffffffff16906020019092919080359060200190929190505050611066565b005b34801561031257600080fd5b506103316004803603810190808035906020019092919050505061118a565b6040518082815260200191505060405180910390f35b34801561035357600080fd5b50610388600480360381019080803573ffffffffffffffffffffffffffffffffffffffff169060200190929190505050611227565b005b6103e4600480360381019080803590602001908201803590602001908080601f016020809104026020016040519081016040528093929190818152602001838380828437820191505050505050919291929050505061139e565b005b3480156103f257600080fd5b50610411600480360381019080803590602001909291905050506114de565b6040518082815260200191505060405180910390f35b34801561043357600080fd5b50610468600480360381019080803573ffffffffffffffffffffffffffffffffffffffff16906020019092919050505061157b565b604051808215151515815260200191505060405180910390f35b34801561048e57600080fd5b506104ad6004803603810190808035906020019092919050505061159b565b6040518082815260200191505060405180910390f35b3480156104cf57600080fd5b506104f8600480360381019080803590602001909291908035906020019092919050505061177f565b6040518085815260200184815260200180602001838152602001828103825284818151815260200191508051906020019080838360005b8381101561054a57808201518184015260208101905061052f565b50505050905090810190601f1680156105775780820380516001836020036101000a031916815260200191505b509550505050505060405180910390f35b34801561059457600080fd5b5061059d611999565b6040518082815260200191505060405180910390f35b3480156105bf57600080fd5b506105f4600480360381019080803573ffffffffffffffffffffffffffffffffffffffff1690602001909291905050506119bd565b005b34801561060257600080fd5b5061064160048036038101908080359060200190929190803573ffffffffffffffffffffffffffffffffffffffff169060200190929190505050611b34565b604051808215151515815260200191505060405180910390f35b34801561066757600080fd5b5061068660048036038101908080359060200190929190505050611c1c565b005b34801561069457600080fd5b506106d360048036038101908080359060200190929190803573ffffffffffffffffffffffffffffffffffffffff169060200190929190505050611e72565b005b3480156106e157600080fd5b5061070a600480360381019080803590602001909291908035906020019092919050505061226a565b604051808273ffffffffffffffffffffffffffffffffffffffff1673ffffffffffffffffffffffffffffffffffffffff16815260200191505060405180910390f35b34801561075857600080fd5b5061077760048036038101908080359060200190929190505050612391565b6040518082815260200191505060405180910390f35b34801561079957600080fd5b506107d860048036038101908080359060200190929190803573ffffffffffffffffffffffffffffffffffffffff16906020019092919050505061242e565b604051808581526020018473ffffffffffffffffffffffffffffffffffffffff1673ffffffffffffffffffffffffffffffffffffffff1681526020018060200183151515158152602001828103825284818151815260200191508051906020019080838360005b8381101561085a57808201518184015260208101905061083f565b50505050905090810190601f1680156108875780820380516001836020036101000a031916815260200191505b509550505050505060405180910390f35b3480156108a457600080fd5b506108c360048036038101908080359060200190929190505050612650565b6040518082815260200191505060405180910390f35b3480156108e557600080fd5b50610904600480360381019080803590602001909291905050506126ed565b604051808681526020018060200185151515158152602001848152602001838152602001828103825286818151815260200191508051906020019080838360005b83811015610960578082015181840152602081019050610945565b50505050905090810190601f16801561098d5780820380516001836020036101000a031916815260200191505b50965050505050505060405180910390f35b3480156109ab57600080fd5b506109b46128bb565b6040518082815260200191505060405180910390f35b3480156109d657600080fd5b50610a01600480360381019080803590602001909291908035151590602001909291905050506128c5565b005b348015610a0f57600080fd5b50610a3860048036038101908080359060200190929190803590602001909291905050506129cc565b005b348015610a4657600080fd5b50610a6f6004803603810190808035906020019092919080359060200190929190505050612b94565b005b600160003373ffffffffffffffffffffffffffffffffffffffff1673ffffffffffffffffffffffffffffffffffffffff16815260200190815260200160002060009054906101000a900460ff161515610ac957600080fd5b610ad283612e7d565b1515610b46576040517f08c379a00000000000000000000000000000000000000000000000000000000081526004018080602001828103825260138152602001807f456c65636369c3b36e206e6f2076616c6964610000000000000000000000000081525060200191505060405180910390fd5b600260008481526020019081526020016000206004016000815480929190600101919050555060026000848152602001908152602001600020600601600081548092919060010191905055506040805190810160405280828152602001600015158152506002600085815260200190815260200160002060080160008473ffffffffffffffffffffffffffffffffffffffff1673ffffffffffffffffffffffffffffffffffffffff1681526020019081526020016000206000820151816000019080519060200190610c19929190613112565b5060208201518160010160006101000a81548160ff02191690831515021790555090505060016002600085815260200190815260200160002060090160008473ffffffffffffffffffffffffffffffffffffffff1673ffffffffffffffffffffffffffffffffffffffff16815260200190815260200160002060006101000a81548160ff0219169083151502179055508160026000858152602001908152602001600020600a0160006002600087815260200190815260200160002060060154815260200190815260200160002060006101000a81548173ffffffffffffffffffffffffffffffffffffffff021916908373ffffffffffffffffffffffffffffffffffffffff160217905550610d2f8383612ea8565b505050565b6000610d3f83612e7d565b1515610db3576040517f08c379a00000000000000000000000000000000000000000000000000000000081526004018080602001828103825260138152602001807f456c65636369c3b36e206e6f2076616c6964610000000000000000000000000081525060200191505060405180910390fd5b610dbd8383611b34565b1515610e31576040517f08c379a00000000000000000000000000000000000000000000000000000000081526004018080602001828103825260118152602001807f566f74616e7465206e6f2076616c69646f00000000000000000000000000000081525060200191505060405180910390fd5b6002600084815260200190815260200160002060080160008373ffffffffffffffffffffffffffffffffffffffff1673ffffffffffffffffffffffffffffffffffffffff16815260200190815260200160002060010160009054906101000a900460ff16905092915050565b600160003373ffffffffffffffffffffffffffffffffffffffff1673ffffffffffffffffffffffffffffffffffffffff16815260200190815260200160002060009054906101000a900460ff161515610ef557600080fd5b610efe82612e7d565b1515610f72576040517f08c379a00000000000000000000000000000000000000000000000000000000081526004018080602001828103825260138152602001807f456c65636369c3b36e206e6f2076616c6964610000000000000000000000000081525060200191505060405180910390fd5b6002600083815260200190815260200160002060030160008154809291906001019190505550600260008381526020019081526020016000206005016000815480929190600101919050555060606040519081016040528060026000858152602001908152602001600020600501548152602001828152602001600081525060026000848152602001908152602001600020600701600060026000868152602001908152602001600020600501548152602001908152602001600020600082015181600001556020820151816001019080519060200190611054929190613112565b50604082015181600201559050505050565b3373ffffffffffffffffffffffffffffffffffffffff166000809054906101000a900473ffffffffffffffffffffffffffffffffffffffff1673ffffffffffffffffffffffffffffffffffffffff161415156110c157600080fd5b806110ca611999565b11151561113f576040517f08c379a00000000000000000000000000000000000000000000000000000000081526004018080602001828103825260198152602001807f4e6f206861792065746865727320737566696369656e7465730000000000000081525060200191505060405180910390fd5b8173ffffffffffffffffffffffffffffffffffffffff166108fc829081150290604051600060405180830381858888f19350505050158015611185573d6000803e3d6000fd5b505050565b600061119582612e7d565b1515611209576040517f08c379a00000000000000000000000000000000000000000000000000000000081526004018080602001828103825260138152602001807f456c65636369c3b36e206e6f2076616c6964610000000000000000000000000081525060200191505060405180910390fd5b60026000838152602001908152602001600020600401549050919050565b3373ffffffffffffffffffffffffffffffffffffffff166000809054906101000a900473ffffffffffffffffffffffffffffffffffffffff1673ffffffffffffffffffffffffffffffffffffffff1614151561128257600080fd5b600160008273ffffffffffffffffffffffffffffffffffffffff1673ffffffffffffffffffffffffffffffffffffffff16815260200190815260200160002060009054906101000a900460ff161515611343576040517f08c379a00000000000000000000000000000000000000000000000000000000081526004018080602001828103825260148152602001807f4e6f2065732061646d696e6973747261646f722e00000000000000000000000081525060200191505060405180910390fd5b6000600160008373ffffffffffffffffffffffffffffffffffffffff1673ffffffffffffffffffffffffffffffffffffffff16815260200190815260200160002060006101000a81548160ff02191690831515021790555050565b600160003373ffffffffffffffffffffffffffffffffffffffff1673ffffffffffffffffffffffffffffffffffffffff16815260200190815260200160002060009054906101000a900460ff1615156113f657600080fd5b60003411151561140557600080fd5b60036000815480929190600101919050555060e0604051908101604052806003548152602001828152602001600015158152602001600081526020016000815260200160008152602001600081525060026000600354815260200190815260200160002060008201518160000155602082015181600101908051906020019061148f929190613112565b5060408201518160020160006101000a81548160ff021916908315150217905550606082015181600301556080820151816004015560a0820151816005015560c0820151816006015590505050565b60006114e982612e7d565b151561155d576040517f08c379a00000000000000000000000000000000000000000000000000000000081526004018080602001828103825260138152602001807f456c65636369c3b36e206e6f2076616c6964610000000000000000000000000081525060200191505060405180910390fd5b60026000838152602001908152602001600020600301549050919050565b60016020528060005260406000206000915054906101000a900460ff1681565b6000806000806115aa85612e7d565b151561161e576040517f08c379a00000000000000000000000000000000000000000000000000000000081526004018080602001828103825260138152602001807f456c65636369c3b36e206e6f2076616c6964610000000000000000000000000081525060200191505060405180910390fd5b6002600086815260200190815260200160002060070160006001815260200190815260200160002060000154925060026000868152602001908152602001600020600701600060018152602001908152602001600020600201549150600290505b600260008681526020019081526020016000206005015481111515611774578160026000878152602001908152602001600020600701600083815260200190815260200160002060020154111561172f57600260008681526020019081526020016000206007016000828152602001908152602001600020600001549250600260008681526020019081526020016000206007016000828152602001908152602001600020600201549150611767565b8160026000878152602001908152602001600020600701600083815260200190815260200160002060020154141561176657600092505b5b808060010191505061167f565b829350505050919050565b6000806060600061178e613192565b61179787612e7d565b151561180b576040517f08c379a00000000000000000000000000000000000000000000000000000000081526004018080602001828103825260138152602001807f456c65636369c3b36e206e6f2076616c6964610000000000000000000000000081525060200191505060405180910390fd5b6118158787613054565b1515611889576040517f08c379a00000000000000000000000000000000000000000000000000000000081526004018080602001828103825260138152602001807f43616e64696461746f206e6f2076616c69646f0000000000000000000000000081525060200191505060405180910390fd5b6002600088815260200190815260200160002060070160008781526020019081526020016000206060604051908101604052908160008201548152602001600182018054600181600116156101000203166002900480601f01602080910402602001604051908101604052809291908181526020018280546001816001161561010002031660029004801561195f5780601f106119345761010080835404028352916020019161195f565b820191906000526020600020905b81548152906001019060200180831161194257829003601f168201915b5050505050815260200160028201548152505090508681600001518260200151836040015181915094509450945094505092959194509250565b6000803090508073ffffffffffffffffffffffffffffffffffffffff163191505090565b3373ffffffffffffffffffffffffffffffffffffffff166000809054906101000a900473ffffffffffffffffffffffffffffffffffffffff1673ffffffffffffffffffffffffffffffffffffffff16141515611a1857600080fd5b600160008273ffffffffffffffffffffffffffffffffffffffff1673ffffffffffffffffffffffffffffffffffffffff16815260200190815260200160002060009054906101000a900460ff16151515611ada576040517f08c379a00000000000000000000000000000000000000000000000000000000081526004018080602001828103825260148152602001807f59612065732061646d696e6973747261646f722e00000000000000000000000081525060200191505060405180910390fd5b60018060008373ffffffffffffffffffffffffffffffffffffffff1673ffffffffffffffffffffffffffffffffffffffff16815260200190815260200160002060006101000a81548160ff02191690831515021790555050565b6000611b3f83612e7d565b1515611bb3576040517f08c379a00000000000000000000000000000000000000000000000000000000081526004018080602001828103825260138152602001807f456c65636369c3b36e206e6f2076616c6964610000000000000000000000000081525060200191505060405180910390fd5b6002600084815260200190815260200160002060090160008373ffffffffffffffffffffffffffffffffffffffff1673ffffffffffffffffffffffffffffffffffffffff16815260200190815260200160002060009054906101000a900460ff16905092915050565b600160003373ffffffffffffffffffffffffffffffffffffffff1673ffffffffffffffffffffffffffffffffffffffff16815260200190815260200160002060009054906101000a900460ff161515611c7457600080fd5b611c7d81612e7d565b1515611cf1576040517f08c379a00000000000000000000000000000000000000000000000000000000081526004018080602001828103825260138152602001807f456c65636369c3b36e206e6f2076616c6964610000000000000000000000000081525060200191505060405180910390fd5b60006002600083815260200190815260200160002060040154141515611d7f576040517f08c379a000000000000000000000000000000000000000000000000000000000815260040180806020018281038252600c8152602001807f48617920766f74616e746573000000000000000000000000000000000000000081525060200191505060405180910390fd5b60006002600083815260200190815260200160002060030154141515611e0d576040517f08c379a000000000000000000000000000000000000000000000000000000000815260040180806020018281038252600e8152602001807f4861792063616e64696461746f7300000000000000000000000000000000000081525060200191505060405180910390fd5b60026000828152602001908152602001600020600080820160009055600182016000611e3991906131b4565b6002820160006101000a81549060ff02191690556003820160009055600482016000905560058201600090556006820160009055505050565b600080600160003373ffffffffffffffffffffffffffffffffffffffff1673ffffffffffffffffffffffffffffffffffffffff16815260200190815260200160002060009054906101000a900460ff161515611ecd57600080fd5b611ed684612e7d565b1515611f4a576040517f08c379a00000000000000000000000000000000000000000000000000000000081526004018080602001828103825260138152602001807f456c65636369c3b36e206e6f2076616c6964610000000000000000000000000081525060200191505060405180910390fd5b611f548484611b34565b1515611fc8576040517f08c379a00000000000000000000000000000000000000000000000000000000081526004018080602001828103825260158152602001807f456c207573756172696f206e6f2065786973746521000000000000000000000081525060200191505060405180910390fd5b611fd28484610d34565b151515612047576040517f08c379a000000000000000000000000000000000000000000000000000000000815260040180806020018281038252600f8152602001807f566f74616e746520796120766f746f000000000000000000000000000000000081525060200191505060405180910390fd5b60006002600086815260200190815260200160002060090160008573ffffffffffffffffffffffffffffffffffffffff1673ffffffffffffffffffffffffffffffffffffffff16815260200190815260200160002060006101000a81548160ff0219169083151502179055506002600085815260200190815260200160002060080160008473ffffffffffffffffffffffffffffffffffffffff1673ffffffffffffffffffffffffffffffffffffffff1681526020019081526020016000206000808201600061211791906131b4565b6001820160006101000a81549060ff0219169055505060009150600090505b6002600085815260200190815260200160002060040154821115801561215a575080155b156121ec5781806001019250508273ffffffffffffffffffffffffffffffffffffffff1660026000868152602001908152602001600020600a01600084815260200190815260200160002060009054906101000a900473ffffffffffffffffffffffffffffffffffffffff1673ffffffffffffffffffffffffffffffffffffffff1614156121e757600190505b612136565b801561223d5760026000858152602001908152602001600020600a01600083815260200190815260200160002060006101000a81549073ffffffffffffffffffffffffffffffffffffffff02191690555b60026000858152602001908152602001600020600401600081548092919060019003919050555050505050565b6000600160003373ffffffffffffffffffffffffffffffffffffffff1673ffffffffffffffffffffffffffffffffffffffff16815260200190815260200160002060009054906101000a900460ff1615156122c457600080fd5b6122cd83612e7d565b1515612341576040517f08c379a00000000000000000000000000000000000000000000000000000000081526004018080602001828103825260138152602001807f456c65636369c3b36e206e6f2076616c6964610000000000000000000000000081525060200191505060405180910390fd5b60026000848152602001908152602001600020600a01600083815260200190815260200160002060009054906101000a900473ffffffffffffffffffffffffffffffffffffffff16905092915050565b600061239c82612e7d565b1515612410576040517f08c379a00000000000000000000000000000000000000000000000000000000081526004018080602001828103825260138152602001807f456c65636369c3b36e206e6f2076616c6964610000000000000000000000000081525060200191505060405180910390fd5b60026000838152602001908152602001600020600601549050919050565b6000806060600061243d6131fc565b600160003373ffffffffffffffffffffffffffffffffffffffff1673ffffffffffffffffffffffffffffffffffffffff16815260200190815260200160002060009054906101000a900460ff16151561249557600080fd5b61249e87612e7d565b1515612512576040517f08c379a00000000000000000000000000000000000000000000000000000000081526004018080602001828103825260138152602001807f456c65636369c3b36e206e6f2076616c6964610000000000000000000000000081525060200191505060405180910390fd5b6002600088815260200190815260200160002060080160008773ffffffffffffffffffffffffffffffffffffffff1673ffffffffffffffffffffffffffffffffffffffff168152602001908152602001600020604080519081016040529081600082018054600181600116156101000203166002900480601f0160208091040260200160405190810160405280929190818152602001828054600181600116156101000203166002900480156126095780601f106125de57610100808354040283529160200191612609565b820191906000526020600020905b8154815290600101906020018083116125ec57829003601f168201915b505050505081526020016001820160009054906101000a900460ff161515151581525050905086868260000151836020015181915094509450945094505092959194509250565b600061265b82612e7d565b15156126cf576040517f08c379a00000000000000000000000000000000000000000000000000000000081526004018080602001828103825260138152602001807f456c65636369c3b36e206e6f2076616c6964610000000000000000000000000081525060200191505060405180910390fd5b60026000838152602001908152602001600020600501549050919050565b6000606060008060006126fe613218565b61270787612e7d565b151561277b576040517f08c379a00000000000000000000000000000000000000000000000000000000081526004018080602001828103825260138152602001807f456c65636369c3b36e206e6f2076616c6964610000000000000000000000000081525060200191505060405180910390fd5b6002600088815260200190815260200160002060e0604051908101604052908160008201548152602001600182018054600181600116156101000203166002900480601f01602080910402602001604051908101604052809291908181526020018280546001816001161561010002031660029004801561283d5780601f106128125761010080835404028352916020019161283d565b820191906000526020600020905b81548152906001019060200180831161282057829003601f168201915b505050505081526020016002820160009054906101000a900460ff16151515158152602001600382015481526020016004820154815260200160058201548152602001600682015481525050905080600001518160200151826040015183606001518460800151839350955095509550955095505091939590929450565b6000600354905090565b600160003373ffffffffffffffffffffffffffffffffffffffff1673ffffffffffffffffffffffffffffffffffffffff16815260200190815260200160002060009054906101000a900460ff16151561291d57600080fd5b61292682612e7d565b151561299a576040517f08c379a00000000000000000000000000000000000000000000000000000000081526004018080602001828103825260138152602001807f456c65636369c3b36e206e6f2076616c6964610000000000000000000000000081525060200191505060405180910390fd5b806002600084815260200190815260200160002060020160006101000a81548160ff0219169083151502179055505050565b600160003373ffffffffffffffffffffffffffffffffffffffff1673ffffffffffffffffffffffffffffffffffffffff16815260200190815260200160002060009054906101000a900460ff161515612a2457600080fd5b612a2d82612e7d565b1515612aa1576040517f08c379a00000000000000000000000000000000000000000000000000000000081526004018080602001828103825260138152602001807f456c65636369c3b36e206e6f2076616c6964610000000000000000000000000081525060200191505060405180910390fd5b612aab8282613054565b1515612b1f576040517f08c379a00000000000000000000000000000000000000000000000000000000081526004018080602001828103825260138152602001807f43616e64696461746f206e6f2076616c69646f0000000000000000000000000081525060200191505060405180910390fd5b600260008381526020019081526020016000206003016000815480929190600190039190505550600260008381526020019081526020016000206007016000828152602001908152602001600020600080820160009055600182016000612b8691906131b4565b600282016000905550505050565b612b9d82612e7d565b1515612c11576040517f08c379a00000000000000000000000000000000000000000000000000000000081526004018080602001828103825260138152602001807f456c65636369c3b36e206e6f2076616c6964610000000000000000000000000081525060200191505060405180910390fd5b612c1b8233611b34565b1515612c8f576040517f08c379a00000000000000000000000000000000000000000000000000000000081526004018080602001828103825260118152602001807f566f74616e7465206e6f2076616c69646f00000000000000000000000000000081525060200191505060405180910390fd5b612c998233610d34565b151515612d0e576040517f08c379a000000000000000000000000000000000000000000000000000000000815260040180806020018281038252600f8152602001807f566f74616e746520796120766f746f000000000000000000000000000000000081525060200191505060405180910390fd5b612d188282613054565b1515612d8c576040517f08c379a00000000000000000000000000000000000000000000000000000000081526004018080602001828103825260138152602001807f43616e64696461746f206e6f2076616c69646f0000000000000000000000000081525060200191505060405180910390fd5b60016002600084815260200190815260200160002060080160003373ffffffffffffffffffffffffffffffffffffffff1673ffffffffffffffffffffffffffffffffffffffff16815260200190815260200160002060010160006101000a81548160ff02191690831515021790555060026000838152602001908152602001600020600701600082815260200190815260200160002060020160008154809291906001019190505550813373ffffffffffffffffffffffffffffffffffffffff167f0902475a854b82199b4f5d6b81327ec4c4ec077ce0356a106ddc2748c5285ed360405160405180910390a35050565b60008082118015612e9057506003548211155b15612e9e5760019050612ea3565b600090505b919050565b6000600160003373ffffffffffffffffffffffffffffffffffffffff1673ffffffffffffffffffffffffffffffffffffffff16815260200190815260200160002060009054906101000a900460ff161515612f0257600080fd5b612f0c8383611b34565b1515612f80576040517f08c379a00000000000000000000000000000000000000000000000000000000081526004018080602001828103825260118152602001807f566f74616e7465206e6f2076616c69646f00000000000000000000000000000081525060200191505060405180910390fd5b66470de4df820000905080612f93611999565b111515613008576040517f08c379a00000000000000000000000000000000000000000000000000000000081526004018080602001828103825260198152602001807f4e6f206861792065746865727320737566696369656e7465730000000000000081525060200191505060405180910390fd5b8173ffffffffffffffffffffffffffffffffffffffff166108fc829081150290604051600060405180830381858888f1935050505015801561304e573d6000803e3d6000fd5b50505050565b600061305f83612e7d565b15156130d3576040517f08c379a00000000000000000000000000000000000000000000000000000000081526004018080602001828103825260138152602001807f456c65636369c3b36e206e6f2076616c6964610000000000000000000000000081525060200191505060405180910390fd5b6000821180156130f9575060026000848152602001908152602001600020600501548211155b15613107576001905061310c565b600090505b92915050565b828054600181600116156101000203166002900490600052602060002090601f016020900481019282601f1061315357805160ff1916838001178555613181565b82800160010185558215613181579182015b82811115613180578251825591602001919060010190613165565b5b50905061318e9190613258565b5090565b6060604051908101604052806000815260200160608152602001600081525090565b50805460018160011615610100020316600290046000825580601f106131da57506131f9565b601f0160209004906000526020600020908101906131f89190613258565b5b50565b6040805190810160405280606081526020016000151581525090565b60e0604051908101604052806000815260200160608152602001600015158152602001600081526020016000815260200160008152602001600081525090565b61327a91905b8082111561327657600081600090555060010161325e565b5090565b905600a165627a7a7230582064f925b3d9cc77f5058bb031da5e2035a4deedf0bb9dc734a67b9766a805038d0029",
  "source": "pragma solidity ^0.4.24;\r\n\r\ncontract BEV {\r\n    address private owner; // Propietario del contrato\r\n    mapping(address => bool) public admins; // Lista de administradores\r\n\r\n    // Estructura de candidato\r\n    struct Candidate {\r\n        uint id;\r\n        string name;\r\n        uint voteCount;\r\n    }\r\n\r\n    // Estructura de votante\r\n    struct Voter {\r\n        string name;\r\n        bool voted;\r\n    }\r\n\r\n    // Estructura de eleccin\r\n    struct Election {\r\n        uint id;\r\n        string name;\r\n        bool active; // Estado de la eleccin => activa = true\r\n        uint candidatesCount;// Almacenar el recuento de los candidatos\r\n        uint votersCount; // Almacenar el recuento de los votantes\r\n        uint candidatesIndex; // Indice de candidatos, ya que al eliminar no se borra el objeto\r\n        uint votersIndex; // Indice de votanes, ya que al eliminar no se borra el objeto\r\n        mapping(uint => Candidate) candidates; // Lectura/escritura de candidatos\r\n        mapping(address => Voter) voters; // Lectura/escritura de los votantes\r\n        mapping(address => bool) joinedVoters; // Almacenar cuentas que pueden votar\r\n        mapping(uint => address) allVoters; // Lista de los votantes\r\n    }\r\n\r\n    mapping(uint => Election) private elections; // Lista de elecciones\r\n    uint private electionsCount; // Almacenar el recuento de las elecciones\r\n\r\n    // evento de voto\r\n    event VotedEvent (\r\n        address indexed _account,\r\n        uint indexed _idElection\r\n    );\r\n\r\n    // Validar si es propietario\r\n    modifier isOwner(){\r\n        require(owner == msg.sender);\r\n        _;\r\n    }\r\n\r\n    // Validar si es administrador\r\n    modifier isAdmin(){\r\n        require(admins[msg.sender]);\r\n        _;\r\n    }\r\n\r\n    constructor () public {\r\n        owner = msg.sender; // Quien publica el contrato es el dueo\r\n        admins[msg.sender] = true; // Es administrador tambien\r\n    }\r\n\r\n    // Agregar un administrador\r\n    function addAdmin(address _addr) public isOwner {\r\n        require(!admins[_addr], \"Ya es administrador.\");\r\n        admins[_addr] = true;\r\n    }\r\n\r\n    // Quitar un administrador\r\n    function deleteAdmin(address _addr) public isOwner {\r\n        require(admins[_addr], \"No es administrador.\");\r\n        admins[_addr] = false;\r\n    }\r\n\r\n    // Agregar una eleccin\r\n    function addElection(string _name) public isAdmin payable {\r\n        require(msg.value > 0 ether);\r\n        electionsCount++;\r\n        elections[electionsCount] = Election(electionsCount, _name, false, 0, 0, 0, 0);\r\n        //elections.push(Election(_name, false, 0, 0));\r\n    }\r\n\r\n    // Obtener detalles de una eleccin\r\n    function getElection(uint _idElection) public view returns(uint, string, bool, uint, uint) {\r\n        require(electionIsValid(_idElection), \"Eleccin no valida\");\r\n        Election memory election = elections[_idElection];\r\n        return (election.id, election.name, election.active, election.candidatesCount, election.votersCount);\r\n    }\r\n\r\n    // Activar una eleccin\r\n    function activeElection(uint _idElection, bool _active) public isAdmin {\r\n        require(electionIsValid(_idElection), \"Eleccin no valida\");\r\n        elections[_idElection].active = _active;\r\n    }\r\n\r\n   // Eliminar una eleccin\r\n    function deleteElection(uint _idElection) public isAdmin {\r\n        require(electionIsValid(_idElection), \"Eleccin no valida\");\r\n        require(elections[_idElection].votersCount == 0,\"Hay votantes\");\r\n        require(elections[_idElection].candidatesCount == 0, \"Hay candidatos\");\r\n        //electionsCount--;\r\n        delete elections[_idElection];\r\n    }\r\n\r\n    // Devuelve la cantidad de elecciones que hay en el contrato\r\n    function getTotalElections() public view returns(uint) {\r\n        return electionsCount;\r\n    }\r\n\r\n    // Comprobar si la eleccion es valida\r\n    function electionIsValid(uint _idElection) private view returns(bool) {\r\n        if(_idElection > 0 && _idElection <= electionsCount)\r\n            return true;\r\n\r\n        return false;\r\n    }\r\n\r\n    // Agregar un candidato\r\n    function addCandidate (uint _idElection, string _name) public isAdmin {\r\n        require(electionIsValid(_idElection), \"Eleccin no valida\");\r\n        elections[_idElection].candidatesCount++;\r\n        elections[_idElection].candidatesIndex++;\r\n        elections[_idElection].candidates[elections[_idElection].candidatesIndex] = Candidate(elections[_idElection].candidatesIndex, _name, 0);\r\n    }\r\n\r\n    // Obtener un candidato\r\n    function getCandidate(uint _idElection, uint _idCandidate) public view returns(uint, uint, string, uint) {\r\n        require(electionIsValid(_idElection), \"Eleccin no valida\");\r\n        require(candidateIsValid(_idElection, _idCandidate), \"Candidato no valido\");\r\n        Candidate memory candidate = elections[_idElection].candidates[_idCandidate];\r\n        return (_idElection, candidate.id, candidate.name, candidate.voteCount);\r\n    }\r\n\r\n   // Eliminar un candidato\r\n    function deleteCandidate(uint _idElection, uint _idCandidate) public isAdmin {\r\n        require(electionIsValid(_idElection), \"Eleccin no valida\");\r\n        require(candidateIsValid(_idElection, _idCandidate), \"Candidato no valido\");\r\n        elections[_idElection].candidatesCount--;\r\n        delete elections[_idElection].candidates[_idCandidate];\r\n    }\r\n\r\n    // Obtener la cantidad de candidatos de una eleccin\r\n    function getCandidatesCount (uint _idElection) public view returns(uint){\r\n        require(electionIsValid(_idElection), \"Eleccin no valida\");\r\n        return elections[_idElection].candidatesCount;\r\n    }\r\n\r\n    function getCandidatesIndex (uint _idElection) public view returns(uint){\r\n        require(electionIsValid(_idElection), \"Eleccin no valida\");\r\n        return elections[_idElection].candidatesIndex;\r\n    }\r\n\r\n    // Comprobar si el candidato es valido\r\n    function candidateIsValid(uint _idElection, uint _idCandidate) private view returns(bool) {\r\n        require(electionIsValid(_idElection), \"Eleccin no valida\");\r\n        if(_idCandidate > 0 && _idCandidate <= elections[_idElection].candidatesIndex)\r\n            return true;\r\n\r\n        return false;\r\n    }\r\n\r\n    // Agregar un votante\r\n    function addVoter (uint _idElection, address _addr, string _name) public isAdmin {\r\n        require(electionIsValid(_idElection), \"Eleccin no valida\");\r\n        elections[_idElection].votersCount++;\r\n        elections[_idElection].votersIndex++;\r\n        elections[_idElection].voters[_addr] = Voter(_name, false);\r\n        elections[_idElection].joinedVoters[_addr] = true;\r\n        elections[_idElection].allVoters[elections[_idElection].votersIndex] = _addr;\r\n        getEthersForVoting(_idElection, _addr);\r\n    }\r\n\r\n    // Comprobar si el votante esta en el padrn\r\n    function voterIsJoined(uint _idElection, address _addr) public view returns(bool) {\r\n        require(electionIsValid(_idElection), \"Eleccin no valida\");\r\n        return elections[_idElection].joinedVoters[_addr];\r\n    }\r\n\r\n    // Obtengo la cuenta de un votante segn su posicin\r\n    function getAddressVoter(uint _idElection, uint _index) public isAdmin view returns(address) {\r\n        require(electionIsValid(_idElection), \"Eleccin no valida\");\r\n        return elections[_idElection].allVoters[_index];\r\n    }\r\n\r\n    // Obtengo un votante\r\n    function getVoter(uint _idElection, address _addr) public isAdmin view returns(uint, address, string, bool) {\r\n        require(electionIsValid(_idElection), \"Eleccin no valida\");\r\n        //require(voterIsJoined(_idElection, _addr), \"Votante no valido\");\r\n        Voter memory voter = elections[_idElection].voters[_addr];\r\n        return (_idElection, _addr, voter.name, voter.voted);\r\n    }\r\n\r\n   // Eliminar votante\r\n    function deleteVoter(uint _idElection, address _addr) public isAdmin {\r\n        require(electionIsValid(_idElection), \"Eleccin no valida\");\r\n        require(voterIsJoined(_idElection, _addr),\"El usuario no existe!\");\r\n        require(!voterHasVoted(_idElection, _addr), \"Votante ya voto\");\r\n        elections[_idElection].joinedVoters[_addr] = false;\r\n        delete elections[_idElection].voters[_addr];\r\n\r\n        uint i = 0;\r\n        bool encontro = false;\r\n        while ((i <= elections[_idElection].votersCount) && !encontro){\r\n            i++;\r\n            if(elections[_idElection].allVoters[i] == _addr)\r\n                encontro = true;\r\n\r\n        }\r\n       \r\n        if(encontro)\r\n            delete elections[_idElection].allVoters[i];\r\n\r\n        elections[_idElection].votersCount--;\r\n    }\r\n\r\n    // Obtener la cantidad de votantes de la eleccin\r\n    function getVotersCount (uint _idElection) public view returns(uint){\r\n        require(electionIsValid(_idElection), \"Eleccin no valida\");\r\n        return elections[_idElection].votersCount;\r\n    }\r\n\r\n    function getVotersIndex (uint _idElection) public view returns(uint){\r\n        require(electionIsValid(_idElection), \"Eleccin no valida\");\r\n        return elections[_idElection].votersIndex;\r\n    }\r\n\r\n    // Votar\r\n    function voting (uint _idElection, uint _idCandidate) public {\r\n        require(electionIsValid(_idElection), \"Eleccin no valida\"); // Requerir una eleccin vlida\r\n        // Exigir que sea un votante valido y que no haya votado antes\r\n        require(voterIsJoined(_idElection, msg.sender), \"Votante no valido\");\r\n        require(!voterHasVoted(_idElection, msg.sender), \"Votante ya voto\");\r\n        require(candidateIsValid(_idElection, _idCandidate), \"Candidato no valido\"); // Requerir un candidato vlido\r\n        elections[_idElection].voters[msg.sender].voted = true; // Registro de que el votante ha votado\r\n        elections[_idElection].candidates[_idCandidate].voteCount++; // Registro de que el votante ha votado\r\n        emit VotedEvent(msg.sender, _idElection); // Evento desencadenante del voto\r\n    }\r\n\r\n    // Comprobar si el votante ya voto\r\n    function voterHasVoted(uint _idElection, address _addr) public view returns(bool) {\r\n        require(electionIsValid(_idElection), \"Eleccin no valida\");\r\n        require(voterIsJoined(_idElection, _addr), \"Votante no valido\");\r\n        return elections[_idElection].voters[_addr].voted;\r\n    }\r\n\r\n    // Resultado de la votacin\r\n    function getResultElection(uint _idElection) public view returns(uint) {\r\n        require(electionIsValid(_idElection), \"Eleccin no valida\");\r\n        uint idGanadorActual = elections[_idElection].candidates[1].id;\r\n        uint votosGanadorActual = elections[_idElection].candidates[1].voteCount;\r\n        for(uint i = 2; i <= elections[_idElection].candidatesIndex; i++) {\r\n            if(elections[_idElection].candidates[i].voteCount > votosGanadorActual) {\r\n                idGanadorActual = elections[_idElection].candidates[i].id;\r\n                votosGanadorActual = elections[_idElection].candidates[i].voteCount;\r\n            }\r\n            else {\r\n                if(elections[_idElection].candidates[i].voteCount == votosGanadorActual)\r\n                    idGanadorActual = 0;\r\n            }\r\n        }\r\n        return idGanadorActual;\r\n    }\r\n\r\n    // Transferir etheres para poder votar\r\n    function getEthersForVoting(uint _idElection, address _addr) isAdmin private {\r\n        require(voterIsJoined(_idElection, _addr), \"Votante no valido\");\r\n        uint monto = 20000000000000000;\r\n        require(getContractBalance() > monto, \"No hay ethers suficientes\");\r\n        _addr.transfer(monto);\r\n    }\r\n\r\n    // Transferir los fondos del contrato\r\n    function transferFromContract(address _addr, uint amount) public isOwner {\r\n        require(getContractBalance() > amount, \"No hay ethers suficientes\");\r\n        _addr.transfer(amount);\r\n    }\r\n\r\n    // Obtener el balance del SmartContract\r\n    function getContractBalance() public view returns (uint) {\r\n        address BEVAddress = this;\r\n        return BEVAddress.balance;\r\n    }\r\n\r\n}",
  "sourcePath": "/Users/martinober/Documents/blockchain-electronic-voting/contracts/BEV.sol",
  "compiler": {
    "name": "solc",
    "version": "0.4.25+commit.59dbf8f1.Emscripten.clang"
  },
  "schemaVersion": "2.0.2",
  "updatedAt": "2020-03-02T23:44:46.199Z"
}