{
  "contractName": "BEV",
  "abi": [
    {
      "constant": true,
      "inputs": [
        {
          "name": "",
          "type": "address"
        }
      ],
      "name": "admins",
      "outputs": [
        {
          "name": "",
          "type": "bool"
        }
      ],
      "payable": false,
      "stateMutability": "view",
      "type": "function"
    },
    {
      "inputs": [],
      "payable": false,
      "stateMutability": "nonpayable",
      "type": "constructor"
    },
    {
      "anonymous": false,
      "inputs": [
        {
          "indexed": true,
          "name": "_account",
          "type": "address"
        },
        {
          "indexed": false,
          "name": "_idElection",
          "type": "uint256"
        }
      ],
      "name": "VotedEvent",
      "type": "event"
    },
    {
      "constant": false,
      "inputs": [
        {
          "name": "_addr",
          "type": "address"
        }
      ],
      "name": "addAdmin",
      "outputs": [],
      "payable": false,
      "stateMutability": "nonpayable",
      "type": "function"
    },
    {
      "constant": false,
      "inputs": [
        {
          "name": "_addr",
          "type": "address"
        }
      ],
      "name": "deleteAdmin",
      "outputs": [],
      "payable": false,
      "stateMutability": "nonpayable",
      "type": "function"
    },
    {
      "constant": false,
      "inputs": [
        {
          "name": "_name",
          "type": "string"
        }
      ],
      "name": "addElection",
      "outputs": [],
      "payable": true,
      "stateMutability": "payable",
      "type": "function"
    },
    {
      "constant": true,
      "inputs": [
        {
          "name": "_idElection",
          "type": "uint256"
        }
      ],
      "name": "getElection",
      "outputs": [
        {
          "name": "",
          "type": "uint256"
        },
        {
          "name": "",
          "type": "string"
        },
        {
          "name": "",
          "type": "bool"
        },
        {
          "name": "",
          "type": "uint256"
        },
        {
          "name": "",
          "type": "uint256"
        }
      ],
      "payable": false,
      "stateMutability": "view",
      "type": "function"
    },
    {
      "constant": false,
      "inputs": [
        {
          "name": "_idElection",
          "type": "uint256"
        },
        {
          "name": "_active",
          "type": "bool"
        }
      ],
      "name": "activeElection",
      "outputs": [],
      "payable": false,
      "stateMutability": "nonpayable",
      "type": "function"
    },
    {
      "constant": false,
      "inputs": [
        {
          "name": "_idElection",
          "type": "uint256"
        }
      ],
      "name": "deleteElection",
      "outputs": [],
      "payable": false,
      "stateMutability": "nonpayable",
      "type": "function"
    },
    {
      "constant": true,
      "inputs": [],
      "name": "getTotalElections",
      "outputs": [
        {
          "name": "",
          "type": "uint256"
        }
      ],
      "payable": false,
      "stateMutability": "view",
      "type": "function"
    },
    {
      "constant": false,
      "inputs": [
        {
          "name": "_idElection",
          "type": "uint256"
        },
        {
          "name": "_name",
          "type": "string"
        }
      ],
      "name": "addCandidate",
      "outputs": [],
      "payable": false,
      "stateMutability": "nonpayable",
      "type": "function"
    },
    {
      "constant": true,
      "inputs": [
        {
          "name": "_idElection",
          "type": "uint256"
        },
        {
          "name": "_idCandidate",
          "type": "uint256"
        }
      ],
      "name": "getCandidate",
      "outputs": [
        {
          "name": "",
          "type": "uint256"
        },
        {
          "name": "",
          "type": "uint256"
        },
        {
          "name": "",
          "type": "string"
        },
        {
          "name": "",
          "type": "uint256"
        }
      ],
      "payable": false,
      "stateMutability": "view",
      "type": "function"
    },
    {
      "constant": false,
      "inputs": [
        {
          "name": "_idElection",
          "type": "uint256"
        },
        {
          "name": "_idCandidate",
          "type": "uint256"
        }
      ],
      "name": "deleteCandidate",
      "outputs": [],
      "payable": false,
      "stateMutability": "nonpayable",
      "type": "function"
    },
    {
      "constant": true,
      "inputs": [
        {
          "name": "_idElection",
          "type": "uint256"
        }
      ],
      "name": "getCandidatesCount",
      "outputs": [
        {
          "name": "",
          "type": "uint256"
        }
      ],
      "payable": false,
      "stateMutability": "view",
      "type": "function"
    },
    {
      "constant": true,
      "inputs": [
        {
          "name": "_idElection",
          "type": "uint256"
        }
      ],
      "name": "getCandidatesIndex",
      "outputs": [
        {
          "name": "",
          "type": "uint256"
        }
      ],
      "payable": false,
      "stateMutability": "view",
      "type": "function"
    },
    {
      "constant": false,
      "inputs": [
        {
          "name": "_idElection",
          "type": "uint256"
        },
        {
          "name": "_addr",
          "type": "address"
        },
        {
          "name": "_name",
          "type": "string"
        },
        {
          "name": "_monto",
          "type": "uint256"
        }
      ],
      "name": "addVoter",
      "outputs": [],
      "payable": false,
      "stateMutability": "nonpayable",
      "type": "function"
    },
    {
      "constant": true,
      "inputs": [
        {
          "name": "_idElection",
          "type": "uint256"
        },
        {
          "name": "_addr",
          "type": "address"
        }
      ],
      "name": "voterIsJoined",
      "outputs": [
        {
          "name": "",
          "type": "bool"
        }
      ],
      "payable": false,
      "stateMutability": "view",
      "type": "function"
    },
    {
      "constant": true,
      "inputs": [
        {
          "name": "_idElection",
          "type": "uint256"
        },
        {
          "name": "_index",
          "type": "uint256"
        }
      ],
      "name": "getAddressVoter",
      "outputs": [
        {
          "name": "",
          "type": "address"
        }
      ],
      "payable": false,
      "stateMutability": "view",
      "type": "function"
    },
    {
      "constant": true,
      "inputs": [
        {
          "name": "_idElection",
          "type": "uint256"
        },
        {
          "name": "_addr",
          "type": "address"
        }
      ],
      "name": "getVoter",
      "outputs": [
        {
          "name": "",
          "type": "uint256"
        },
        {
          "name": "",
          "type": "address"
        },
        {
          "name": "",
          "type": "string"
        },
        {
          "name": "",
          "type": "bool"
        }
      ],
      "payable": false,
      "stateMutability": "view",
      "type": "function"
    },
    {
      "constant": false,
      "inputs": [
        {
          "name": "_idElection",
          "type": "uint256"
        },
        {
          "name": "_addr",
          "type": "address"
        }
      ],
      "name": "deleteVoter",
      "outputs": [],
      "payable": false,
      "stateMutability": "nonpayable",
      "type": "function"
    },
    {
      "constant": true,
      "inputs": [
        {
          "name": "_idElection",
          "type": "uint256"
        }
      ],
      "name": "getVotersCount",
      "outputs": [
        {
          "name": "",
          "type": "uint256"
        }
      ],
      "payable": false,
      "stateMutability": "view",
      "type": "function"
    },
    {
      "constant": true,
      "inputs": [
        {
          "name": "_idElection",
          "type": "uint256"
        }
      ],
      "name": "getVotersIndex",
      "outputs": [
        {
          "name": "",
          "type": "uint256"
        }
      ],
      "payable": false,
      "stateMutability": "view",
      "type": "function"
    },
    {
      "constant": false,
      "inputs": [
        {
          "name": "_idElection",
          "type": "uint256"
        },
        {
          "name": "_idCandidate",
          "type": "uint256"
        }
      ],
      "name": "voting",
      "outputs": [],
      "payable": false,
      "stateMutability": "nonpayable",
      "type": "function"
    },
    {
      "constant": true,
      "inputs": [
        {
          "name": "_idElection",
          "type": "uint256"
        },
        {
          "name": "_addr",
          "type": "address"
        }
      ],
      "name": "voterHasVoted",
      "outputs": [
        {
          "name": "",
          "type": "bool"
        }
      ],
      "payable": false,
      "stateMutability": "view",
      "type": "function"
    },
    {
      "constant": true,
      "inputs": [
        {
          "name": "_idElection",
          "type": "uint256"
        }
      ],
      "name": "getResultElection",
      "outputs": [
        {
          "name": "",
          "type": "uint256"
        }
      ],
      "payable": false,
      "stateMutability": "view",
      "type": "function"
    },
    {
      "constant": false,
      "inputs": [
        {
          "name": "_addr",
          "type": "address"
        },
        {
          "name": "amount",
          "type": "uint256"
        }
      ],
      "name": "transferFromContract",
      "outputs": [],
      "payable": false,
      "stateMutability": "nonpayable",
      "type": "function"
    },
    {
      "constant": true,
      "inputs": [],
      "name": "getContractBalance",
      "outputs": [
        {
          "name": "",
          "type": "uint256"
        }
      ],
      "payable": false,
      "stateMutability": "view",
      "type": "function"
    }
  ],
  "bytecode": "0x608060405234801561001057600080fd5b50336000806101000a81548173ffffffffffffffffffffffffffffffffffffffff021916908373ffffffffffffffffffffffffffffffffffffffff16021790555060018060003373ffffffffffffffffffffffffffffffffffffffff1673ffffffffffffffffffffffffffffffffffffffff16815260200190815260200160002060006101000a81548160ff0219169083151502179055506132b0806100b76000396000f300608060405260043610610149576000357c0100000000000000000000000000000000000000000000000000000000900463ffffffff1680630b713f291461014e5780631750a3d0146101b35780631a88f306146102265780631de66c931461027357806327e1f7df146102b4578063358b9d97146102f75780633ee95f0014610353578063429b62e51461039457806344c25611146103ef578063452cf3c81461048c5780634bd46448146104cd5780636f9fb98a1461059257806370480275146105bd578063709be96a14610600578063740c47d4146106655780637569f2b514610692578063826374e6146106df5780638de720cf146107565780638f47b146146107975780639b7c0820146108a25780639d710777146108e3578063a9392e0c146109a9578063bdd03295146109d4578063cf4a606014610a0d578063cfaad27c14610a44575b600080fd5b34801561015a57600080fd5b5061019960048036038101908080359060200190929190803573ffffffffffffffffffffffffffffffffffffffff169060200190929190505050610a7b565b604051808215151515815260200191505060405180910390f35b3480156101bf57600080fd5b5061022460048036038101908080359060200190929190803590602001908201803590602001908080601f0160208091040260200160405190810160405280939291908181526020018383808284378201915050505050509192919290505050610be4565b005b34801561023257600080fd5b50610271600480360381019080803573ffffffffffffffffffffffffffffffffffffffff16906020019092919080359060200190929190505050610dad565b005b34801561027f57600080fd5b5061029e60048036038101908080359060200190929190505050610ece565b6040518082815260200191505060405180910390f35b3480156102c057600080fd5b506102f5600480360381019080803573ffffffffffffffffffffffffffffffffffffffff169060200190929190505050610f6b565b005b610351600480360381019080803590602001908201803590602001908080601f01602080910402602001604051908101604052809392919081815260200183838082843782019150505050505091929192905050506110e2565b005b34801561035f57600080fd5b5061037e60048036038101908080359060200190929190505050611222565b6040518082815260200191505060405180910390f35b3480156103a057600080fd5b506103d5600480360381019080803573ffffffffffffffffffffffffffffffffffffffff1690602001909291905050506112bf565b604051808215151515815260200191505060405180910390f35b3480156103fb57600080fd5b5061048a60048036038101908080359060200190929190803573ffffffffffffffffffffffffffffffffffffffff169060200190929190803590602001908201803590602001908080601f0160208091040260200160405190810160405280939291908181526020018383808284378201915050505050509192919290803590602001909291905050506112df565b005b34801561049857600080fd5b506104b7600480360381019080803590602001909291905050506115a4565b6040518082815260200191505060405180910390f35b3480156104d957600080fd5b506105026004803603810190808035906020019092919080359060200190929190505050611788565b6040518085815260200184815260200180602001838152602001828103825284818151815260200191508051906020019080838360005b83811015610554578082015181840152602081019050610539565b50505050905090810190601f1680156105815780820380516001836020036101000a031916815260200191505b509550505050505060405180910390f35b34801561059e57600080fd5b506105a76119a2565b6040518082815260200191505060405180910390f35b3480156105c957600080fd5b506105fe600480360381019080803573ffffffffffffffffffffffffffffffffffffffff1690602001909291905050506119c6565b005b34801561060c57600080fd5b5061064b60048036038101908080359060200190929190803573ffffffffffffffffffffffffffffffffffffffff169060200190929190505050611b3d565b604051808215151515815260200191505060405180910390f35b34801561067157600080fd5b5061069060048036038101908080359060200190929190505050611c25565b005b34801561069e57600080fd5b506106dd60048036038101908080359060200190929190803573ffffffffffffffffffffffffffffffffffffffff169060200190929190505050611e7b565b005b3480156106eb57600080fd5b506107146004803603810190808035906020019092919080359060200190929190505050612273565b604051808273ffffffffffffffffffffffffffffffffffffffff1673ffffffffffffffffffffffffffffffffffffffff16815260200191505060405180910390f35b34801561076257600080fd5b506107816004803603810190808035906020019092919050505061239a565b6040518082815260200191505060405180910390f35b3480156107a357600080fd5b506107e260048036038101908080359060200190929190803573ffffffffffffffffffffffffffffffffffffffff169060200190929190505050612437565b604051808581526020018473ffffffffffffffffffffffffffffffffffffffff1673ffffffffffffffffffffffffffffffffffffffff1681526020018060200183151515158152602001828103825284818151815260200191508051906020019080838360005b83811015610864578082015181840152602081019050610849565b50505050905090810190601f1680156108915780820380516001836020036101000a031916815260200191505b509550505050505060405180910390f35b3480156108ae57600080fd5b506108cd60048036038101908080359060200190929190505050612659565b6040518082815260200191505060405180910390f35b3480156108ef57600080fd5b5061090e600480360381019080803590602001909291905050506126f6565b604051808681526020018060200185151515158152602001848152602001838152602001828103825286818151815260200191508051906020019080838360005b8381101561096a57808201518184015260208101905061094f565b50505050905090810190601f1680156109975780820380516001836020036101000a031916815260200191505b50965050505050505060405180910390f35b3480156109b557600080fd5b506109be6128c4565b6040518082815260200191505060405180910390f35b3480156109e057600080fd5b50610a0b600480360381019080803590602001909291908035151590602001909291905050506128ce565b005b348015610a1957600080fd5b50610a4260048036038101908080359060200190929190803590602001909291905050506129d5565b005b348015610a5057600080fd5b50610a796004803603810190808035906020019092919080359060200190929190505050612b9d565b005b6000610a8683612e90565b1515610afa576040517f08c379a00000000000000000000000000000000000000000000000000000000081526004018080602001828103825260138152602001807f456c65636369c3b36e206e6f2076616c6964610000000000000000000000000081525060200191505060405180910390fd5b610b048383611b3d565b1515610b78576040517f08c379a00000000000000000000000000000000000000000000000000000000081526004018080602001828103825260118152602001807f566f74616e7465206e6f2076616c69646f00000000000000000000000000000081525060200191505060405180910390fd5b6002600084815260200190815260200160002060080160008373ffffffffffffffffffffffffffffffffffffffff1673ffffffffffffffffffffffffffffffffffffffff16815260200190815260200160002060010160009054906101000a900460ff16905092915050565b600160003373ffffffffffffffffffffffffffffffffffffffff1673ffffffffffffffffffffffffffffffffffffffff16815260200190815260200160002060009054906101000a900460ff161515610c3c57600080fd5b610c4582612e90565b1515610cb9576040517f08c379a00000000000000000000000000000000000000000000000000000000081526004018080602001828103825260138152602001807f456c65636369c3b36e206e6f2076616c6964610000000000000000000000000081525060200191505060405180910390fd5b6002600083815260200190815260200160002060030160008154809291906001019190505550600260008381526020019081526020016000206005016000815480929190600101919050555060606040519081016040528060026000858152602001908152602001600020600501548152602001828152602001600081525060026000848152602001908152602001600020600701600060026000868152602001908152602001600020600501548152602001908152602001600020600082015181600001556020820151816001019080519060200190610d9b929190613119565b50604082015181600201559050505050565b600160003373ffffffffffffffffffffffffffffffffffffffff1673ffffffffffffffffffffffffffffffffffffffff16815260200190815260200160002060009054906101000a900460ff161515610e0557600080fd5b80610e0e6119a2565b111515610e83576040517f08c379a00000000000000000000000000000000000000000000000000000000081526004018080602001828103825260198152602001807f4e6f206861792065746865727320737566696369656e7465730000000000000081525060200191505060405180910390fd5b8173ffffffffffffffffffffffffffffffffffffffff166108fc829081150290604051600060405180830381858888f19350505050158015610ec9573d6000803e3d6000fd5b505050565b6000610ed982612e90565b1515610f4d576040517f08c379a00000000000000000000000000000000000000000000000000000000081526004018080602001828103825260138152602001807f456c65636369c3b36e206e6f2076616c6964610000000000000000000000000081525060200191505060405180910390fd5b60026000838152602001908152602001600020600401549050919050565b3373ffffffffffffffffffffffffffffffffffffffff166000809054906101000a900473ffffffffffffffffffffffffffffffffffffffff1673ffffffffffffffffffffffffffffffffffffffff16141515610fc657600080fd5b600160008273ffffffffffffffffffffffffffffffffffffffff1673ffffffffffffffffffffffffffffffffffffffff16815260200190815260200160002060009054906101000a900460ff161515611087576040517f08c379a00000000000000000000000000000000000000000000000000000000081526004018080602001828103825260148152602001807f4e6f2065732061646d696e6973747261646f722e00000000000000000000000081525060200191505060405180910390fd5b6000600160008373ffffffffffffffffffffffffffffffffffffffff1673ffffffffffffffffffffffffffffffffffffffff16815260200190815260200160002060006101000a81548160ff02191690831515021790555050565b600160003373ffffffffffffffffffffffffffffffffffffffff1673ffffffffffffffffffffffffffffffffffffffff16815260200190815260200160002060009054906101000a900460ff16151561113a57600080fd5b60003411151561114957600080fd5b60036000815480929190600101919050555060e060405190810160405280600354815260200182815260200160001515815260200160008152602001600081526020016000815260200160008152506002600060035481526020019081526020016000206000820151816000015560208201518160010190805190602001906111d3929190613119565b5060408201518160020160006101000a81548160ff021916908315150217905550606082015181600301556080820151816004015560a0820151816005015560c0820151816006015590505050565b600061122d82612e90565b15156112a1576040517f08c379a00000000000000000000000000000000000000000000000000000000081526004018080602001828103825260138152602001807f456c65636369c3b36e206e6f2076616c6964610000000000000000000000000081525060200191505060405180910390fd5b60026000838152602001908152602001600020600301549050919050565b60016020528060005260406000206000915054906101000a900460ff1681565b600160003373ffffffffffffffffffffffffffffffffffffffff1673ffffffffffffffffffffffffffffffffffffffff16815260200190815260200160002060009054906101000a900460ff16151561133757600080fd5b61134084612e90565b15156113b4576040517f08c379a00000000000000000000000000000000000000000000000000000000081526004018080602001828103825260138152602001807f456c65636369c3b36e206e6f2076616c6964610000000000000000000000000081525060200191505060405180910390fd5b600260008581526020019081526020016000206004016000815480929190600101919050555060026000858152602001908152602001600020600601600081548092919060010191905055506040805190810160405280838152602001600015158152506002600086815260200190815260200160002060080160008573ffffffffffffffffffffffffffffffffffffffff1673ffffffffffffffffffffffffffffffffffffffff1681526020019081526020016000206000820151816000019080519060200190611487929190613119565b5060208201518160010160006101000a81548160ff02191690831515021790555090505060016002600086815260200190815260200160002060090160008573ffffffffffffffffffffffffffffffffffffffff1673ffffffffffffffffffffffffffffffffffffffff16815260200190815260200160002060006101000a81548160ff0219169083151502179055508260026000868152602001908152602001600020600a0160006002600088815260200190815260200160002060060154815260200190815260200160002060006101000a81548173ffffffffffffffffffffffffffffffffffffffff021916908373ffffffffffffffffffffffffffffffffffffffff16021790555061159e848483612ebb565b50505050565b6000806000806115b385612e90565b1515611627576040517f08c379a00000000000000000000000000000000000000000000000000000000081526004018080602001828103825260138152602001807f456c65636369c3b36e206e6f2076616c6964610000000000000000000000000081525060200191505060405180910390fd5b6002600086815260200190815260200160002060070160006001815260200190815260200160002060000154925060026000868152602001908152602001600020600701600060018152602001908152602001600020600201549150600290505b60026000868152602001908152602001600020600501548111151561177d578160026000878152602001908152602001600020600701600083815260200190815260200160002060020154111561173857600260008681526020019081526020016000206007016000828152602001908152602001600020600001549250600260008681526020019081526020016000206007016000828152602001908152602001600020600201549150611770565b8160026000878152602001908152602001600020600701600083815260200190815260200160002060020154141561176f57600092505b5b8080600101915050611688565b829350505050919050565b60008060606000611797613199565b6117a087612e90565b1515611814576040517f08c379a00000000000000000000000000000000000000000000000000000000081526004018080602001828103825260138152602001807f456c65636369c3b36e206e6f2076616c6964610000000000000000000000000081525060200191505060405180910390fd5b61181e878761305b565b1515611892576040517f08c379a00000000000000000000000000000000000000000000000000000000081526004018080602001828103825260138152602001807f43616e64696461746f206e6f2076616c69646f0000000000000000000000000081525060200191505060405180910390fd5b6002600088815260200190815260200160002060070160008781526020019081526020016000206060604051908101604052908160008201548152602001600182018054600181600116156101000203166002900480601f0160208091040260200160405190810160405280929190818152602001828054600181600116156101000203166002900480156119685780601f1061193d57610100808354040283529160200191611968565b820191906000526020600020905b81548152906001019060200180831161194b57829003601f168201915b5050505050815260200160028201548152505090508681600001518260200151836040015181915094509450945094505092959194509250565b6000803090508073ffffffffffffffffffffffffffffffffffffffff163191505090565b3373ffffffffffffffffffffffffffffffffffffffff166000809054906101000a900473ffffffffffffffffffffffffffffffffffffffff1673ffffffffffffffffffffffffffffffffffffffff16141515611a2157600080fd5b600160008273ffffffffffffffffffffffffffffffffffffffff1673ffffffffffffffffffffffffffffffffffffffff16815260200190815260200160002060009054906101000a900460ff16151515611ae3576040517f08c379a00000000000000000000000000000000000000000000000000000000081526004018080602001828103825260148152602001807f59612065732061646d696e6973747261646f722e00000000000000000000000081525060200191505060405180910390fd5b60018060008373ffffffffffffffffffffffffffffffffffffffff1673ffffffffffffffffffffffffffffffffffffffff16815260200190815260200160002060006101000a81548160ff02191690831515021790555050565b6000611b4883612e90565b1515611bbc576040517f08c379a00000000000000000000000000000000000000000000000000000000081526004018080602001828103825260138152602001807f456c65636369c3b36e206e6f2076616c6964610000000000000000000000000081525060200191505060405180910390fd5b6002600084815260200190815260200160002060090160008373ffffffffffffffffffffffffffffffffffffffff1673ffffffffffffffffffffffffffffffffffffffff16815260200190815260200160002060009054906101000a900460ff16905092915050565b600160003373ffffffffffffffffffffffffffffffffffffffff1673ffffffffffffffffffffffffffffffffffffffff16815260200190815260200160002060009054906101000a900460ff161515611c7d57600080fd5b611c8681612e90565b1515611cfa576040517f08c379a00000000000000000000000000000000000000000000000000000000081526004018080602001828103825260138152602001807f456c65636369c3b36e206e6f2076616c6964610000000000000000000000000081525060200191505060405180910390fd5b60006002600083815260200190815260200160002060040154141515611d88576040517f08c379a000000000000000000000000000000000000000000000000000000000815260040180806020018281038252600c8152602001807f48617920766f74616e746573000000000000000000000000000000000000000081525060200191505060405180910390fd5b60006002600083815260200190815260200160002060030154141515611e16576040517f08c379a000000000000000000000000000000000000000000000000000000000815260040180806020018281038252600e8152602001807f4861792063616e64696461746f7300000000000000000000000000000000000081525060200191505060405180910390fd5b60026000828152602001908152602001600020600080820160009055600182016000611e4291906131bb565b6002820160006101000a81549060ff02191690556003820160009055600482016000905560058201600090556006820160009055505050565b600080600160003373ffffffffffffffffffffffffffffffffffffffff1673ffffffffffffffffffffffffffffffffffffffff16815260200190815260200160002060009054906101000a900460ff161515611ed657600080fd5b611edf84612e90565b1515611f53576040517f08c379a00000000000000000000000000000000000000000000000000000000081526004018080602001828103825260138152602001807f456c65636369c3b36e206e6f2076616c6964610000000000000000000000000081525060200191505060405180910390fd5b611f5d8484611b3d565b1515611fd1576040517f08c379a00000000000000000000000000000000000000000000000000000000081526004018080602001828103825260158152602001807f456c207573756172696f206e6f2065786973746521000000000000000000000081525060200191505060405180910390fd5b611fdb8484610a7b565b151515612050576040517f08c379a000000000000000000000000000000000000000000000000000000000815260040180806020018281038252600f8152602001807f566f74616e746520796120766f746f000000000000000000000000000000000081525060200191505060405180910390fd5b60006002600086815260200190815260200160002060090160008573ffffffffffffffffffffffffffffffffffffffff1673ffffffffffffffffffffffffffffffffffffffff16815260200190815260200160002060006101000a81548160ff0219169083151502179055506002600085815260200190815260200160002060080160008473ffffffffffffffffffffffffffffffffffffffff1673ffffffffffffffffffffffffffffffffffffffff1681526020019081526020016000206000808201600061212091906131bb565b6001820160006101000a81549060ff0219169055505060009150600090505b60026000858152602001908152602001600020600401548211158015612163575080155b156121f55781806001019250508273ffffffffffffffffffffffffffffffffffffffff1660026000868152602001908152602001600020600a01600084815260200190815260200160002060009054906101000a900473ffffffffffffffffffffffffffffffffffffffff1673ffffffffffffffffffffffffffffffffffffffff1614156121f057600190505b61213f565b80156122465760026000858152602001908152602001600020600a01600083815260200190815260200160002060006101000a81549073ffffffffffffffffffffffffffffffffffffffff02191690555b60026000858152602001908152602001600020600401600081548092919060019003919050555050505050565b6000600160003373ffffffffffffffffffffffffffffffffffffffff1673ffffffffffffffffffffffffffffffffffffffff16815260200190815260200160002060009054906101000a900460ff1615156122cd57600080fd5b6122d683612e90565b151561234a576040517f08c379a00000000000000000000000000000000000000000000000000000000081526004018080602001828103825260138152602001807f456c65636369c3b36e206e6f2076616c6964610000000000000000000000000081525060200191505060405180910390fd5b60026000848152602001908152602001600020600a01600083815260200190815260200160002060009054906101000a900473ffffffffffffffffffffffffffffffffffffffff16905092915050565b60006123a582612e90565b1515612419576040517f08c379a00000000000000000000000000000000000000000000000000000000081526004018080602001828103825260138152602001807f456c65636369c3b36e206e6f2076616c6964610000000000000000000000000081525060200191505060405180910390fd5b60026000838152602001908152602001600020600601549050919050565b60008060606000612446613203565b600160003373ffffffffffffffffffffffffffffffffffffffff1673ffffffffffffffffffffffffffffffffffffffff16815260200190815260200160002060009054906101000a900460ff16151561249e57600080fd5b6124a787612e90565b151561251b576040517f08c379a00000000000000000000000000000000000000000000000000000000081526004018080602001828103825260138152602001807f456c65636369c3b36e206e6f2076616c6964610000000000000000000000000081525060200191505060405180910390fd5b6002600088815260200190815260200160002060080160008773ffffffffffffffffffffffffffffffffffffffff1673ffffffffffffffffffffffffffffffffffffffff168152602001908152602001600020604080519081016040529081600082018054600181600116156101000203166002900480601f0160208091040260200160405190810160405280929190818152602001828054600181600116156101000203166002900480156126125780601f106125e757610100808354040283529160200191612612565b820191906000526020600020905b8154815290600101906020018083116125f557829003601f168201915b505050505081526020016001820160009054906101000a900460ff161515151581525050905086868260000151836020015181915094509450945094505092959194509250565b600061266482612e90565b15156126d8576040517f08c379a00000000000000000000000000000000000000000000000000000000081526004018080602001828103825260138152602001807f456c65636369c3b36e206e6f2076616c6964610000000000000000000000000081525060200191505060405180910390fd5b60026000838152602001908152602001600020600501549050919050565b60006060600080600061270761321f565b61271087612e90565b1515612784576040517f08c379a00000000000000000000000000000000000000000000000000000000081526004018080602001828103825260138152602001807f456c65636369c3b36e206e6f2076616c6964610000000000000000000000000081525060200191505060405180910390fd5b6002600088815260200190815260200160002060e0604051908101604052908160008201548152602001600182018054600181600116156101000203166002900480601f0160208091040260200160405190810160405280929190818152602001828054600181600116156101000203166002900480156128465780601f1061281b57610100808354040283529160200191612846565b820191906000526020600020905b81548152906001019060200180831161282957829003601f168201915b505050505081526020016002820160009054906101000a900460ff16151515158152602001600382015481526020016004820154815260200160058201548152602001600682015481525050905080600001518160200151826040015183606001518460800151839350955095509550955095505091939590929450565b6000600354905090565b600160003373ffffffffffffffffffffffffffffffffffffffff1673ffffffffffffffffffffffffffffffffffffffff16815260200190815260200160002060009054906101000a900460ff16151561292657600080fd5b61292f82612e90565b15156129a3576040517f08c379a00000000000000000000000000000000000000000000000000000000081526004018080602001828103825260138152602001807f456c65636369c3b36e206e6f2076616c6964610000000000000000000000000081525060200191505060405180910390fd5b806002600084815260200190815260200160002060020160006101000a81548160ff0219169083151502179055505050565b600160003373ffffffffffffffffffffffffffffffffffffffff1673ffffffffffffffffffffffffffffffffffffffff16815260200190815260200160002060009054906101000a900460ff161515612a2d57600080fd5b612a3682612e90565b1515612aaa576040517f08c379a00000000000000000000000000000000000000000000000000000000081526004018080602001828103825260138152602001807f456c65636369c3b36e206e6f2076616c6964610000000000000000000000000081525060200191505060405180910390fd5b612ab4828261305b565b1515612b28576040517f08c379a00000000000000000000000000000000000000000000000000000000081526004018080602001828103825260138152602001807f43616e64696461746f206e6f2076616c69646f0000000000000000000000000081525060200191505060405180910390fd5b600260008381526020019081526020016000206003016000815480929190600190039190505550600260008381526020019081526020016000206007016000828152602001908152602001600020600080820160009055600182016000612b8f91906131bb565b600282016000905550505050565b612ba682612e90565b1515612c1a576040517f08c379a00000000000000000000000000000000000000000000000000000000081526004018080602001828103825260138152602001807f456c65636369c3b36e206e6f2076616c6964610000000000000000000000000081525060200191505060405180910390fd5b612c248233611b3d565b1515612c98576040517f08c379a00000000000000000000000000000000000000000000000000000000081526004018080602001828103825260118152602001807f566f74616e7465206e6f2076616c69646f00000000000000000000000000000081525060200191505060405180910390fd5b612ca28233610a7b565b151515612d17576040517f08c379a000000000000000000000000000000000000000000000000000000000815260040180806020018281038252600f8152602001807f566f74616e746520796120766f746f000000000000000000000000000000000081525060200191505060405180910390fd5b612d21828261305b565b1515612d95576040517f08c379a00000000000000000000000000000000000000000000000000000000081526004018080602001828103825260138152602001807f43616e64696461746f206e6f2076616c69646f0000000000000000000000000081525060200191505060405180910390fd5b60016002600084815260200190815260200160002060080160003373ffffffffffffffffffffffffffffffffffffffff1673ffffffffffffffffffffffffffffffffffffffff16815260200190815260200160002060010160006101000a81548160ff021916908315150217905550600260008381526020019081526020016000206007016000828152602001908152602001600020600201600081548092919060010191905055503373ffffffffffffffffffffffffffffffffffffffff167f0902475a854b82199b4f5d6b81327ec4c4ec077ce0356a106ddc2748c5285ed3836040518082815260200191505060405180910390a25050565b60008082118015612ea357506003548211155b15612eb15760019050612eb6565b600090505b919050565b600160003373ffffffffffffffffffffffffffffffffffffffff1673ffffffffffffffffffffffffffffffffffffffff16815260200190815260200160002060009054906101000a900460ff161515612f1357600080fd5b612f1d8383611b3d565b1515612f91576040517f08c379a00000000000000000000000000000000000000000000000000000000081526004018080602001828103825260118152602001807f566f74616e7465206e6f2076616c69646f00000000000000000000000000000081525060200191505060405180910390fd5b80612f9a6119a2565b11151561300f576040517f08c379a00000000000000000000000000000000000000000000000000000000081526004018080602001828103825260198152602001807f4e6f206861792065746865727320737566696369656e7465730000000000000081525060200191505060405180910390fd5b8173ffffffffffffffffffffffffffffffffffffffff166108fc829081150290604051600060405180830381858888f19350505050158015613055573d6000803e3d6000fd5b50505050565b600061306683612e90565b15156130da576040517f08c379a00000000000000000000000000000000000000000000000000000000081526004018080602001828103825260138152602001807f456c65636369c3b36e206e6f2076616c6964610000000000000000000000000081525060200191505060405180910390fd5b600082118015613100575060026000848152602001908152602001600020600501548211155b1561310e5760019050613113565b600090505b92915050565b828054600181600116156101000203166002900490600052602060002090601f016020900481019282601f1061315a57805160ff1916838001178555613188565b82800160010185558215613188579182015b8281111561318757825182559160200191906001019061316c565b5b509050613195919061325f565b5090565b6060604051908101604052806000815260200160608152602001600081525090565b50805460018160011615610100020316600290046000825580601f106131e15750613200565b601f0160209004906000526020600020908101906131ff919061325f565b5b50565b6040805190810160405280606081526020016000151581525090565b60e0604051908101604052806000815260200160608152602001600015158152602001600081526020016000815260200160008152602001600081525090565b61328191905b8082111561327d576000816000905550600101613265565b5090565b905600a165627a7a72305820102bc3693dc5b9de680718b0665aeb15f0b17ef5db2022078b3b1bf573e1f5400029",
  "source": "pragma solidity ^0.4.24;\r\n\r\ncontract BEV {\r\n    address private owner; // Propietario del contrato\r\n    mapping(address => bool) public admins; // Lista de administradores\r\n\r\n    // Estructura de candidato\r\n    struct Candidate {\r\n        uint id;\r\n        string name;\r\n        uint voteCount;\r\n    }\r\n\r\n    // Estructura de votante\r\n    struct Voter {\r\n        string name;\r\n        bool voted;\r\n    }\r\n\r\n    // Estructura de eleccin\r\n    struct Election {\r\n        uint id;\r\n        string name;\r\n        bool active; // Estado de la eleccin => activa = true\r\n        uint candidatesCount;// Almacenar el recuento de los candidatos\r\n        uint votersCount; // Almacenar el recuento de los votantes\r\n        uint candidatesIndex; // Indice de candidatos, ya que al eliminar no se borra el objeto\r\n        uint votersIndex; // Indice de votanes, ya que al eliminar no se borra el objeto\r\n        mapping(uint => Candidate) candidates; // Lectura/escritura de candidatos\r\n        mapping(address => Voter) voters; // Lectura/escritura de los votantes\r\n        mapping(address => bool) joinedVoters; // Almacenar cuentas que pueden votar\r\n        mapping(uint => address) allVoters; // Lista de los votantes\r\n    }\r\n\r\n    mapping(uint => Election) private elections; // Lista de elecciones\r\n    uint private electionsCount; // Almacenar el recuento de las elecciones\r\n\r\n    event VotedEvent(address indexed _account, uint _idElection); // evento de voto\r\n\r\n    // Validar si es propietario\r\n    modifier isOwner(){\r\n        require(owner == msg.sender);\r\n        _;\r\n    }\r\n\r\n    // Validar si es administrador\r\n    modifier isAdmin(){\r\n        require(admins[msg.sender]);\r\n        _;\r\n    }\r\n\r\n    constructor () public {\r\n        owner = msg.sender; // Quien publica el contrato es el dueo\r\n        admins[msg.sender] = true; // Es administrador tambien\r\n    }\r\n\r\n    // Agregar un administrador\r\n    function addAdmin(address _addr) public isOwner {\r\n        require(!admins[_addr], \"Ya es administrador.\");\r\n        admins[_addr] = true;\r\n    }\r\n\r\n    // Quitar un administrador\r\n    function deleteAdmin(address _addr) public isOwner {\r\n        require(admins[_addr], \"No es administrador.\");\r\n        admins[_addr] = false;\r\n    }\r\n\r\n    // Agregar una eleccin\r\n    function addElection(string _name) public isAdmin payable {\r\n        require(msg.value > 0 ether);\r\n        electionsCount++;\r\n        elections[electionsCount] = Election(electionsCount, _name, false, 0, 0, 0, 0);\r\n        //elections.push(Election(_name, false, 0, 0));\r\n    }\r\n\r\n    // Obtener detalles de una eleccin\r\n    function getElection(uint _idElection) public view returns(uint, string, bool, uint, uint) {\r\n        require(electionIsValid(_idElection), \"Eleccin no valida\");\r\n        Election memory election = elections[_idElection];\r\n        return (election.id, election.name, election.active, election.candidatesCount, election.votersCount);\r\n    }\r\n\r\n    // Activar una eleccin\r\n    function activeElection(uint _idElection, bool _active) public isAdmin {\r\n        require(electionIsValid(_idElection), \"Eleccin no valida\");\r\n        elections[_idElection].active = _active;\r\n    }\r\n\r\n   // Eliminar una eleccin\r\n    function deleteElection(uint _idElection) public isAdmin {\r\n        require(electionIsValid(_idElection), \"Eleccin no valida\");\r\n        require(elections[_idElection].votersCount == 0,\"Hay votantes\");\r\n        require(elections[_idElection].candidatesCount == 0, \"Hay candidatos\");\r\n        //electionsCount--;\r\n        delete elections[_idElection];\r\n    }\r\n\r\n    // Devuelve la cantidad de elecciones que hay en el contrato\r\n    function getTotalElections() public view returns(uint) {\r\n        return electionsCount;\r\n    }\r\n\r\n    // Comprobar si la eleccion es valida\r\n    function electionIsValid(uint _idElection) private view returns(bool) {\r\n        if(_idElection > 0 && _idElection <= electionsCount)\r\n            return true;\r\n\r\n        return false;\r\n    }\r\n\r\n    // Agregar un candidato\r\n    function addCandidate (uint _idElection, string _name) public isAdmin {\r\n        require(electionIsValid(_idElection), \"Eleccin no valida\");\r\n        elections[_idElection].candidatesCount++;\r\n        elections[_idElection].candidatesIndex++;\r\n        elections[_idElection].candidates[elections[_idElection].candidatesIndex] = Candidate(elections[_idElection].candidatesIndex, _name, 0);\r\n    }\r\n\r\n    // Obtener un candidato\r\n    function getCandidate(uint _idElection, uint _idCandidate) public view returns(uint, uint, string, uint) {\r\n        require(electionIsValid(_idElection), \"Eleccin no valida\");\r\n        require(candidateIsValid(_idElection, _idCandidate), \"Candidato no valido\");\r\n        Candidate memory candidate = elections[_idElection].candidates[_idCandidate];\r\n        return (_idElection, candidate.id, candidate.name, candidate.voteCount);\r\n    }\r\n\r\n   // Eliminar un candidato\r\n    function deleteCandidate(uint _idElection, uint _idCandidate) public isAdmin {\r\n        require(electionIsValid(_idElection), \"Eleccin no valida\");\r\n        require(candidateIsValid(_idElection, _idCandidate), \"Candidato no valido\");\r\n        elections[_idElection].candidatesCount--;\r\n        delete elections[_idElection].candidates[_idCandidate];\r\n    }\r\n\r\n    // Obtener la cantidad de candidatos de una eleccin\r\n    function getCandidatesCount (uint _idElection) public view returns(uint){\r\n        require(electionIsValid(_idElection), \"Eleccin no valida\");\r\n        return elections[_idElection].candidatesCount;\r\n    }\r\n\r\n    function getCandidatesIndex (uint _idElection) public view returns(uint){\r\n        require(electionIsValid(_idElection), \"Eleccin no valida\");\r\n        return elections[_idElection].candidatesIndex;\r\n    }\r\n\r\n    // Comprobar si el candidato es valido\r\n    function candidateIsValid(uint _idElection, uint _idCandidate) private view returns(bool) {\r\n        require(electionIsValid(_idElection), \"Eleccin no valida\");\r\n        if(_idCandidate > 0 && _idCandidate <= elections[_idElection].candidatesIndex)\r\n            return true;\r\n\r\n        return false;\r\n    }\r\n\r\n    // Agregar un votante\r\n    function addVoter (uint _idElection, address _addr, string _name, uint _monto) public isAdmin {\r\n        require(electionIsValid(_idElection), \"Eleccin no valida\");\r\n        elections[_idElection].votersCount++;\r\n        elections[_idElection].votersIndex++;\r\n        elections[_idElection].voters[_addr] = Voter(_name, false);\r\n        elections[_idElection].joinedVoters[_addr] = true;\r\n        elections[_idElection].allVoters[elections[_idElection].votersIndex] = _addr;\r\n        getEthersForVoting(_idElection, _addr, _monto);\r\n    }\r\n\r\n    // Comprobar si el votante esta en el padrn\r\n    function voterIsJoined(uint _idElection, address _addr) public view returns(bool) {\r\n        require(electionIsValid(_idElection), \"Eleccin no valida\");\r\n        return elections[_idElection].joinedVoters[_addr];\r\n    }\r\n\r\n    // Obtengo la cuenta de un votante segn su posicin\r\n    function getAddressVoter(uint _idElection, uint _index) public isAdmin view returns(address) {\r\n        require(electionIsValid(_idElection), \"Eleccin no valida\");\r\n        return elections[_idElection].allVoters[_index];\r\n    }\r\n\r\n    // Obtengo un votante\r\n    function getVoter(uint _idElection, address _addr) public isAdmin view returns(uint, address, string, bool) {\r\n        require(electionIsValid(_idElection), \"Eleccin no valida\");\r\n        //require(voterIsJoined(_idElection, _addr), \"Votante no valido\");\r\n        Voter memory voter = elections[_idElection].voters[_addr];\r\n        return (_idElection, _addr, voter.name, voter.voted);\r\n    }\r\n\r\n   // Eliminar votante\r\n    function deleteVoter(uint _idElection, address _addr) public isAdmin {\r\n        require(electionIsValid(_idElection), \"Eleccin no valida\");\r\n        require(voterIsJoined(_idElection, _addr),\"El usuario no existe!\");\r\n        require(!voterHasVoted(_idElection, _addr), \"Votante ya voto\");\r\n        elections[_idElection].joinedVoters[_addr] = false;\r\n        delete elections[_idElection].voters[_addr];\r\n\r\n        uint i = 0;\r\n        bool encontro = false;\r\n        while ((i <= elections[_idElection].votersCount) && !encontro){\r\n            i++;\r\n            if(elections[_idElection].allVoters[i] == _addr)\r\n                encontro = true;\r\n\r\n        }\r\n       \r\n        if(encontro)\r\n            delete elections[_idElection].allVoters[i];\r\n\r\n        elections[_idElection].votersCount--;\r\n    }\r\n\r\n    // Obtener la cantidad de votantes de la eleccin\r\n    function getVotersCount (uint _idElection) public view returns(uint){\r\n        require(electionIsValid(_idElection), \"Eleccin no valida\");\r\n        return elections[_idElection].votersCount;\r\n    }\r\n\r\n    function getVotersIndex (uint _idElection) public view returns(uint){\r\n        require(electionIsValid(_idElection), \"Eleccin no valida\");\r\n        return elections[_idElection].votersIndex;\r\n    }\r\n\r\n    // Votar\r\n    function voting (uint _idElection, uint _idCandidate) public {\r\n        require(electionIsValid(_idElection), \"Eleccin no valida\"); // Requerir una eleccin vlida\r\n        // Exigir que sea un votante valido y que no haya votado antes\r\n        require(voterIsJoined(_idElection, msg.sender), \"Votante no valido\");\r\n        require(!voterHasVoted(_idElection, msg.sender), \"Votante ya voto\");\r\n        require(candidateIsValid(_idElection, _idCandidate), \"Candidato no valido\"); // Requerir un candidato vlido\r\n        elections[_idElection].voters[msg.sender].voted = true; // Registro de que el votante ha votado\r\n        elections[_idElection].candidates[_idCandidate].voteCount++; // Registro de que el votante ha votado\r\n        emit VotedEvent(msg.sender, _idElection); // Evento desencadenante del voto\r\n    }\r\n\r\n    // Comprobar si el votante ya voto\r\n    function voterHasVoted(uint _idElection, address _addr) public view returns(bool) {\r\n        require(electionIsValid(_idElection), \"Eleccin no valida\");\r\n        require(voterIsJoined(_idElection, _addr), \"Votante no valido\");\r\n        return elections[_idElection].voters[_addr].voted;\r\n    }\r\n\r\n    // Resultado de la votacin\r\n    function getResultElection(uint _idElection) public view returns(uint) {\r\n        require(electionIsValid(_idElection), \"Eleccin no valida\");\r\n        uint idGanadorActual = elections[_idElection].candidates[1].id;\r\n        uint votosGanadorActual = elections[_idElection].candidates[1].voteCount;\r\n        for(uint i = 2; i <= elections[_idElection].candidatesIndex; i++) {\r\n            if(elections[_idElection].candidates[i].voteCount > votosGanadorActual) {\r\n                idGanadorActual = elections[_idElection].candidates[i].id;\r\n                votosGanadorActual = elections[_idElection].candidates[i].voteCount;\r\n            }\r\n            else {\r\n                if(elections[_idElection].candidates[i].voteCount == votosGanadorActual)\r\n                    idGanadorActual = 0;\r\n            }\r\n        }\r\n        return idGanadorActual;\r\n    }\r\n\r\n    // Transferir etheres para poder votar\r\n    function getEthersForVoting(uint _idElection, address _addr, uint monto) private isAdmin {\r\n        require(voterIsJoined(_idElection, _addr), \"Votante no valido\");        \r\n        require(getContractBalance() > monto, \"No hay ethers suficientes\");\r\n        _addr.transfer(monto);\r\n    }\r\n\r\n    // Transferir los fondos del contrato\r\n    function transferFromContract(address _addr, uint amount) public isAdmin {\r\n        require(getContractBalance() > amount, \"No hay ethers suficientes\");\r\n        _addr.transfer(amount);\r\n    }\r\n\r\n    // Obtener el balance del SmartContract\r\n    function getContractBalance() public view returns (uint) {\r\n        address BEVAddress = this;\r\n        return BEVAddress.balance;\r\n    }\r\n\r\n}",
  "sourcePath": "C:\\Users\\MARTIN\\Documents\\blockchain-electronic-voting\\contracts\\BEV.sol",
  "compiler": {
    "name": "solc",
    "version": "0.4.25+commit.59dbf8f1.Emscripten.clang"
  },
  "schemaVersion": "2.0.2",
  "updatedAt": "2020-03-10T16:28:25.922Z"
}