{
  "contractName": "BEV",
  "abi": [
    {
      "constant": true,
      "inputs": [
        {
          "name": "",
          "type": "address"
        }
      ],
      "name": "admins",
      "outputs": [
        {
          "name": "",
          "type": "bool"
        }
      ],
      "payable": false,
      "stateMutability": "view",
      "type": "function"
    },
    {
      "inputs": [],
      "payable": false,
      "stateMutability": "nonpayable",
      "type": "constructor"
    },
    {
      "anonymous": false,
      "inputs": [
        {
          "indexed": true,
          "name": "_account",
          "type": "address"
        },
        {
          "indexed": false,
          "name": "_idElection",
          "type": "uint256"
        }
      ],
      "name": "VotedEvent",
      "type": "event"
    },
    {
      "constant": false,
      "inputs": [
        {
          "name": "_addr",
          "type": "address"
        }
      ],
      "name": "addAdmin",
      "outputs": [],
      "payable": false,
      "stateMutability": "nonpayable",
      "type": "function"
    },
    {
      "constant": false,
      "inputs": [
        {
          "name": "_addr",
          "type": "address"
        }
      ],
      "name": "deleteAdmin",
      "outputs": [],
      "payable": false,
      "stateMutability": "nonpayable",
      "type": "function"
    },
    {
      "constant": false,
      "inputs": [
        {
          "name": "_name",
          "type": "string"
        },
        {
          "name": "_description",
          "type": "string"
        }
      ],
      "name": "addElection",
      "outputs": [],
      "payable": true,
      "stateMutability": "payable",
      "type": "function"
    },
    {
      "constant": true,
      "inputs": [
        {
          "name": "_idElection",
          "type": "uint256"
        }
      ],
      "name": "getElection",
      "outputs": [
        {
          "name": "",
          "type": "uint256"
        },
        {
          "name": "",
          "type": "string"
        },
        {
          "name": "",
          "type": "string"
        },
        {
          "name": "",
          "type": "bool"
        },
        {
          "name": "",
          "type": "uint256"
        },
        {
          "name": "",
          "type": "uint256"
        }
      ],
      "payable": false,
      "stateMutability": "view",
      "type": "function"
    },
    {
      "constant": false,
      "inputs": [
        {
          "name": "_idElection",
          "type": "uint256"
        },
        {
          "name": "_active",
          "type": "bool"
        }
      ],
      "name": "activeElection",
      "outputs": [],
      "payable": false,
      "stateMutability": "nonpayable",
      "type": "function"
    },
    {
      "constant": false,
      "inputs": [
        {
          "name": "_idElection",
          "type": "uint256"
        }
      ],
      "name": "deleteElection",
      "outputs": [],
      "payable": false,
      "stateMutability": "nonpayable",
      "type": "function"
    },
    {
      "constant": true,
      "inputs": [],
      "name": "getTotalElections",
      "outputs": [
        {
          "name": "",
          "type": "uint256"
        }
      ],
      "payable": false,
      "stateMutability": "view",
      "type": "function"
    },
    {
      "constant": true,
      "inputs": [],
      "name": "getElectionsIndex",
      "outputs": [
        {
          "name": "",
          "type": "uint256"
        }
      ],
      "payable": false,
      "stateMutability": "view",
      "type": "function"
    },
    {
      "constant": false,
      "inputs": [
        {
          "name": "_idElection",
          "type": "uint256"
        },
        {
          "name": "_name",
          "type": "string"
        },
        {
          "name": "_description",
          "type": "string"
        }
      ],
      "name": "addCandidate",
      "outputs": [],
      "payable": false,
      "stateMutability": "nonpayable",
      "type": "function"
    },
    {
      "constant": true,
      "inputs": [
        {
          "name": "_idElection",
          "type": "uint256"
        },
        {
          "name": "_idCandidate",
          "type": "uint256"
        }
      ],
      "name": "getCandidate",
      "outputs": [
        {
          "name": "",
          "type": "uint256"
        },
        {
          "name": "",
          "type": "uint256"
        },
        {
          "name": "",
          "type": "string"
        },
        {
          "name": "",
          "type": "string"
        },
        {
          "name": "",
          "type": "uint256"
        }
      ],
      "payable": false,
      "stateMutability": "view",
      "type": "function"
    },
    {
      "constant": false,
      "inputs": [
        {
          "name": "_idElection",
          "type": "uint256"
        },
        {
          "name": "_idCandidate",
          "type": "uint256"
        }
      ],
      "name": "deleteCandidate",
      "outputs": [],
      "payable": false,
      "stateMutability": "nonpayable",
      "type": "function"
    },
    {
      "constant": true,
      "inputs": [
        {
          "name": "_idElection",
          "type": "uint256"
        }
      ],
      "name": "getCandidatesCount",
      "outputs": [
        {
          "name": "",
          "type": "uint256"
        }
      ],
      "payable": false,
      "stateMutability": "view",
      "type": "function"
    },
    {
      "constant": true,
      "inputs": [
        {
          "name": "_idElection",
          "type": "uint256"
        }
      ],
      "name": "getCandidatesIndex",
      "outputs": [
        {
          "name": "",
          "type": "uint256"
        }
      ],
      "payable": false,
      "stateMutability": "view",
      "type": "function"
    },
    {
      "constant": false,
      "inputs": [
        {
          "name": "_idElection",
          "type": "uint256"
        },
        {
          "name": "_addr",
          "type": "address"
        },
        {
          "name": "_name",
          "type": "string"
        },
        {
          "name": "_description",
          "type": "string"
        },
        {
          "name": "_amount",
          "type": "uint256"
        }
      ],
      "name": "addVoter",
      "outputs": [],
      "payable": false,
      "stateMutability": "nonpayable",
      "type": "function"
    },
    {
      "constant": true,
      "inputs": [
        {
          "name": "_idElection",
          "type": "uint256"
        },
        {
          "name": "_addr",
          "type": "address"
        }
      ],
      "name": "voterIsJoined",
      "outputs": [
        {
          "name": "",
          "type": "bool"
        }
      ],
      "payable": false,
      "stateMutability": "view",
      "type": "function"
    },
    {
      "constant": true,
      "inputs": [
        {
          "name": "_idElection",
          "type": "uint256"
        },
        {
          "name": "_index",
          "type": "uint256"
        }
      ],
      "name": "getAddressVoter",
      "outputs": [
        {
          "name": "",
          "type": "address"
        }
      ],
      "payable": false,
      "stateMutability": "view",
      "type": "function"
    },
    {
      "constant": true,
      "inputs": [
        {
          "name": "_idElection",
          "type": "uint256"
        },
        {
          "name": "_addr",
          "type": "address"
        }
      ],
      "name": "getVoter",
      "outputs": [
        {
          "name": "",
          "type": "uint256"
        },
        {
          "name": "",
          "type": "address"
        },
        {
          "name": "",
          "type": "string"
        },
        {
          "name": "",
          "type": "string"
        },
        {
          "name": "",
          "type": "bool"
        }
      ],
      "payable": false,
      "stateMutability": "view",
      "type": "function"
    },
    {
      "constant": false,
      "inputs": [
        {
          "name": "_idElection",
          "type": "uint256"
        },
        {
          "name": "_addr",
          "type": "address"
        }
      ],
      "name": "deleteVoter",
      "outputs": [],
      "payable": false,
      "stateMutability": "nonpayable",
      "type": "function"
    },
    {
      "constant": true,
      "inputs": [
        {
          "name": "_idElection",
          "type": "uint256"
        }
      ],
      "name": "getVotersCount",
      "outputs": [
        {
          "name": "",
          "type": "uint256"
        }
      ],
      "payable": false,
      "stateMutability": "view",
      "type": "function"
    },
    {
      "constant": true,
      "inputs": [
        {
          "name": "_idElection",
          "type": "uint256"
        }
      ],
      "name": "getVotersIndex",
      "outputs": [
        {
          "name": "",
          "type": "uint256"
        }
      ],
      "payable": false,
      "stateMutability": "view",
      "type": "function"
    },
    {
      "constant": false,
      "inputs": [
        {
          "name": "_idElection",
          "type": "uint256"
        },
        {
          "name": "_idCandidate",
          "type": "uint256"
        }
      ],
      "name": "voting",
      "outputs": [],
      "payable": false,
      "stateMutability": "nonpayable",
      "type": "function"
    },
    {
      "constant": true,
      "inputs": [
        {
          "name": "_idElection",
          "type": "uint256"
        },
        {
          "name": "_addr",
          "type": "address"
        }
      ],
      "name": "voterHasVoted",
      "outputs": [
        {
          "name": "",
          "type": "bool"
        }
      ],
      "payable": false,
      "stateMutability": "view",
      "type": "function"
    },
    {
      "constant": true,
      "inputs": [
        {
          "name": "_idElection",
          "type": "uint256"
        }
      ],
      "name": "getResultElection",
      "outputs": [
        {
          "name": "",
          "type": "uint256"
        }
      ],
      "payable": false,
      "stateMutability": "view",
      "type": "function"
    },
    {
      "constant": false,
      "inputs": [
        {
          "name": "_addr",
          "type": "address"
        },
        {
          "name": "amount",
          "type": "uint256"
        }
      ],
      "name": "transferFromContract",
      "outputs": [],
      "payable": false,
      "stateMutability": "nonpayable",
      "type": "function"
    },
    {
      "constant": true,
      "inputs": [],
      "name": "getContractBalance",
      "outputs": [
        {
          "name": "",
          "type": "uint256"
        }
      ],
      "payable": false,
      "stateMutability": "view",
      "type": "function"
    }
  ],
  "bytecode": "0x608060405234801561001057600080fd5b50336000806101000a81548173ffffffffffffffffffffffffffffffffffffffff021916908373ffffffffffffffffffffffffffffffffffffffff16021790555060018060003373ffffffffffffffffffffffffffffffffffffffff1673ffffffffffffffffffffffffffffffffffffffff16815260200190815260200160002060006101000a81548160ff021916908315150217905550613b72806100b76000396000f300608060405260043610610154576000357c0100000000000000000000000000000000000000000000000000000000900463ffffffff1680630b713f29146101595780631a88f306146101be5780631de66c931461020b57806327e1f7df1461024c5780633ee95f001461028f578063429b62e5146102d0578063452cf3c81461032b5780634bd464481461036c5780634f9580691461049d5780636f9fb98a146104c857806370480275146104f3578063709be96a14610536578063740c47d41461059b5780637569f2b5146105c8578063826374e6146106155780638de720cf1461068c5780638f47b146146106cd57806395b79907146108445780639b7c0820146108e65780639d71077714610927578063a9392e0c14610a59578063bdd0329514610a84578063cf4a606014610abd578063cfaad27c14610af4578063e6c62efc14610b2b578063e989b9db14610be4575b600080fd5b34801561016557600080fd5b506101a460048036038101908080359060200190929190803573ffffffffffffffffffffffffffffffffffffffff169060200190929190505050610cc7565b604051808215151515815260200191505060405180910390f35b3480156101ca57600080fd5b50610209600480360381019080803573ffffffffffffffffffffffffffffffffffffffff16906020019092919080359060200190929190505050610e56565b005b34801561021757600080fd5b5061023660048036038101908080359060200190929190505050610f9d565b6040518082815260200191505060405180910390f35b34801561025857600080fd5b5061028d600480360381019080803573ffffffffffffffffffffffffffffffffffffffff169060200190929190505050611060565b005b34801561029b57600080fd5b506102ba600480360381019080803590602001909291905050506111fd565b6040518082815260200191505060405180910390f35b3480156102dc57600080fd5b50610311600480360381019080803573ffffffffffffffffffffffffffffffffffffffff1690602001909291905050506112c0565b604051808215151515815260200191505060405180910390f35b34801561033757600080fd5b50610356600480360381019080803590602001909291905050506112e0565b6040518082815260200191505060405180910390f35b34801561037857600080fd5b506103a160048036038101908080359060200190929190803590602001909291905050506114ea565b604051808681526020018581526020018060200180602001848152602001838103835286818151815260200191508051906020019080838360005b838110156103f75780820151818401526020810190506103dc565b50505050905090810190601f1680156104245780820380516001836020036101000a031916815260200191505b50838103825285818151815260200191508051906020019080838360005b8381101561045d578082015181840152602081019050610442565b50505050905090810190601f16801561048a5780820380516001836020036101000a031916815260200191505b5097505050505050505060405180910390f35b3480156104a957600080fd5b506104b26117fe565b6040518082815260200191505060405180910390f35b3480156104d457600080fd5b506104dd611808565b6040518082815260200191505060405180910390f35b3480156104ff57600080fd5b50610534600480360381019080803573ffffffffffffffffffffffffffffffffffffffff16906020019092919050505061182c565b005b34801561054257600080fd5b5061058160048036038101908080359060200190929190803573ffffffffffffffffffffffffffffffffffffffff1690602001909291905050506119a3565b604051808215151515815260200191505060405180910390f35b3480156105a757600080fd5b506105c660048036038101908080359060200190929190505050611ab1565b005b3480156105d457600080fd5b5061061360048036038101908080359060200190929190803573ffffffffffffffffffffffffffffffffffffffff169060200190929190505050611d50565b005b34801561062157600080fd5b5061064a6004803603810190808035906020019092919080359060200190929190505050612158565b604051808273ffffffffffffffffffffffffffffffffffffffff1673ffffffffffffffffffffffffffffffffffffffff16815260200191505060405180910390f35b34801561069857600080fd5b506106b7600480360381019080803590602001909291905050506122a5565b6040518082815260200191505060405180910390f35b3480156106d957600080fd5b5061071860048036038101908080359060200190929190803573ffffffffffffffffffffffffffffffffffffffff169060200190929190505050612368565b604051808681526020018573ffffffffffffffffffffffffffffffffffffffff1673ffffffffffffffffffffffffffffffffffffffff168152602001806020018060200184151515158152602001838103835286818151815260200191508051906020019080838360005b8381101561079e578082015181840152602081019050610783565b50505050905090810190601f1680156107cb5780820380516001836020036101000a031916815260200191505b50838103825285818151815260200191508051906020019080838360005b838110156108045780820151818401526020810190506107e9565b50505050905090810190601f1680156108315780820380516001836020036101000a031916815260200191505b5097505050505050505060405180910390f35b6108e4600480360381019080803590602001908201803590602001908080601f0160208091040260200160405190810160405280939291908181526020018383808284378201915050505050509192919290803590602001908201803590602001908080601f0160208091040260200160405190810160405280939291908181526020018383808284378201915050505050509192919290505050612639565b005b3480156108f257600080fd5b506109116004803603810190808035906020019092919050505061283f565b6040518082815260200191505060405180910390f35b34801561093357600080fd5b5061095260048036038101908080359060200190929190505050612902565b60405180878152602001806020018060200186151515158152602001858152602001848152602001838103835288818151815260200191508051906020019080838360005b838110156109b2578082015181840152602081019050610997565b50505050905090810190601f1680156109df5780820380516001836020036101000a031916815260200191505b50838103825287818151815260200191508051906020019080838360005b83811015610a185780820151818401526020810190506109fd565b50505050905090810190601f168015610a455780820380516001836020036101000a031916815260200191505b509850505050505050505060405180910390f35b348015610a6557600080fd5b50610a6e612b7e565b6040518082815260200191505060405180910390f35b348015610a9057600080fd5b50610abb60048036038101908080359060200190929190803515159060200190929190505050612b88565b005b348015610ac957600080fd5b50610af26004803603810190808035906020019092919080359060200190929190505050612cb5565b005b348015610b0057600080fd5b50610b296004803603810190808035906020019092919080359060200190929190505050612ed9565b005b348015610b3757600080fd5b50610be260048036038101908080359060200190929190803590602001908201803590602001908080601f0160208091040260200160405190810160405280939291908181526020018383808284378201915050505050509192919290803590602001908201803590602001908080601f01602080910402602001604051908101604052809392919081815260200183838082843782019150505050505091929192905050506131cc565b005b348015610bf057600080fd5b50610cc560048036038101908080359060200190929190803573ffffffffffffffffffffffffffffffffffffffff169060200190929190803590602001908201803590602001908080601f0160208091040260200160405190810160405280939291908181526020018383808284378201915050505050509192919290803590602001908201803590602001908080601f0160208091040260200160405190810160405280939291908181526020018383808284378201915050505050509192919290803590602001909291905050506133df565b005b6000610cd2836136c9565b1515610d6c576040517f08c379a00000000000000000000000000000000000000000000000000000000081526004018080602001828103825260228152602001807f766f746572486173566f7465643a20456c65636369c3b36e206e6f2076616c6981526020017f646100000000000000000000000000000000000000000000000000000000000081525060400191505060405180910390fd5b610d7683836119a3565b1515610dea576040517f08c379a00000000000000000000000000000000000000000000000000000000081526004018080602001828103825260208152602001807f766f746572486173566f7465643a20566f74616e7465206e6f2076616c69646f81525060200191505060405180910390fd5b6002600084815260200190815260200160002060090160008373ffffffffffffffffffffffffffffffffffffffff1673ffffffffffffffffffffffffffffffffffffffff16815260200190815260200160002060020160009054906101000a900460ff16905092915050565b600160003373ffffffffffffffffffffffffffffffffffffffff1673ffffffffffffffffffffffffffffffffffffffff16815260200190815260200160002060009054906101000a900460ff161515610eae57600080fd5b80610eb7611808565b111515610f52576040517f08c379a000000000000000000000000000000000000000000000000000000000815260040180806020018281038252602f8152602001807f7472616e7366657246726f6d436f6e74726163743a204e6f206861792065746881526020017f65727320737566696369656e746573000000000000000000000000000000000081525060400191505060405180910390fd5b8173ffffffffffffffffffffffffffffffffffffffff166108fc829081150290604051600060405180830381858888f19350505050158015610f98573d6000803e3d6000fd5b505050565b6000610fa8826136c9565b1515611042576040517f08c379a00000000000000000000000000000000000000000000000000000000081526004018080602001828103825260238152602001807f676574566f74657273436f756e743a20456c65636369c3b36e206e6f2076616c81526020017f696461000000000000000000000000000000000000000000000000000000000081525060400191505060405180910390fd5b60026000838152602001908152602001600020600501549050919050565b3373ffffffffffffffffffffffffffffffffffffffff166000809054906101000a900473ffffffffffffffffffffffffffffffffffffffff1673ffffffffffffffffffffffffffffffffffffffff161415156110bb57600080fd5b600160008273ffffffffffffffffffffffffffffffffffffffff1673ffffffffffffffffffffffffffffffffffffffff16815260200190815260200160002060009054906101000a900460ff1615156111a2576040517f08c379a00000000000000000000000000000000000000000000000000000000081526004018080602001828103825260218152602001807f64656c65746541646d696e3a204e6f2065732061646d696e6973747261646f7281526020017f2e0000000000000000000000000000000000000000000000000000000000000081525060400191505060405180910390fd5b6000600160008373ffffffffffffffffffffffffffffffffffffffff1673ffffffffffffffffffffffffffffffffffffffff16815260200190815260200160002060006101000a81548160ff02191690831515021790555050565b6000611208826136c9565b15156112a2576040517f08c379a00000000000000000000000000000000000000000000000000000000081526004018080602001828103825260268152602001807f67657443616e646964617465436f756e743a20456c65636369c3b36e206e6f2081526020017f76616c696461000000000000000000000000000000000000000000000000000081525060400191505060405180910390fd5b60026000838152602001908152602001600020600401549050919050565b60016020528060005260406000206000915054906101000a900460ff1681565b6000806000806112ef856136c9565b1515611389576040517f08c379a00000000000000000000000000000000000000000000000000000000081526004018080602001828103825260268152602001807f676574526573756c74456c656374696f6e3a20456c65636369c3b36e206e6f2081526020017f76616c696461000000000000000000000000000000000000000000000000000081525060400191505060405180910390fd5b6002600086815260200190815260200160002060080160006001815260200190815260200160002060000154925060026000868152602001908152602001600020600801600060018152602001908152602001600020600301549150600290505b6002600086815260200190815260200160002060060154811115156114df578160026000878152602001908152602001600020600801600083815260200190815260200160002060030154111561149a576002600086815260200190815260200160002060080160008281526020019081526020016000206000015492506002600086815260200190815260200160002060080160008281526020019081526020016000206003015491506114d2565b816002600087815260200190815260200160002060080160008381526020019081526020016000206003015414156114d157600092505b5b80806001019150506113ea565b829350505050919050565b60008060608060006114fa6139c4565b611503886136c9565b151561159d576040517f08c379a00000000000000000000000000000000000000000000000000000000081526004018080602001828103825260218152602001807f67657443616e6469646174653a20456c65636369c3b36e206e6f2076616c696481526020017f610000000000000000000000000000000000000000000000000000000000000081525060400191505060405180910390fd5b6115a788886136f4565b1515611641576040517f08c379a00000000000000000000000000000000000000000000000000000000081526004018080602001828103825260218152602001807f67657443616e6469646174653a2043616e64696461746f206e6f2076616c696481526020017f6f0000000000000000000000000000000000000000000000000000000000000081525060400191505060405180910390fd5b6002600089815260200190815260200160002060080160008881526020019081526020016000206080604051908101604052908160008201548152602001600182018054600181600116156101000203166002900480601f0160208091040260200160405190810160405280929190818152602001828054600181600116156101000203166002900480156117175780601f106116ec57610100808354040283529160200191611717565b820191906000526020600020905b8154815290600101906020018083116116fa57829003601f168201915b50505050508152602001600282018054600181600116156101000203166002900480601f0160208091040260200160405190810160405280929190818152602001828054600181600116156101000203166002900480156117b95780601f1061178e576101008083540402835291602001916117b9565b820191906000526020600020905b81548152906001019060200180831161179c57829003601f168201915b50505050508152602001600382015481525050905087816000015182602001518360400151846060015182925081915095509550955095509550509295509295909350565b6000600454905090565b6000803090508073ffffffffffffffffffffffffffffffffffffffff163191505090565b3373ffffffffffffffffffffffffffffffffffffffff166000809054906101000a900473ffffffffffffffffffffffffffffffffffffffff1673ffffffffffffffffffffffffffffffffffffffff1614151561188757600080fd5b600160008273ffffffffffffffffffffffffffffffffffffffff1673ffffffffffffffffffffffffffffffffffffffff16815260200190815260200160002060009054906101000a900460ff16151515611949576040517f08c379a000000000000000000000000000000000000000000000000000000000815260040180806020018281038252601e8152602001807f61646441646d696e3a2059612065732061646d696e6973747261646f722e000081525060200191505060405180910390fd5b60018060008373ffffffffffffffffffffffffffffffffffffffff1673ffffffffffffffffffffffffffffffffffffffff16815260200190815260200160002060006101000a81548160ff02191690831515021790555050565b60006119ae836136c9565b1515611a48576040517f08c379a00000000000000000000000000000000000000000000000000000000081526004018080602001828103825260228152602001807f766f74657249734a6f696e65643a20456c65636369c3b36e206e6f2076616c6981526020017f646100000000000000000000000000000000000000000000000000000000000081525060400191505060405180910390fd5b60026000848152602001908152602001600020600a0160008373ffffffffffffffffffffffffffffffffffffffff1673ffffffffffffffffffffffffffffffffffffffff16815260200190815260200160002060009054906101000a900460ff16905092915050565b600160003373ffffffffffffffffffffffffffffffffffffffff1673ffffffffffffffffffffffffffffffffffffffff16815260200190815260200160002060009054906101000a900460ff161515611b0957600080fd5b611b12816136c9565b1515611bac576040517f08c379a00000000000000000000000000000000000000000000000000000000081526004018080602001828103825260238152602001807f64656c657465456c656374696f6e3a20456c65636369c3b36e206e6f2076616c81526020017f696461000000000000000000000000000000000000000000000000000000000081525060400191505060405180910390fd5b60006002600083815260200190815260200160002060050154141515611c3a576040517f08c379a000000000000000000000000000000000000000000000000000000000815260040180806020018281038252601c8152602001807f64656c657465456c656374696f6e3a2048617920766f74616e7465730000000081525060200191505060405180910390fd5b60006002600083815260200190815260200160002060040154141515611cc8576040517f08c379a000000000000000000000000000000000000000000000000000000000815260040180806020018281038252601e8152602001807f64656c657465456c656374696f6e3a204861792063616e64696461746f73000081525060200191505060405180910390fd5b6003600081548092919060019003919050555060026000828152602001908152602001600020600080820160009055600182016000611d0791906139ed565b600282016000611d1791906139ed565b6003820160006101000a81549060ff02191690556004820160009055600582016000905560068201600090556007820160009055505050565b600080600160003373ffffffffffffffffffffffffffffffffffffffff1673ffffffffffffffffffffffffffffffffffffffff16815260200190815260200160002060009054906101000a900460ff161515611dab57600080fd5b611db4846136c9565b1515611e28576040517f08c379a00000000000000000000000000000000000000000000000000000000081526004018080602001828103825260208152602001807f64656c657465566f7465723a20456c65636369c3b36e206e6f2076616c69646181525060200191505060405180910390fd5b611e3284846119a3565b1515611ea6576040517f08c379a000000000000000000000000000000000000000000000000000000000815260040180806020018281038252601e8152602001807f64656c657465566f7465723a20566f74616e7465206e6f2076616c69646f000081525060200191505060405180910390fd5b611eb08484610cc7565b151515611f25576040517f08c379a000000000000000000000000000000000000000000000000000000000815260040180806020018281038252601c8152602001807f64656c657465566f7465723a20566f74616e746520796120766f746f0000000081525060200191505060405180910390fd5b600060026000868152602001908152602001600020600a0160008573ffffffffffffffffffffffffffffffffffffffff1673ffffffffffffffffffffffffffffffffffffffff16815260200190815260200160002060006101000a81548160ff0219169083151502179055506002600085815260200190815260200160002060090160008473ffffffffffffffffffffffffffffffffffffffff1673ffffffffffffffffffffffffffffffffffffffff16815260200190815260200160002060008082016000611ff591906139ed565b60018201600061200591906139ed565b6002820160006101000a81549060ff0219169055505060009150600090505b60026000858152602001908152602001600020600501548211158015612048575080155b156120da5781806001019250508273ffffffffffffffffffffffffffffffffffffffff1660026000868152602001908152602001600020600b01600084815260200190815260200160002060009054906101000a900473ffffffffffffffffffffffffffffffffffffffff1673ffffffffffffffffffffffffffffffffffffffff1614156120d557600190505b612024565b801561212b5760026000858152602001908152602001600020600b01600083815260200190815260200160002060006101000a81549073ffffffffffffffffffffffffffffffffffffffff02191690555b60026000858152602001908152602001600020600501600081548092919060019003919050555050505050565b6000600160003373ffffffffffffffffffffffffffffffffffffffff1673ffffffffffffffffffffffffffffffffffffffff16815260200190815260200160002060009054906101000a900460ff1615156121b257600080fd5b6121bb836136c9565b1515612255576040517f08c379a00000000000000000000000000000000000000000000000000000000081526004018080602001828103825260248152602001807f67657441646472657373566f7465723a20456c65636369c3b36e206e6f20766181526020017f6c6964610000000000000000000000000000000000000000000000000000000081525060400191505060405180910390fd5b60026000848152602001908152602001600020600b01600083815260200190815260200160002060009054906101000a900473ffffffffffffffffffffffffffffffffffffffff16905092915050565b60006122b0826136c9565b151561234a576040517f08c379a00000000000000000000000000000000000000000000000000000000081526004018080602001828103825260228152602001807f676574566f746572496e6465783a20456c65636369c3b36e206e6f2076616c6981526020017f646100000000000000000000000000000000000000000000000000000000000081525060400191505060405180910390fd5b60026000838152602001908152602001600020600701549050919050565b6000806060806000612378613a35565b600160003373ffffffffffffffffffffffffffffffffffffffff1673ffffffffffffffffffffffffffffffffffffffff16815260200190815260200160002060009054906101000a900460ff1615156123d057600080fd5b6123d9886136c9565b151561244d576040517f08c379a000000000000000000000000000000000000000000000000000000000815260040180806020018281038252601d8152602001807f676574566f7465723a20456c65636369c3b36e206e6f2076616c69646100000081525060200191505060405180910390fd5b6002600089815260200190815260200160002060090160008873ffffffffffffffffffffffffffffffffffffffff1673ffffffffffffffffffffffffffffffffffffffff16815260200190815260200160002060606040519081016040529081600082018054600181600116156101000203166002900480601f0160208091040260200160405190810160405280929190818152602001828054600181600116156101000203166002900480156125455780601f1061251a57610100808354040283529160200191612545565b820191906000526020600020905b81548152906001019060200180831161252857829003601f168201915b50505050508152602001600182018054600181600116156101000203166002900480601f0160208091040260200160405190810160405280929190818152602001828054600181600116156101000203166002900480156125e75780601f106125bc576101008083540402835291602001916125e7565b820191906000526020600020905b8154815290600101906020018083116125ca57829003601f168201915b505050505081526020016002820160009054906101000a900460ff1615151515815250509050878782600001518360200151846040015182925081915095509550955095509550509295509295909350565b600160003373ffffffffffffffffffffffffffffffffffffffff1673ffffffffffffffffffffffffffffffffffffffff16815260200190815260200160002060009054906101000a900460ff16151561269157600080fd5b60003411151561272f576040517f08c379a00000000000000000000000000000000000000000000000000000000081526004018080602001828103825260278152602001807f616464456c656374696f6e3a204e6f2068617920737566696369656e7465732081526020017f6574686572732e0000000000000000000000000000000000000000000000000081525060400191505060405180910390fd5b60036000815480929190600101919050555060046000815480929190600101919050555061010060405190810160405280600454815260200183815260200182815260200160001515815260200160008152602001600081526020016000815260200160008152506002600060045481526020019081526020016000206000820151816000015560208201518160010190805190602001906127d2929190613a59565b5060408201518160020190805190602001906127ef929190613a59565b5060608201518160030160006101000a81548160ff0219169083151502179055506080820151816004015560a0820151816005015560c0820151816006015560e082015181600701559050505050565b600061284a826136c9565b15156128e4576040517f08c379a00000000000000000000000000000000000000000000000000000000081526004018080602001828103825260268152602001807f67657443616e646964617465496e6465783a20456c65636369c3b36e206e6f2081526020017f76616c696461000000000000000000000000000000000000000000000000000081525060400191505060405180910390fd5b60026000838152602001908152602001600020600601549050919050565b60006060806000806000612914613ad9565b61291d886136c9565b1515612991576040517f08c379a00000000000000000000000000000000000000000000000000000000081526004018080602001828103825260208152602001807f676574456c656374696f6e3a20456c65636369c3b36e206e6f2076616c69646181525060200191505060405180910390fd5b60026000898152602001908152602001600020610100604051908101604052908160008201548152602001600182018054600181600116156101000203166002900480601f016020809104026020016040519081016040528092919081815260200182805460018160011615610100020316600290048015612a545780601f10612a2957610100808354040283529160200191612a54565b820191906000526020600020905b815481529060010190602001808311612a3757829003601f168201915b50505050508152602001600282018054600181600116156101000203166002900480601f016020809104026020016040519081016040528092919081815260200182805460018160011615610100020316600290048015612af65780601f10612acb57610100808354040283529160200191612af6565b820191906000526020600020905b815481529060010190602001808311612ad957829003601f168201915b505050505081526020016003820160009054906101000a900460ff161515151581526020016004820154815260200160058201548152602001600682015481526020016007820154815250509050806000015181602001518260400151836060015184608001518560a001518494508393509650965096509650965096505091939550919395565b6000600354905090565b600160003373ffffffffffffffffffffffffffffffffffffffff1673ffffffffffffffffffffffffffffffffffffffff16815260200190815260200160002060009054906101000a900460ff161515612be057600080fd5b612be9826136c9565b1515612c83576040517f08c379a00000000000000000000000000000000000000000000000000000000081526004018080602001828103825260238152602001807f616374697665456c656374696f6e3a20456c65636369c3b36e206e6f2076616c81526020017f696461000000000000000000000000000000000000000000000000000000000081525060400191505060405180910390fd5b806002600084815260200190815260200160002060030160006101000a81548160ff0219169083151502179055505050565b600160003373ffffffffffffffffffffffffffffffffffffffff1673ffffffffffffffffffffffffffffffffffffffff16815260200190815260200160002060009054906101000a900460ff161515612d0d57600080fd5b612d16826136c9565b1515612db0576040517f08c379a00000000000000000000000000000000000000000000000000000000081526004018080602001828103825260248152602001807f64656c65746543616e6469646174653a20456c65636369c3b36e206e6f20766181526020017f6c6964610000000000000000000000000000000000000000000000000000000081525060400191505060405180910390fd5b612dba82826136f4565b1515612e54576040517f08c379a00000000000000000000000000000000000000000000000000000000081526004018080602001828103825260248152602001807f64656c65746543616e6469646174653a2043616e64696461746f206e6f20766181526020017f6c69646f0000000000000000000000000000000000000000000000000000000081525060400191505060405180910390fd5b600260008381526020019081526020016000206004016000815480929190600190039190505550600260008381526020019081526020016000206008016000828152602001908152602001600020600080820160009055600182016000612ebb91906139ed565b600282016000612ecb91906139ed565b600382016000905550505050565b612ee2826136c9565b1515612f56576040517f08c379a000000000000000000000000000000000000000000000000000000000815260040180806020018281038252601b8152602001807f766f74696e673a20456c65636369c3b36e206e6f2076616c696461000000000081525060200191505060405180910390fd5b612f6082336119a3565b1515612fd4576040517f08c379a00000000000000000000000000000000000000000000000000000000081526004018080602001828103825260198152602001807f766f74696e673a20566f74616e7465206e6f2076616c69646f0000000000000081525060200191505060405180910390fd5b612fde8233610cc7565b151515613053576040517f08c379a00000000000000000000000000000000000000000000000000000000081526004018080602001828103825260178152602001807f766f74696e673a20566f74616e746520796120766f746f00000000000000000081525060200191505060405180910390fd5b61305d82826136f4565b15156130d1576040517f08c379a000000000000000000000000000000000000000000000000000000000815260040180806020018281038252601b8152602001807f766f74696e673a2043616e64696461746f206e6f2076616c69646f000000000081525060200191505060405180910390fd5b60016002600084815260200190815260200160002060090160003373ffffffffffffffffffffffffffffffffffffffff1673ffffffffffffffffffffffffffffffffffffffff16815260200190815260200160002060020160006101000a81548160ff021916908315150217905550600260008381526020019081526020016000206008016000828152602001908152602001600020600301600081548092919060010191905055503373ffffffffffffffffffffffffffffffffffffffff167f0902475a854b82199b4f5d6b81327ec4c4ec077ce0356a106ddc2748c5285ed3836040518082815260200191505060405180910390a25050565b600160003373ffffffffffffffffffffffffffffffffffffffff1673ffffffffffffffffffffffffffffffffffffffff16815260200190815260200160002060009054906101000a900460ff16151561322457600080fd5b61322d836136c9565b15156132c7576040517f08c379a00000000000000000000000000000000000000000000000000000000081526004018080602001828103825260218152602001807f61646443616e6469646174653a20456c65636369c3b36e206e6f2076616c696481526020017f610000000000000000000000000000000000000000000000000000000000000081525060400191505060405180910390fd5b60026000848152602001908152602001600020600401600081548092919060010191905055506002600084815260200190815260200160002060060160008154809291906001019190505550608060405190810160405280600260008681526020019081526020016000206006015481526020018381526020018281526020016000815250600260008581526020019081526020016000206008016000600260008781526020019081526020016000206006015481526020019081526020016000206000820151816000015560208201518160010190805190602001906133af929190613a59565b5060408201518160020190805190602001906133cc929190613a59565b5060608201518160030155905050505050565b600160003373ffffffffffffffffffffffffffffffffffffffff1673ffffffffffffffffffffffffffffffffffffffff16815260200190815260200160002060009054906101000a900460ff16151561343757600080fd5b613440856136c9565b15156134b4576040517f08c379a000000000000000000000000000000000000000000000000000000000815260040180806020018281038252601d8152602001807f616464566f7465723a20456c65636369c3b36e206e6f2076616c69646100000081525060200191505060405180910390fd5b60026000868152602001908152602001600020600501600081548092919060010191905055506002600086815260200190815260200160002060070160008154809291906001019190505550606060405190810160405280848152602001838152602001600015158152506002600087815260200190815260200160002060090160008673ffffffffffffffffffffffffffffffffffffffff1673ffffffffffffffffffffffffffffffffffffffff168152602001908152602001600020600082015181600001908051906020019061358e929190613a59565b5060208201518160010190805190602001906135ab929190613a59565b5060408201518160020160006101000a81548160ff021916908315150217905550905050600160026000878152602001908152602001600020600a0160008673ffffffffffffffffffffffffffffffffffffffff1673ffffffffffffffffffffffffffffffffffffffff16815260200190815260200160002060006101000a81548160ff0219169083151502179055508360026000878152602001908152602001600020600b0160006002600089815260200190815260200160002060070154815260200190815260200160002060006101000a81548173ffffffffffffffffffffffffffffffffffffffff021916908373ffffffffffffffffffffffffffffffffffffffff1602179055506136c28585836137d8565b5050505050565b600080821180156136dc57506004548211155b156136ea57600190506136ef565b600090505b919050565b60006136ff836136c9565b1515613799576040517f08c379a00000000000000000000000000000000000000000000000000000000081526004018080602001828103825260258152602001807f63616e646964617465497356616c69643a20456c65636369c3b36e206e6f207681526020017f616c69646100000000000000000000000000000000000000000000000000000081525060400191505060405180910390fd5b6000821180156137bf575060026000848152602001908152602001600020600601548211155b156137cd57600190506137d2565b600090505b92915050565b600160003373ffffffffffffffffffffffffffffffffffffffff1673ffffffffffffffffffffffffffffffffffffffff16815260200190815260200160002060009054906101000a900460ff16151561383057600080fd5b61383a83836119a3565b15156138d4576040517f08c379a00000000000000000000000000000000000000000000000000000000081526004018080602001828103825260258152602001807f676574457468657273466f72566f74696e673a20566f74616e7465206e6f207681526020017f616c69646f00000000000000000000000000000000000000000000000000000081525060400191505060405180910390fd5b806138dd611808565b111515613978576040517f08c379a000000000000000000000000000000000000000000000000000000000815260040180806020018281038252602d8152602001807f676574457468657273466f72566f74696e673a204e6f2068617920657468657281526020017f7320737566696369656e7465730000000000000000000000000000000000000081525060400191505060405180910390fd5b8173ffffffffffffffffffffffffffffffffffffffff166108fc829081150290604051600060405180830381858888f193505050501580156139be573d6000803e3d6000fd5b50505050565b608060405190810160405280600081526020016060815260200160608152602001600081525090565b50805460018160011615610100020316600290046000825580601f10613a135750613a32565b601f016020900490600052602060002090810190613a319190613b21565b5b50565b60606040519081016040528060608152602001606081526020016000151581525090565b828054600181600116156101000203166002900490600052602060002090601f016020900481019282601f10613a9a57805160ff1916838001178555613ac8565b82800160010185558215613ac8579182015b82811115613ac7578251825591602001919060010190613aac565b5b509050613ad59190613b21565b5090565b61010060405190810160405280600081526020016060815260200160608152602001600015158152602001600081526020016000815260200160008152602001600081525090565b613b4391905b80821115613b3f576000816000905550600101613b27565b5090565b905600a165627a7a723058201cabecd98a0c923ad29a856b7f8f9e575d98f69c893778c49fe3f9e9766dddad0029",
  "source": "pragma solidity ^0.4.24;\r\n\r\ncontract BEV {\r\n    address private owner; // Propietario del contrato\r\n    mapping(address => bool) public admins; // Lista de administradores\r\n\r\n    // Estructura de candidato\r\n    struct Candidate {\r\n        uint id;\r\n        string name;\r\n        string description;\r\n        uint voteCount;\r\n    }\r\n\r\n    // Estructura de votante\r\n    struct Voter {\r\n        string name;\r\n        string description;\r\n        bool voted;\r\n    }\r\n\r\n    // Estructura de eleccin\r\n    struct Election {\r\n        uint id;\r\n        string name;\r\n        string description;\r\n        bool active; // Estado de la eleccin => activa = true\r\n        uint candidatesCount;// Almacenar el recuento de los candidatos\r\n        uint votersCount; // Almacenar el recuento de los votantes\r\n        uint candidatesIndex; // Indice de candidatos, ya que al eliminar no se borra el objeto\r\n        uint votersIndex; // Indice de votanes, ya que al eliminar no se borra el objeto\r\n        mapping(uint => Candidate) candidates; // Lectura/escritura de candidatos\r\n        mapping(address => Voter) voters; // Lectura/escritura de los votantes\r\n        mapping(address => bool) joinedVoters; // Almacenar cuentas que pueden votar\r\n        mapping(uint => address) allVoters; // Lista de los votantes\r\n    }\r\n\r\n    mapping(uint => Election) private elections; // Lista de elecciones\r\n    uint private electionsCount; // Almacenar el recuento de las elecciones\r\n    uint private electionsIndex; // Indice de elecciones\r\n\r\n    event VotedEvent(address indexed _account, uint _idElection); // evento de voto\r\n\r\n    // Validar si es propietario\r\n    modifier isOwner(){\r\n        require(owner == msg.sender);\r\n        _;\r\n    }\r\n\r\n    // Validar si es administrador\r\n    modifier isAdmin(){\r\n        require(admins[msg.sender]);\r\n        _;\r\n    }\r\n\r\n    constructor () public {\r\n        owner = msg.sender; // Quien publica el contrato es el dueo\r\n        admins[msg.sender] = true; // Es administrador tambien\r\n    }\r\n\r\n    // Agregar un administrador\r\n    function addAdmin(address _addr) public isOwner {\r\n        require(!admins[_addr], \"addAdmin: Ya es administrador.\");\r\n        admins[_addr] = true;\r\n    }\r\n\r\n    // Quitar un administrador\r\n    function deleteAdmin(address _addr) public isOwner {\r\n        require(admins[_addr], \"deleteAdmin: No es administrador.\");\r\n        admins[_addr] = false;\r\n    }\r\n\r\n    // Agregar una eleccin\r\n    function addElection(string _name, string _description) public isAdmin payable {\r\n        require(msg.value > 0 ether, \"addElection: No hay suficientes ethers.\");\r\n        electionsCount++;\r\n        electionsIndex++;\r\n        elections[electionsIndex] = Election(electionsIndex, _name, _description, false, 0, 0, 0, 0);\r\n    }\r\n\r\n    // Obtener detalles de una eleccin\r\n    function getElection(uint _idElection) public view returns(uint, string, string, bool, uint, uint) {\r\n        require(electionIsValid(_idElection), \"getElection: Eleccin no valida\");\r\n        Election memory election = elections[_idElection];\r\n        return (election.id, election.name, election.description, election.active, election.candidatesCount, election.votersCount);\r\n    }\r\n\r\n    // Activar una eleccin\r\n    function activeElection(uint _idElection, bool _active) public isAdmin {\r\n        require(electionIsValid(_idElection), \"activeElection: Eleccin no valida\");\r\n        elections[_idElection].active = _active;\r\n    }\r\n\r\n   // Eliminar una eleccin\r\n    function deleteElection(uint _idElection) public isAdmin {\r\n        require(electionIsValid(_idElection), \"deleteElection: Eleccin no valida\");\r\n        require(elections[_idElection].votersCount == 0,\"deleteElection: Hay votantes\");\r\n        require(elections[_idElection].candidatesCount == 0, \"deleteElection: Hay candidatos\");\r\n        electionsCount--;\r\n        delete elections[_idElection];\r\n    }\r\n\r\n    // Devuelve la cantidad de elecciones que hay en el contrato\r\n    function getTotalElections() public view returns(uint) {\r\n        return electionsCount;\r\n    }\r\n\r\n    function getElectionsIndex() public view returns(uint) {\r\n        return electionsIndex;\r\n    }\r\n\r\n    // Comprobar si la eleccion es valida\r\n    function electionIsValid(uint _idElection) private view returns(bool) {\r\n        if(_idElection > 0 && _idElection <= electionsIndex)\r\n            return true;\r\n\r\n        return false;\r\n    }\r\n\r\n    // Agregar un candidato\r\n    function addCandidate (uint _idElection, string _name, string _description) public isAdmin {\r\n        require(electionIsValid(_idElection), \"addCandidate: Eleccin no valida\");\r\n        elections[_idElection].candidatesCount++;\r\n        elections[_idElection].candidatesIndex++;\r\n        elections[_idElection].candidates[elections[_idElection].candidatesIndex] = Candidate(elections[_idElection].candidatesIndex, _name, _description, 0);\r\n    }\r\n\r\n    // Obtener un candidato\r\n    function getCandidate(uint _idElection, uint _idCandidate) public view returns(uint, uint, string, string, uint) {\r\n        require(electionIsValid(_idElection), \"getCandidate: Eleccin no valida\");\r\n        require(candidateIsValid(_idElection, _idCandidate), \"getCandidate: Candidato no valido\");\r\n        Candidate memory candidate = elections[_idElection].candidates[_idCandidate];\r\n        return (_idElection, candidate.id, candidate.name, candidate.description, candidate.voteCount);\r\n    }\r\n\r\n   // Eliminar un candidato\r\n    function deleteCandidate(uint _idElection, uint _idCandidate) public isAdmin {\r\n        require(electionIsValid(_idElection), \"deleteCandidate: Eleccin no valida\");\r\n        require(candidateIsValid(_idElection, _idCandidate), \"deleteCandidate: Candidato no valido\");\r\n        elections[_idElection].candidatesCount--;\r\n        delete elections[_idElection].candidates[_idCandidate];\r\n    }\r\n\r\n    // Obtener la cantidad de candidatos de una eleccin\r\n    function getCandidatesCount (uint _idElection) public view returns(uint){\r\n        require(electionIsValid(_idElection), \"getCandidateCount: Eleccin no valida\");\r\n        return elections[_idElection].candidatesCount;\r\n    }\r\n\r\n    function getCandidatesIndex (uint _idElection) public view returns(uint){\r\n        require(electionIsValid(_idElection), \"getCandidateIndex: Eleccin no valida\");\r\n        return elections[_idElection].candidatesIndex;\r\n    }\r\n\r\n    // Comprobar si el candidato es valido\r\n    function candidateIsValid(uint _idElection, uint _idCandidate) private view returns(bool) {\r\n        require(electionIsValid(_idElection), \"candidateIsValid: Eleccin no valida\");\r\n        if(_idCandidate > 0 && _idCandidate <= elections[_idElection].candidatesIndex)\r\n            return true;\r\n\r\n        return false;\r\n    }\r\n\r\n    // Agregar un votante\r\n    function addVoter (uint _idElection, address _addr, string _name, string _description, uint _amount) public isAdmin {\r\n        require(electionIsValid(_idElection), \"addVoter: Eleccin no valida\");\r\n        elections[_idElection].votersCount++;\r\n        elections[_idElection].votersIndex++;\r\n        elections[_idElection].voters[_addr] = Voter(_name, _description, false);\r\n        elections[_idElection].joinedVoters[_addr] = true;\r\n        elections[_idElection].allVoters[elections[_idElection].votersIndex] = _addr;\r\n        getEthersForVoting(_idElection, _addr, _amount);\r\n    }\r\n\r\n    // Comprobar si el votante esta en el padrn\r\n    function voterIsJoined(uint _idElection, address _addr) public view returns(bool) {\r\n        require(electionIsValid(_idElection), \"voterIsJoined: Eleccin no valida\");\r\n        return elections[_idElection].joinedVoters[_addr];\r\n    }\r\n\r\n    // Obtengo la cuenta de un votante segn su posicin\r\n    function getAddressVoter(uint _idElection, uint _index) public isAdmin view returns(address) {\r\n        require(electionIsValid(_idElection), \"getAddressVoter: Eleccin no valida\");\r\n        return elections[_idElection].allVoters[_index];\r\n    }\r\n\r\n    // Obtengo un votante\r\n    function getVoter(uint _idElection, address _addr) public isAdmin view returns(uint, address, string, string, bool) {\r\n        require(electionIsValid(_idElection), \"getVoter: Eleccin no valida\");\r\n        //require(voterIsJoined(_idElection, _addr), \"getVoter: Votante no valido\");\r\n        Voter memory voter = elections[_idElection].voters[_addr];\r\n        return (_idElection, _addr, voter.name, voter.description, voter.voted);\r\n    }\r\n\r\n   // Eliminar votante\r\n    function deleteVoter(uint _idElection, address _addr) public isAdmin {\r\n        require(electionIsValid(_idElection), \"deleteVoter: Eleccin no valida\");\r\n        require(voterIsJoined(_idElection, _addr),\"deleteVoter: Votante no valido\");\r\n        require(!voterHasVoted(_idElection, _addr), \"deleteVoter: Votante ya voto\");\r\n        elections[_idElection].joinedVoters[_addr] = false;\r\n        delete elections[_idElection].voters[_addr];\r\n\r\n        uint i = 0;\r\n        bool encontro = false;\r\n        while ((i <= elections[_idElection].votersCount) && !encontro){\r\n            i++;\r\n            if(elections[_idElection].allVoters[i] == _addr)\r\n                encontro = true;\r\n\r\n        }\r\n       \r\n        if(encontro)\r\n            delete elections[_idElection].allVoters[i];\r\n\r\n        elections[_idElection].votersCount--;\r\n    }\r\n\r\n    // Obtener la cantidad de votantes de la eleccin\r\n    function getVotersCount (uint _idElection) public view returns(uint){\r\n        require(electionIsValid(_idElection), \"getVotersCount: Eleccin no valida\");\r\n        return elections[_idElection].votersCount;\r\n    }\r\n\r\n    function getVotersIndex (uint _idElection) public view returns(uint){\r\n        require(electionIsValid(_idElection), \"getVoterIndex: Eleccin no valida\");\r\n        return elections[_idElection].votersIndex;\r\n    }\r\n\r\n    // Votar\r\n    function voting (uint _idElection, uint _idCandidate) public {\r\n        require(electionIsValid(_idElection), \"voting: Eleccin no valida\"); // Requerir una eleccin vlida\r\n        // Exigir que sea un votante valido y que no haya votado antes\r\n        require(voterIsJoined(_idElection, msg.sender), \"voting: Votante no valido\");\r\n        require(!voterHasVoted(_idElection, msg.sender), \"voting: Votante ya voto\");\r\n        require(candidateIsValid(_idElection, _idCandidate), \"voting: Candidato no valido\"); // Requerir un candidato vlido\r\n        elections[_idElection].voters[msg.sender].voted = true; // Registro de que el votante ha votado\r\n        elections[_idElection].candidates[_idCandidate].voteCount++; // Registro de que el votante ha votado\r\n        emit VotedEvent(msg.sender, _idElection); // Evento desencadenante del voto\r\n    }\r\n\r\n    // Comprobar si el votante ya voto\r\n    function voterHasVoted(uint _idElection, address _addr) public view returns(bool) {\r\n        require(electionIsValid(_idElection), \"voterHasVoted: Eleccin no valida\");\r\n        require(voterIsJoined(_idElection, _addr), \"voterHasVoted: Votante no valido\");\r\n        return elections[_idElection].voters[_addr].voted;\r\n    }\r\n\r\n    // Resultado de la votacin\r\n    function getResultElection(uint _idElection) public view returns(uint) {\r\n        require(electionIsValid(_idElection), \"getResultElection: Eleccin no valida\");\r\n        uint idGanadorActual = elections[_idElection].candidates[1].id;\r\n        uint votosGanadorActual = elections[_idElection].candidates[1].voteCount;\r\n        for(uint i = 2; i <= elections[_idElection].candidatesIndex; i++) {\r\n            if(elections[_idElection].candidates[i].voteCount > votosGanadorActual) {\r\n                idGanadorActual = elections[_idElection].candidates[i].id;\r\n                votosGanadorActual = elections[_idElection].candidates[i].voteCount;\r\n            }\r\n            else {\r\n                if(elections[_idElection].candidates[i].voteCount == votosGanadorActual)\r\n                    idGanadorActual = 0;\r\n            }\r\n        }\r\n        return idGanadorActual;\r\n    }\r\n\r\n    // Transferir etheres para poder votar\r\n    function getEthersForVoting(uint _idElection, address _addr, uint monto) private isAdmin {\r\n        require(voterIsJoined(_idElection, _addr), \"getEthersForVoting: Votante no valido\");\r\n        require(getContractBalance() > monto, \"getEthersForVoting: No hay ethers suficientes\");\r\n        _addr.transfer(monto);\r\n    }\r\n\r\n    // Transferir los fondos del contrato\r\n    function transferFromContract(address _addr, uint amount) public isAdmin {\r\n        require(getContractBalance() > amount, \"transferFromContract: No hay ethers suficientes\");\r\n        _addr.transfer(amount);\r\n    }\r\n\r\n    // Obtener el balance del SmartContract\r\n    function getContractBalance() public view returns (uint) {\r\n        address BEVAddress = this;\r\n        return BEVAddress.balance;\r\n    }\r\n\r\n}",
  "sourcePath": "/Users/martinober/Documents/blockchain-electronic-voting/contracts/BEV.sol",
  "compiler": {
    "name": "solc",
    "version": "0.4.25+commit.59dbf8f1.Emscripten.clang"
  },
  "schemaVersion": "2.0.2",
  "updatedAt": "2020-05-09T04:18:03.757Z"
}